{
    "abi": [
        {
            "inputs": [
                {
                    "internalType": "string",
                    "name": "_serialId",
                    "type": "string"
                },
                {
                    "internalType": "string",
                    "name": "_dateCode",
                    "type": "string"
                },
                {
                    "internalType": "string",
                    "name": "_lotCode",
                    "type": "string"
                },
                {
                    "internalType": "string",
                    "name": "_poItem",
                    "type": "string"
                },
                {
                    "internalType": "string",
                    "name": "_poNumber",
                    "type": "string"
                },
                {
                    "internalType": "uint256",
                    "name": "_quantity",
                    "type": "uint256"
                },
                {
                    "internalType": "string",
                    "name": "_uom",
                    "type": "string"
                },
                {
                    "internalType": "string",
                    "name": "_receivingLocation",
                    "type": "string"
                },
                {
                    "internalType": "string",
                    "name": "_receivingPlant",
                    "type": "string"
                }
            ],
            "name": "createSerialDetail",
            "outputs": [],
            "stateMutability": "nonpayable",
            "type": "function"
        },
        {
            "inputs": [
                {
                    "internalType": "string",
                    "name": "_serialHeaderId",
                    "type": "string"
                },
                {
                    "internalType": "string",
                    "name": "_headerTxt",
                    "type": "string"
                },
                {
                    "internalType": "string",
                    "name": "_billOfLanding",
                    "type": "string"
                },
                {
                    "internalType": "string",
                    "name": "_docDate",
                    "type": "string"
                },
                {
                    "internalType": "string",
                    "name": "_postingDate",
                    "type": "string"
                },
                {
                    "internalType": "string",
                    "name": "_refDocNo",
                    "type": "string"
                },
                {
                    "internalType": "uint256[]",
                    "name": "_serialDetailIds",
                    "type": "uint256[]"
                }
            ],
            "name": "createSerialHeader",
            "outputs": [],
            "stateMutability": "nonpayable",
            "type": "function"
        },
        {
            "inputs": [
                {
                    "internalType": "uint256",
                    "name": "id",
                    "type": "uint256"
                }
            ],
            "name": "getSerialDetail",
            "outputs": [
                {
                    "internalType": "string",
                    "name": "serialId",
                    "type": "string"
                },
                {
                    "internalType": "string",
                    "name": "dateCode",
                    "type": "string"
                },
                {
                    "internalType": "string",
                    "name": "lotCode",
                    "type": "string"
                },
                {
                    "internalType": "string",
                    "name": "poItem",
                    "type": "string"
                },
                {
                    "internalType": "string",
                    "name": "poNumber",
                    "type": "string"
                },
                {
                    "internalType": "uint256",
                    "name": "quantity",
                    "type": "uint256"
                },
                {
                    "internalType": "string",
                    "name": "uom",
                    "type": "string"
                },
                {
                    "internalType": "string",
                    "name": "receivingLocation",
                    "type": "string"
                },
                {
                    "internalType": "string",
                    "name": "receivingPlant",
                    "type": "string"
                }
            ],
            "stateMutability": "view",
            "type": "function"
        },
        {
            "inputs": [
                {
                    "internalType": "string",
                    "name": "_serialHeaderId",
                    "type": "string"
                }
            ],
            "name": "getSerialHeader",
            "outputs": [
                {
                    "internalType": "string",
                    "name": "headerTxt",
                    "type": "string"
                },
                {
                    "internalType": "string",
                    "name": "billOfLanding",
                    "type": "string"
                },
                {
                    "internalType": "string",
                    "name": "docDate",
                    "type": "string"
                },
                {
                    "internalType": "string",
                    "name": "postingDate",
                    "type": "string"
                },
                {
                    "internalType": "string",
                    "name": "refDocNo",
                    "type": "string"
                },
                {
                    "internalType": "uint256[]",
                    "name": "serialDetailIds",
                    "type": "uint256[]"
                }
            ],
            "stateMutability": "view",
            "type": "function"
        },
        {
            "inputs": [],
            "name": "serialDetailCounter",
            "outputs": [
                {
                    "internalType": "uint256",
                    "name": "",
                    "type": "uint256"
                }
            ],
            "stateMutability": "view",
            "type": "function"
        },
        {
            "inputs": [
                {
                    "internalType": "uint256",
                    "name": "",
                    "type": "uint256"
                }
            ],
            "name": "serialDetailsMap",
            "outputs": [
                {
                    "internalType": "string",
                    "name": "serialId",
                    "type": "string"
                },
                {
                    "internalType": "string",
                    "name": "dateCode",
                    "type": "string"
                },
                {
                    "internalType": "string",
                    "name": "lotCode",
                    "type": "string"
                },
                {
                    "internalType": "string",
                    "name": "poItem",
                    "type": "string"
                },
                {
                    "internalType": "string",
                    "name": "poNumber",
                    "type": "string"
                },
                {
                    "internalType": "uint256",
                    "name": "quantity",
                    "type": "uint256"
                },
                {
                    "internalType": "string",
                    "name": "uom",
                    "type": "string"
                },
                {
                    "internalType": "string",
                    "name": "receivingLocation",
                    "type": "string"
                },
                {
                    "internalType": "string",
                    "name": "receivingPlant",
                    "type": "string"
                }
            ],
            "stateMutability": "view",
            "type": "function"
        },
        {
            "inputs": [
                {
                    "internalType": "string",
                    "name": "",
                    "type": "string"
                }
            ],
            "name": "serialHeadersMap",
            "outputs": [
                {
                    "internalType": "string",
                    "name": "headerTxt",
                    "type": "string"
                },
                {
                    "internalType": "string",
                    "name": "billOfLanding",
                    "type": "string"
                },
                {
                    "internalType": "string",
                    "name": "docDate",
                    "type": "string"
                },
                {
                    "internalType": "string",
                    "name": "postingDate",
                    "type": "string"
                },
                {
                    "internalType": "string",
                    "name": "refDocNo",
                    "type": "string"
                }
            ],
            "stateMutability": "view",
            "type": "function"
        }
    ],
    "devdoc": {
        "kind": "dev",
        "methods": {},
        "version": 1
    },
    "evm": {
        "assembly": "    /* \"SerialHeaderContract.sol\":57:3768  contract SerialHeaderContract {... */\n  mstore(0x40, 0x80)\n    /* \"SerialHeaderContract.sol\":756:757  0 */\n  0x00\n    /* \"SerialHeaderContract.sol\":722:757  uint public serialDetailCounter = 0 */\n  0x02\n  sstore\n    /* \"SerialHeaderContract.sol\":57:3768  contract SerialHeaderContract {... */\n  callvalue\n  dup1\n  iszero\n  tag_1\n  jumpi\n  0x00\n  dup1\n  revert\ntag_1:\n  pop\n  dataSize(sub_0)\n  dup1\n  dataOffset(sub_0)\n  0x00\n  codecopy\n  0x00\n  return\nstop\n\nsub_0: assembly {\n        /* \"SerialHeaderContract.sol\":57:3768  contract SerialHeaderContract {... */\n      mstore(0x40, 0x80)\n      callvalue\n      dup1\n      iszero\n      tag_1\n      jumpi\n      0x00\n      dup1\n      revert\n    tag_1:\n      pop\n      jumpi(tag_2, lt(calldatasize, 0x04))\n      shr(0xe0, calldataload(0x00))\n      dup1\n      0xc7dcc89b\n      gt\n      tag_10\n      jumpi\n      dup1\n      0xc7dcc89b\n      eq\n      tag_6\n      jumpi\n      dup1\n      0xd8493fa8\n      eq\n      tag_7\n      jumpi\n      dup1\n      0xe59c2870\n      eq\n      tag_8\n      jumpi\n      dup1\n      0xf7d01c7c\n      eq\n      tag_9\n      jumpi\n      jump(tag_2)\n    tag_10:\n      dup1\n      0x0581e74c\n      eq\n      tag_3\n      jumpi\n      dup1\n      0x4b079ff8\n      eq\n      tag_4\n      jumpi\n      dup1\n      0x7f804547\n      eq\n      tag_5\n      jumpi\n    tag_2:\n      0x00\n      dup1\n      revert\n        /* \"SerialHeaderContract.sol\":2404:2990  function getSerialHeader(string memory _serialHeaderId) public view returns (... */\n    tag_3:\n      tag_11\n      0x04\n      dup1\n      calldatasize\n      sub\n      dup2\n      add\n      swap1\n      tag_12\n      swap2\n      swap1\n      tag_13\n      jump\t// in\n    tag_12:\n      tag_14\n      jump\t// in\n    tag_11:\n      mload(0x40)\n      tag_15\n      swap7\n      swap6\n      swap5\n      swap4\n      swap3\n      swap2\n      swap1\n      tag_16\n      jump\t// in\n    tag_15:\n      mload(0x40)\n      dup1\n      swap2\n      sub\n      swap1\n      return\n        /* \"SerialHeaderContract.sol\":661:716  mapping(string => SerialHeader) public serialHeadersMap */\n    tag_4:\n      tag_17\n      0x04\n      dup1\n      calldatasize\n      sub\n      dup2\n      add\n      swap1\n      tag_18\n      swap2\n      swap1\n      tag_13\n      jump\t// in\n    tag_18:\n      tag_19\n      jump\t// in\n    tag_17:\n      mload(0x40)\n      tag_20\n      swap6\n      swap5\n      swap4\n      swap3\n      swap2\n      swap1\n      tag_21\n      jump\t// in\n    tag_20:\n      mload(0x40)\n      dup1\n      swap2\n      sub\n      swap1\n      return\n        /* \"SerialHeaderContract.sol\":1664:2325  function createSerialHeader(... */\n    tag_5:\n      tag_22\n      0x04\n      dup1\n      calldatasize\n      sub\n      dup2\n      add\n      swap1\n      tag_23\n      swap2\n      swap1\n      tag_24\n      jump\t// in\n    tag_23:\n      tag_25\n      jump\t// in\n    tag_22:\n      stop\n        /* \"SerialHeaderContract.sol\":722:757  uint public serialDetailCounter = 0 */\n    tag_6:\n      tag_26\n      tag_27\n      jump\t// in\n    tag_26:\n      mload(0x40)\n      tag_28\n      swap2\n      swap1\n      tag_29\n      jump\t// in\n    tag_28:\n      mload(0x40)\n      dup1\n      swap2\n      sub\n      swap1\n      return\n        /* \"SerialHeaderContract.sol\":3057:3766  function getSerialDetail(uint id) public view returns (... */\n    tag_7:\n      tag_30\n      0x04\n      dup1\n      calldatasize\n      sub\n      dup2\n      add\n      swap1\n      tag_31\n      swap2\n      swap1\n      tag_32\n      jump\t// in\n    tag_31:\n      tag_33\n      jump\t// in\n    tag_30:\n      mload(0x40)\n      tag_34\n      swap10\n      swap9\n      swap8\n      swap7\n      swap6\n      swap5\n      swap4\n      swap3\n      swap2\n      swap1\n      tag_35\n      jump\t// in\n    tag_34:\n      mload(0x40)\n      dup1\n      swap2\n      sub\n      swap1\n      return\n        /* \"SerialHeaderContract.sol\":800:1622  function createSerialDetail(... */\n    tag_8:\n      tag_36\n      0x04\n      dup1\n      calldatasize\n      sub\n      dup2\n      add\n      swap1\n      tag_37\n      swap2\n      swap1\n      tag_38\n      jump\t// in\n    tag_37:\n      tag_39\n      jump\t// in\n    tag_36:\n      stop\n        /* \"SerialHeaderContract.sol\":602:655  mapping(uint => SerialDetail) public serialDetailsMap */\n    tag_9:\n      tag_40\n      0x04\n      dup1\n      calldatasize\n      sub\n      dup2\n      add\n      swap1\n      tag_41\n      swap2\n      swap1\n      tag_32\n      jump\t// in\n    tag_41:\n      tag_42\n      jump\t// in\n    tag_40:\n      mload(0x40)\n      tag_43\n      swap10\n      swap9\n      swap8\n      swap7\n      swap6\n      swap5\n      swap4\n      swap3\n      swap2\n      swap1\n      tag_35\n      jump\t// in\n    tag_43:\n      mload(0x40)\n      dup1\n      swap2\n      sub\n      swap1\n      return\n        /* \"SerialHeaderContract.sol\":2404:2990  function getSerialHeader(string memory _serialHeaderId) public view returns (... */\n    tag_14:\n        /* \"SerialHeaderContract.sol\":2490:2513  string memory headerTxt */\n      0x60\n        /* \"SerialHeaderContract.sol\":2523:2550  string memory billOfLanding */\n      dup1\n        /* \"SerialHeaderContract.sol\":2560:2581  string memory docDate */\n      0x60\n        /* \"SerialHeaderContract.sol\":2591:2616  string memory postingDate */\n      dup1\n        /* \"SerialHeaderContract.sol\":2626:2648  string memory refDocNo */\n      0x60\n        /* \"SerialHeaderContract.sol\":2658:2687  uint[] memory serialDetailIds */\n      dup1\n        /* \"SerialHeaderContract.sol\":2704:2731  SerialHeader storage header */\n      0x00\n        /* \"SerialHeaderContract.sol\":2734:2750  serialHeadersMap */\n      0x01\n        /* \"SerialHeaderContract.sol\":2751:2766  _serialHeaderId */\n      dup9\n        /* \"SerialHeaderContract.sol\":2734:2767  serialHeadersMap[_serialHeaderId] */\n      mload(0x40)\n      tag_45\n      swap2\n      swap1\n      tag_46\n      jump\t// in\n    tag_45:\n      swap1\n      dup2\n      mstore\n      0x20\n      add\n      mload(0x40)\n      dup1\n      swap2\n      sub\n      swap1\n      keccak256\n        /* \"SerialHeaderContract.sol\":2704:2767  SerialHeader storage header = serialHeadersMap[_serialHeaderId] */\n      swap1\n      pop\n        /* \"SerialHeaderContract.sol\":2798:2804  header */\n      dup1\n        /* \"SerialHeaderContract.sol\":2798:2814  header.headerTxt */\n      0x00\n      add\n        /* \"SerialHeaderContract.sol\":2828:2834  header */\n      dup2\n        /* \"SerialHeaderContract.sol\":2828:2848  header.billOfLanding */\n      0x01\n      add\n        /* \"SerialHeaderContract.sol\":2862:2868  header */\n      dup3\n        /* \"SerialHeaderContract.sol\":2862:2876  header.docDate */\n      0x02\n      add\n        /* \"SerialHeaderContract.sol\":2890:2896  header */\n      dup4\n        /* \"SerialHeaderContract.sol\":2890:2908  header.postingDate */\n      0x03\n      add\n        /* \"SerialHeaderContract.sol\":2922:2928  header */\n      dup5\n        /* \"SerialHeaderContract.sol\":2922:2937  header.refDocNo */\n      0x04\n      add\n        /* \"SerialHeaderContract.sol\":2951:2957  header */\n      dup6\n        /* \"SerialHeaderContract.sol\":2951:2973  header.serialDetailIds */\n      0x05\n      add\n        /* \"SerialHeaderContract.sol\":2777:2983  return (... */\n      dup6\n      dup1\n      sload\n      tag_47\n      swap1\n      tag_48\n      jump\t// in\n    tag_47:\n      dup1\n      0x1f\n      add\n      0x20\n      dup1\n      swap2\n      div\n      mul\n      0x20\n      add\n      mload(0x40)\n      swap1\n      dup2\n      add\n      0x40\n      mstore\n      dup1\n      swap3\n      swap2\n      swap1\n      dup2\n      dup2\n      mstore\n      0x20\n      add\n      dup3\n      dup1\n      sload\n      tag_49\n      swap1\n      tag_48\n      jump\t// in\n    tag_49:\n      dup1\n      iszero\n      tag_50\n      jumpi\n      dup1\n      0x1f\n      lt\n      tag_51\n      jumpi\n      0x0100\n      dup1\n      dup4\n      sload\n      div\n      mul\n      dup4\n      mstore\n      swap2\n      0x20\n      add\n      swap2\n      jump(tag_50)\n    tag_51:\n      dup3\n      add\n      swap2\n      swap1\n      0x00\n      mstore\n      keccak256(0x00, 0x20)\n      swap1\n    tag_52:\n      dup2\n      sload\n      dup2\n      mstore\n      swap1\n      0x01\n      add\n      swap1\n      0x20\n      add\n      dup1\n      dup4\n      gt\n      tag_52\n      jumpi\n      dup3\n      swap1\n      sub\n      0x1f\n      and\n      dup3\n      add\n      swap2\n    tag_50:\n      pop\n      pop\n      pop\n      pop\n      pop\n      swap6\n      pop\n      dup5\n      dup1\n      sload\n      tag_53\n      swap1\n      tag_48\n      jump\t// in\n    tag_53:\n      dup1\n      0x1f\n      add\n      0x20\n      dup1\n      swap2\n      div\n      mul\n      0x20\n      add\n      mload(0x40)\n      swap1\n      dup2\n      add\n      0x40\n      mstore\n      dup1\n      swap3\n      swap2\n      swap1\n      dup2\n      dup2\n      mstore\n      0x20\n      add\n      dup3\n      dup1\n      sload\n      tag_54\n      swap1\n      tag_48\n      jump\t// in\n    tag_54:\n      dup1\n      iszero\n      tag_55\n      jumpi\n      dup1\n      0x1f\n      lt\n      tag_56\n      jumpi\n      0x0100\n      dup1\n      dup4\n      sload\n      div\n      mul\n      dup4\n      mstore\n      swap2\n      0x20\n      add\n      swap2\n      jump(tag_55)\n    tag_56:\n      dup3\n      add\n      swap2\n      swap1\n      0x00\n      mstore\n      keccak256(0x00, 0x20)\n      swap1\n    tag_57:\n      dup2\n      sload\n      dup2\n      mstore\n      swap1\n      0x01\n      add\n      swap1\n      0x20\n      add\n      dup1\n      dup4\n      gt\n      tag_57\n      jumpi\n      dup3\n      swap1\n      sub\n      0x1f\n      and\n      dup3\n      add\n      swap2\n    tag_55:\n      pop\n      pop\n      pop\n      pop\n      pop\n      swap5\n      pop\n      dup4\n      dup1\n      sload\n      tag_58\n      swap1\n      tag_48\n      jump\t// in\n    tag_58:\n      dup1\n      0x1f\n      add\n      0x20\n      dup1\n      swap2\n      div\n      mul\n      0x20\n      add\n      mload(0x40)\n      swap1\n      dup2\n      add\n      0x40\n      mstore\n      dup1\n      swap3\n      swap2\n      swap1\n      dup2\n      dup2\n      mstore\n      0x20\n      add\n      dup3\n      dup1\n      sload\n      tag_59\n      swap1\n      tag_48\n      jump\t// in\n    tag_59:\n      dup1\n      iszero\n      tag_60\n      jumpi\n      dup1\n      0x1f\n      lt\n      tag_61\n      jumpi\n      0x0100\n      dup1\n      dup4\n      sload\n      div\n      mul\n      dup4\n      mstore\n      swap2\n      0x20\n      add\n      swap2\n      jump(tag_60)\n    tag_61:\n      dup3\n      add\n      swap2\n      swap1\n      0x00\n      mstore\n      keccak256(0x00, 0x20)\n      swap1\n    tag_62:\n      dup2\n      sload\n      dup2\n      mstore\n      swap1\n      0x01\n      add\n      swap1\n      0x20\n      add\n      dup1\n      dup4\n      gt\n      tag_62\n      jumpi\n      dup3\n      swap1\n      sub\n      0x1f\n      and\n      dup3\n      add\n      swap2\n    tag_60:\n      pop\n      pop\n      pop\n      pop\n      pop\n      swap4\n      pop\n      dup3\n      dup1\n      sload\n      tag_63\n      swap1\n      tag_48\n      jump\t// in\n    tag_63:\n      dup1\n      0x1f\n      add\n      0x20\n      dup1\n      swap2\n      div\n      mul\n      0x20\n      add\n      mload(0x40)\n      swap1\n      dup2\n      add\n      0x40\n      mstore\n      dup1\n      swap3\n      swap2\n      swap1\n      dup2\n      dup2\n      mstore\n      0x20\n      add\n      dup3\n      dup1\n      sload\n      tag_64\n      swap1\n      tag_48\n      jump\t// in\n    tag_64:\n      dup1\n      iszero\n      tag_65\n      jumpi\n      dup1\n      0x1f\n      lt\n      tag_66\n      jumpi\n      0x0100\n      dup1\n      dup4\n      sload\n      div\n      mul\n      dup4\n      mstore\n      swap2\n      0x20\n      add\n      swap2\n      jump(tag_65)\n    tag_66:\n      dup3\n      add\n      swap2\n      swap1\n      0x00\n      mstore\n      keccak256(0x00, 0x20)\n      swap1\n    tag_67:\n      dup2\n      sload\n      dup2\n      mstore\n      swap1\n      0x01\n      add\n      swap1\n      0x20\n      add\n      dup1\n      dup4\n      gt\n      tag_67\n      jumpi\n      dup3\n      swap1\n      sub\n      0x1f\n      and\n      dup3\n      add\n      swap2\n    tag_65:\n      pop\n      pop\n      pop\n      pop\n      pop\n      swap3\n      pop\n      dup2\n      dup1\n      sload\n      tag_68\n      swap1\n      tag_48\n      jump\t// in\n    tag_68:\n      dup1\n      0x1f\n      add\n      0x20\n      dup1\n      swap2\n      div\n      mul\n      0x20\n      add\n      mload(0x40)\n      swap1\n      dup2\n      add\n      0x40\n      mstore\n      dup1\n      swap3\n      swap2\n      swap1\n      dup2\n      dup2\n      mstore\n      0x20\n      add\n      dup3\n      dup1\n      sload\n      tag_69\n      swap1\n      tag_48\n      jump\t// in\n    tag_69:\n      dup1\n      iszero\n      tag_70\n      jumpi\n      dup1\n      0x1f\n      lt\n      tag_71\n      jumpi\n      0x0100\n      dup1\n      dup4\n      sload\n      div\n      mul\n      dup4\n      mstore\n      swap2\n      0x20\n      add\n      swap2\n      jump(tag_70)\n    tag_71:\n      dup3\n      add\n      swap2\n      swap1\n      0x00\n      mstore\n      keccak256(0x00, 0x20)\n      swap1\n    tag_72:\n      dup2\n      sload\n      dup2\n      mstore\n      swap1\n      0x01\n      add\n      swap1\n      0x20\n      add\n      dup1\n      dup4\n      gt\n      tag_72\n      jumpi\n      dup3\n      swap1\n      sub\n      0x1f\n      and\n      dup3\n      add\n      swap2\n    tag_70:\n      pop\n      pop\n      pop\n      pop\n      pop\n      swap2\n      pop\n      dup1\n      dup1\n      sload\n      dup1\n      0x20\n      mul\n      0x20\n      add\n      mload(0x40)\n      swap1\n      dup2\n      add\n      0x40\n      mstore\n      dup1\n      swap3\n      swap2\n      swap1\n      dup2\n      dup2\n      mstore\n      0x20\n      add\n      dup3\n      dup1\n      sload\n      dup1\n      iszero\n      tag_73\n      jumpi\n      0x20\n      mul\n      dup3\n      add\n      swap2\n      swap1\n      0x00\n      mstore\n      keccak256(0x00, 0x20)\n      swap1\n    tag_74:\n      dup2\n      sload\n      dup2\n      mstore\n      0x20\n      add\n      swap1\n      0x01\n      add\n      swap1\n      dup1\n      dup4\n      gt\n      tag_74\n      jumpi\n    tag_73:\n      pop\n      pop\n      pop\n      pop\n      pop\n      swap1\n      pop\n      swap7\n      pop\n      swap7\n      pop\n      swap7\n      pop\n      swap7\n      pop\n      swap7\n      pop\n      swap7\n      pop\n      pop\n        /* \"SerialHeaderContract.sol\":2404:2990  function getSerialHeader(string memory _serialHeaderId) public view returns (... */\n      swap2\n      swap4\n      swap6\n      pop\n      swap2\n      swap4\n      swap6\n      jump\t// out\n        /* \"SerialHeaderContract.sol\":661:716  mapping(string => SerialHeader) public serialHeadersMap */\n    tag_19:\n      0x01\n      dup2\n      dup1\n      mload\n      0x20\n      dup2\n      add\n      dup3\n      add\n      dup1\n      mload\n      dup5\n      dup3\n      mstore\n      0x20\n      dup4\n      add\n      0x20\n      dup6\n      add\n      keccak256\n      dup2\n      dup4\n      mstore\n      dup1\n      swap6\n      pop\n      pop\n      pop\n      pop\n      pop\n      pop\n      0x00\n      swap2\n      pop\n      swap1\n      pop\n      dup1\n      0x00\n      add\n      dup1\n      sload\n      tag_75\n      swap1\n      tag_48\n      jump\t// in\n    tag_75:\n      dup1\n      0x1f\n      add\n      0x20\n      dup1\n      swap2\n      div\n      mul\n      0x20\n      add\n      mload(0x40)\n      swap1\n      dup2\n      add\n      0x40\n      mstore\n      dup1\n      swap3\n      swap2\n      swap1\n      dup2\n      dup2\n      mstore\n      0x20\n      add\n      dup3\n      dup1\n      sload\n      tag_76\n      swap1\n      tag_48\n      jump\t// in\n    tag_76:\n      dup1\n      iszero\n      tag_77\n      jumpi\n      dup1\n      0x1f\n      lt\n      tag_78\n      jumpi\n      0x0100\n      dup1\n      dup4\n      sload\n      div\n      mul\n      dup4\n      mstore\n      swap2\n      0x20\n      add\n      swap2\n      jump(tag_77)\n    tag_78:\n      dup3\n      add\n      swap2\n      swap1\n      0x00\n      mstore\n      keccak256(0x00, 0x20)\n      swap1\n    tag_79:\n      dup2\n      sload\n      dup2\n      mstore\n      swap1\n      0x01\n      add\n      swap1\n      0x20\n      add\n      dup1\n      dup4\n      gt\n      tag_79\n      jumpi\n      dup3\n      swap1\n      sub\n      0x1f\n      and\n      dup3\n      add\n      swap2\n    tag_77:\n      pop\n      pop\n      pop\n      pop\n      pop\n      swap1\n      dup1\n      0x01\n      add\n      dup1\n      sload\n      tag_80\n      swap1\n      tag_48\n      jump\t// in\n    tag_80:\n      dup1\n      0x1f\n      add\n      0x20\n      dup1\n      swap2\n      div\n      mul\n      0x20\n      add\n      mload(0x40)\n      swap1\n      dup2\n      add\n      0x40\n      mstore\n      dup1\n      swap3\n      swap2\n      swap1\n      dup2\n      dup2\n      mstore\n      0x20\n      add\n      dup3\n      dup1\n      sload\n      tag_81\n      swap1\n      tag_48\n      jump\t// in\n    tag_81:\n      dup1\n      iszero\n      tag_82\n      jumpi\n      dup1\n      0x1f\n      lt\n      tag_83\n      jumpi\n      0x0100\n      dup1\n      dup4\n      sload\n      div\n      mul\n      dup4\n      mstore\n      swap2\n      0x20\n      add\n      swap2\n      jump(tag_82)\n    tag_83:\n      dup3\n      add\n      swap2\n      swap1\n      0x00\n      mstore\n      keccak256(0x00, 0x20)\n      swap1\n    tag_84:\n      dup2\n      sload\n      dup2\n      mstore\n      swap1\n      0x01\n      add\n      swap1\n      0x20\n      add\n      dup1\n      dup4\n      gt\n      tag_84\n      jumpi\n      dup3\n      swap1\n      sub\n      0x1f\n      and\n      dup3\n      add\n      swap2\n    tag_82:\n      pop\n      pop\n      pop\n      pop\n      pop\n      swap1\n      dup1\n      0x02\n      add\n      dup1\n      sload\n      tag_85\n      swap1\n      tag_48\n      jump\t// in\n    tag_85:\n      dup1\n      0x1f\n      add\n      0x20\n      dup1\n      swap2\n      div\n      mul\n      0x20\n      add\n      mload(0x40)\n      swap1\n      dup2\n      add\n      0x40\n      mstore\n      dup1\n      swap3\n      swap2\n      swap1\n      dup2\n      dup2\n      mstore\n      0x20\n      add\n      dup3\n      dup1\n      sload\n      tag_86\n      swap1\n      tag_48\n      jump\t// in\n    tag_86:\n      dup1\n      iszero\n      tag_87\n      jumpi\n      dup1\n      0x1f\n      lt\n      tag_88\n      jumpi\n      0x0100\n      dup1\n      dup4\n      sload\n      div\n      mul\n      dup4\n      mstore\n      swap2\n      0x20\n      add\n      swap2\n      jump(tag_87)\n    tag_88:\n      dup3\n      add\n      swap2\n      swap1\n      0x00\n      mstore\n      keccak256(0x00, 0x20)\n      swap1\n    tag_89:\n      dup2\n      sload\n      dup2\n      mstore\n      swap1\n      0x01\n      add\n      swap1\n      0x20\n      add\n      dup1\n      dup4\n      gt\n      tag_89\n      jumpi\n      dup3\n      swap1\n      sub\n      0x1f\n      and\n      dup3\n      add\n      swap2\n    tag_87:\n      pop\n      pop\n      pop\n      pop\n      pop\n      swap1\n      dup1\n      0x03\n      add\n      dup1\n      sload\n      tag_90\n      swap1\n      tag_48\n      jump\t// in\n    tag_90:\n      dup1\n      0x1f\n      add\n      0x20\n      dup1\n      swap2\n      div\n      mul\n      0x20\n      add\n      mload(0x40)\n      swap1\n      dup2\n      add\n      0x40\n      mstore\n      dup1\n      swap3\n      swap2\n      swap1\n      dup2\n      dup2\n      mstore\n      0x20\n      add\n      dup3\n      dup1\n      sload\n      tag_91\n      swap1\n      tag_48\n      jump\t// in\n    tag_91:\n      dup1\n      iszero\n      tag_92\n      jumpi\n      dup1\n      0x1f\n      lt\n      tag_93\n      jumpi\n      0x0100\n      dup1\n      dup4\n      sload\n      div\n      mul\n      dup4\n      mstore\n      swap2\n      0x20\n      add\n      swap2\n      jump(tag_92)\n    tag_93:\n      dup3\n      add\n      swap2\n      swap1\n      0x00\n      mstore\n      keccak256(0x00, 0x20)\n      swap1\n    tag_94:\n      dup2\n      sload\n      dup2\n      mstore\n      swap1\n      0x01\n      add\n      swap1\n      0x20\n      add\n      dup1\n      dup4\n      gt\n      tag_94\n      jumpi\n      dup3\n      swap1\n      sub\n      0x1f\n      and\n      dup3\n      add\n      swap2\n    tag_92:\n      pop\n      pop\n      pop\n      pop\n      pop\n      swap1\n      dup1\n      0x04\n      add\n      dup1\n      sload\n      tag_95\n      swap1\n      tag_48\n      jump\t// in\n    tag_95:\n      dup1\n      0x1f\n      add\n      0x20\n      dup1\n      swap2\n      div\n      mul\n      0x20\n      add\n      mload(0x40)\n      swap1\n      dup2\n      add\n      0x40\n      mstore\n      dup1\n      swap3\n      swap2\n      swap1\n      dup2\n      dup2\n      mstore\n      0x20\n      add\n      dup3\n      dup1\n      sload\n      tag_96\n      swap1\n      tag_48\n      jump\t// in\n    tag_96:\n      dup1\n      iszero\n      tag_97\n      jumpi\n      dup1\n      0x1f\n      lt\n      tag_98\n      jumpi\n      0x0100\n      dup1\n      dup4\n      sload\n      div\n      mul\n      dup4\n      mstore\n      swap2\n      0x20\n      add\n      swap2\n      jump(tag_97)\n    tag_98:\n      dup3\n      add\n      swap2\n      swap1\n      0x00\n      mstore\n      keccak256(0x00, 0x20)\n      swap1\n    tag_99:\n      dup2\n      sload\n      dup2\n      mstore\n      swap1\n      0x01\n      add\n      swap1\n      0x20\n      add\n      dup1\n      dup4\n      gt\n      tag_99\n      jumpi\n      dup3\n      swap1\n      sub\n      0x1f\n      and\n      dup3\n      add\n      swap2\n    tag_97:\n      pop\n      pop\n      pop\n      pop\n      pop\n      swap1\n      pop\n      dup6\n      jump\t// out\n        /* \"SerialHeaderContract.sol\":1664:2325  function createSerialHeader(... */\n    tag_25:\n        /* \"SerialHeaderContract.sol\":1967:2002  SerialHeader memory newSerialHeader */\n      0x00\n        /* \"SerialHeaderContract.sol\":2005:2257  SerialHeader({... */\n      mload(0x40)\n      dup1\n      0xc0\n      add\n      0x40\n      mstore\n      dup1\n        /* \"SerialHeaderContract.sol\":2043:2053  _headerTxt */\n      dup9\n        /* \"SerialHeaderContract.sol\":2005:2257  SerialHeader({... */\n      dup2\n      mstore\n      0x20\n      add\n        /* \"SerialHeaderContract.sol\":2082:2096  _billOfLanding */\n      dup8\n        /* \"SerialHeaderContract.sol\":2005:2257  SerialHeader({... */\n      dup2\n      mstore\n      0x20\n      add\n        /* \"SerialHeaderContract.sol\":2119:2127  _docDate */\n      dup7\n        /* \"SerialHeaderContract.sol\":2005:2257  SerialHeader({... */\n      dup2\n      mstore\n      0x20\n      add\n        /* \"SerialHeaderContract.sol\":2154:2166  _postingDate */\n      dup6\n        /* \"SerialHeaderContract.sol\":2005:2257  SerialHeader({... */\n      dup2\n      mstore\n      0x20\n      add\n        /* \"SerialHeaderContract.sol\":2190:2199  _refDocNo */\n      dup5\n        /* \"SerialHeaderContract.sol\":2005:2257  SerialHeader({... */\n      dup2\n      mstore\n      0x20\n      add\n        /* \"SerialHeaderContract.sol\":2230:2246  _serialDetailIds */\n      dup4\n        /* \"SerialHeaderContract.sol\":2005:2257  SerialHeader({... */\n      dup2\n      mstore\n      pop\n        /* \"SerialHeaderContract.sol\":1967:2257  SerialHeader memory newSerialHeader = SerialHeader({... */\n      swap1\n      pop\n        /* \"SerialHeaderContract.sol\":2303:2318  newSerialHeader */\n      dup1\n        /* \"SerialHeaderContract.sol\":2267:2283  serialHeadersMap */\n      0x01\n        /* \"SerialHeaderContract.sol\":2284:2299  _serialHeaderId */\n      dup10\n        /* \"SerialHeaderContract.sol\":2267:2300  serialHeadersMap[_serialHeaderId] */\n      mload(0x40)\n      tag_101\n      swap2\n      swap1\n      tag_46\n      jump\t// in\n    tag_101:\n      swap1\n      dup2\n      mstore\n      0x20\n      add\n      mload(0x40)\n      dup1\n      swap2\n      sub\n      swap1\n      keccak256\n        /* \"SerialHeaderContract.sol\":2267:2318  serialHeadersMap[_serialHeaderId] = newSerialHeader */\n      0x00\n      dup3\n      add\n      mload\n      dup2\n      0x00\n      add\n      swap1\n      dup1\n      mload\n      swap1\n      0x20\n      add\n      swap1\n      tag_102\n      swap3\n      swap2\n      swap1\n      tag_103\n      jump\t// in\n    tag_102:\n      pop\n      0x20\n      dup3\n      add\n      mload\n      dup2\n      0x01\n      add\n      swap1\n      dup1\n      mload\n      swap1\n      0x20\n      add\n      swap1\n      tag_104\n      swap3\n      swap2\n      swap1\n      tag_103\n      jump\t// in\n    tag_104:\n      pop\n      0x40\n      dup3\n      add\n      mload\n      dup2\n      0x02\n      add\n      swap1\n      dup1\n      mload\n      swap1\n      0x20\n      add\n      swap1\n      tag_105\n      swap3\n      swap2\n      swap1\n      tag_103\n      jump\t// in\n    tag_105:\n      pop\n      0x60\n      dup3\n      add\n      mload\n      dup2\n      0x03\n      add\n      swap1\n      dup1\n      mload\n      swap1\n      0x20\n      add\n      swap1\n      tag_106\n      swap3\n      swap2\n      swap1\n      tag_103\n      jump\t// in\n    tag_106:\n      pop\n      0x80\n      dup3\n      add\n      mload\n      dup2\n      0x04\n      add\n      swap1\n      dup1\n      mload\n      swap1\n      0x20\n      add\n      swap1\n      tag_107\n      swap3\n      swap2\n      swap1\n      tag_103\n      jump\t// in\n    tag_107:\n      pop\n      0xa0\n      dup3\n      add\n      mload\n      dup2\n      0x05\n      add\n      swap1\n      dup1\n      mload\n      swap1\n      0x20\n      add\n      swap1\n      tag_108\n      swap3\n      swap2\n      swap1\n      tag_109\n      jump\t// in\n    tag_108:\n      pop\n      swap1\n      pop\n      pop\n        /* \"SerialHeaderContract.sol\":1957:2325  {... */\n      pop\n        /* \"SerialHeaderContract.sol\":1664:2325  function createSerialHeader(... */\n      pop\n      pop\n      pop\n      pop\n      pop\n      pop\n      pop\n      jump\t// out\n        /* \"SerialHeaderContract.sol\":722:757  uint public serialDetailCounter = 0 */\n    tag_27:\n      sload(0x02)\n      dup2\n      jump\t// out\n        /* \"SerialHeaderContract.sol\":3057:3766  function getSerialDetail(uint id) public view returns (... */\n    tag_33:\n        /* \"SerialHeaderContract.sol\":3121:3143  string memory serialId */\n      0x60\n        /* \"SerialHeaderContract.sol\":3153:3175  string memory dateCode */\n      dup1\n        /* \"SerialHeaderContract.sol\":3185:3206  string memory lotCode */\n      0x60\n        /* \"SerialHeaderContract.sol\":3216:3236  string memory poItem */\n      dup1\n        /* \"SerialHeaderContract.sol\":3246:3268  string memory poNumber */\n      0x60\n        /* \"SerialHeaderContract.sol\":3278:3291  uint quantity */\n      0x00\n        /* \"SerialHeaderContract.sol\":3301:3318  string memory uom */\n      0x60\n        /* \"SerialHeaderContract.sol\":3328:3359  string memory receivingLocation */\n      dup1\n        /* \"SerialHeaderContract.sol\":3369:3397  string memory receivingPlant */\n      0x60\n        /* \"SerialHeaderContract.sol\":3414:3441  SerialDetail storage detail */\n      0x00\n        /* \"SerialHeaderContract.sol\":3444:3460  serialDetailsMap */\n      dup1\n        /* \"SerialHeaderContract.sol\":3444:3464  serialDetailsMap[id] */\n      0x00\n        /* \"SerialHeaderContract.sol\":3461:3463  id */\n      dup13\n        /* \"SerialHeaderContract.sol\":3444:3464  serialDetailsMap[id] */\n      dup2\n      mstore\n      0x20\n      add\n      swap1\n      dup2\n      mstore\n      0x20\n      add\n      0x00\n      keccak256\n        /* \"SerialHeaderContract.sol\":3414:3464  SerialDetail storage detail = serialDetailsMap[id] */\n      swap1\n      pop\n        /* \"SerialHeaderContract.sol\":3495:3501  detail */\n      dup1\n        /* \"SerialHeaderContract.sol\":3495:3510  detail.serialId */\n      0x00\n      add\n        /* \"SerialHeaderContract.sol\":3524:3530  detail */\n      dup2\n        /* \"SerialHeaderContract.sol\":3524:3539  detail.dateCode */\n      0x01\n      add\n        /* \"SerialHeaderContract.sol\":3553:3559  detail */\n      dup3\n        /* \"SerialHeaderContract.sol\":3553:3567  detail.lotCode */\n      0x02\n      add\n        /* \"SerialHeaderContract.sol\":3581:3587  detail */\n      dup4\n        /* \"SerialHeaderContract.sol\":3581:3594  detail.poItem */\n      0x03\n      add\n        /* \"SerialHeaderContract.sol\":3608:3614  detail */\n      dup5\n        /* \"SerialHeaderContract.sol\":3608:3623  detail.poNumber */\n      0x04\n      add\n        /* \"SerialHeaderContract.sol\":3637:3643  detail */\n      dup6\n        /* \"SerialHeaderContract.sol\":3637:3652  detail.quantity */\n      0x05\n      add\n      sload\n        /* \"SerialHeaderContract.sol\":3666:3672  detail */\n      dup7\n        /* \"SerialHeaderContract.sol\":3666:3676  detail.uom */\n      0x06\n      add\n        /* \"SerialHeaderContract.sol\":3690:3696  detail */\n      dup8\n        /* \"SerialHeaderContract.sol\":3690:3714  detail.receivingLocation */\n      0x07\n      add\n        /* \"SerialHeaderContract.sol\":3728:3734  detail */\n      dup9\n        /* \"SerialHeaderContract.sol\":3728:3749  detail.receivingPlant */\n      0x08\n      add\n        /* \"SerialHeaderContract.sol\":3474:3759  return (... */\n      dup9\n      dup1\n      sload\n      tag_111\n      swap1\n      tag_48\n      jump\t// in\n    tag_111:\n      dup1\n      0x1f\n      add\n      0x20\n      dup1\n      swap2\n      div\n      mul\n      0x20\n      add\n      mload(0x40)\n      swap1\n      dup2\n      add\n      0x40\n      mstore\n      dup1\n      swap3\n      swap2\n      swap1\n      dup2\n      dup2\n      mstore\n      0x20\n      add\n      dup3\n      dup1\n      sload\n      tag_112\n      swap1\n      tag_48\n      jump\t// in\n    tag_112:\n      dup1\n      iszero\n      tag_113\n      jumpi\n      dup1\n      0x1f\n      lt\n      tag_114\n      jumpi\n      0x0100\n      dup1\n      dup4\n      sload\n      div\n      mul\n      dup4\n      mstore\n      swap2\n      0x20\n      add\n      swap2\n      jump(tag_113)\n    tag_114:\n      dup3\n      add\n      swap2\n      swap1\n      0x00\n      mstore\n      keccak256(0x00, 0x20)\n      swap1\n    tag_115:\n      dup2\n      sload\n      dup2\n      mstore\n      swap1\n      0x01\n      add\n      swap1\n      0x20\n      add\n      dup1\n      dup4\n      gt\n      tag_115\n      jumpi\n      dup3\n      swap1\n      sub\n      0x1f\n      and\n      dup3\n      add\n      swap2\n    tag_113:\n      pop\n      pop\n      pop\n      pop\n      pop\n      swap9\n      pop\n      dup8\n      dup1\n      sload\n      tag_116\n      swap1\n      tag_48\n      jump\t// in\n    tag_116:\n      dup1\n      0x1f\n      add\n      0x20\n      dup1\n      swap2\n      div\n      mul\n      0x20\n      add\n      mload(0x40)\n      swap1\n      dup2\n      add\n      0x40\n      mstore\n      dup1\n      swap3\n      swap2\n      swap1\n      dup2\n      dup2\n      mstore\n      0x20\n      add\n      dup3\n      dup1\n      sload\n      tag_117\n      swap1\n      tag_48\n      jump\t// in\n    tag_117:\n      dup1\n      iszero\n      tag_118\n      jumpi\n      dup1\n      0x1f\n      lt\n      tag_119\n      jumpi\n      0x0100\n      dup1\n      dup4\n      sload\n      div\n      mul\n      dup4\n      mstore\n      swap2\n      0x20\n      add\n      swap2\n      jump(tag_118)\n    tag_119:\n      dup3\n      add\n      swap2\n      swap1\n      0x00\n      mstore\n      keccak256(0x00, 0x20)\n      swap1\n    tag_120:\n      dup2\n      sload\n      dup2\n      mstore\n      swap1\n      0x01\n      add\n      swap1\n      0x20\n      add\n      dup1\n      dup4\n      gt\n      tag_120\n      jumpi\n      dup3\n      swap1\n      sub\n      0x1f\n      and\n      dup3\n      add\n      swap2\n    tag_118:\n      pop\n      pop\n      pop\n      pop\n      pop\n      swap8\n      pop\n      dup7\n      dup1\n      sload\n      tag_121\n      swap1\n      tag_48\n      jump\t// in\n    tag_121:\n      dup1\n      0x1f\n      add\n      0x20\n      dup1\n      swap2\n      div\n      mul\n      0x20\n      add\n      mload(0x40)\n      swap1\n      dup2\n      add\n      0x40\n      mstore\n      dup1\n      swap3\n      swap2\n      swap1\n      dup2\n      dup2\n      mstore\n      0x20\n      add\n      dup3\n      dup1\n      sload\n      tag_122\n      swap1\n      tag_48\n      jump\t// in\n    tag_122:\n      dup1\n      iszero\n      tag_123\n      jumpi\n      dup1\n      0x1f\n      lt\n      tag_124\n      jumpi\n      0x0100\n      dup1\n      dup4\n      sload\n      div\n      mul\n      dup4\n      mstore\n      swap2\n      0x20\n      add\n      swap2\n      jump(tag_123)\n    tag_124:\n      dup3\n      add\n      swap2\n      swap1\n      0x00\n      mstore\n      keccak256(0x00, 0x20)\n      swap1\n    tag_125:\n      dup2\n      sload\n      dup2\n      mstore\n      swap1\n      0x01\n      add\n      swap1\n      0x20\n      add\n      dup1\n      dup4\n      gt\n      tag_125\n      jumpi\n      dup3\n      swap1\n      sub\n      0x1f\n      and\n      dup3\n      add\n      swap2\n    tag_123:\n      pop\n      pop\n      pop\n      pop\n      pop\n      swap7\n      pop\n      dup6\n      dup1\n      sload\n      tag_126\n      swap1\n      tag_48\n      jump\t// in\n    tag_126:\n      dup1\n      0x1f\n      add\n      0x20\n      dup1\n      swap2\n      div\n      mul\n      0x20\n      add\n      mload(0x40)\n      swap1\n      dup2\n      add\n      0x40\n      mstore\n      dup1\n      swap3\n      swap2\n      swap1\n      dup2\n      dup2\n      mstore\n      0x20\n      add\n      dup3\n      dup1\n      sload\n      tag_127\n      swap1\n      tag_48\n      jump\t// in\n    tag_127:\n      dup1\n      iszero\n      tag_128\n      jumpi\n      dup1\n      0x1f\n      lt\n      tag_129\n      jumpi\n      0x0100\n      dup1\n      dup4\n      sload\n      div\n      mul\n      dup4\n      mstore\n      swap2\n      0x20\n      add\n      swap2\n      jump(tag_128)\n    tag_129:\n      dup3\n      add\n      swap2\n      swap1\n      0x00\n      mstore\n      keccak256(0x00, 0x20)\n      swap1\n    tag_130:\n      dup2\n      sload\n      dup2\n      mstore\n      swap1\n      0x01\n      add\n      swap1\n      0x20\n      add\n      dup1\n      dup4\n      gt\n      tag_130\n      jumpi\n      dup3\n      swap1\n      sub\n      0x1f\n      and\n      dup3\n      add\n      swap2\n    tag_128:\n      pop\n      pop\n      pop\n      pop\n      pop\n      swap6\n      pop\n      dup5\n      dup1\n      sload\n      tag_131\n      swap1\n      tag_48\n      jump\t// in\n    tag_131:\n      dup1\n      0x1f\n      add\n      0x20\n      dup1\n      swap2\n      div\n      mul\n      0x20\n      add\n      mload(0x40)\n      swap1\n      dup2\n      add\n      0x40\n      mstore\n      dup1\n      swap3\n      swap2\n      swap1\n      dup2\n      dup2\n      mstore\n      0x20\n      add\n      dup3\n      dup1\n      sload\n      tag_132\n      swap1\n      tag_48\n      jump\t// in\n    tag_132:\n      dup1\n      iszero\n      tag_133\n      jumpi\n      dup1\n      0x1f\n      lt\n      tag_134\n      jumpi\n      0x0100\n      dup1\n      dup4\n      sload\n      div\n      mul\n      dup4\n      mstore\n      swap2\n      0x20\n      add\n      swap2\n      jump(tag_133)\n    tag_134:\n      dup3\n      add\n      swap2\n      swap1\n      0x00\n      mstore\n      keccak256(0x00, 0x20)\n      swap1\n    tag_135:\n      dup2\n      sload\n      dup2\n      mstore\n      swap1\n      0x01\n      add\n      swap1\n      0x20\n      add\n      dup1\n      dup4\n      gt\n      tag_135\n      jumpi\n      dup3\n      swap1\n      sub\n      0x1f\n      and\n      dup3\n      add\n      swap2\n    tag_133:\n      pop\n      pop\n      pop\n      pop\n      pop\n      swap5\n      pop\n      dup3\n      dup1\n      sload\n      tag_136\n      swap1\n      tag_48\n      jump\t// in\n    tag_136:\n      dup1\n      0x1f\n      add\n      0x20\n      dup1\n      swap2\n      div\n      mul\n      0x20\n      add\n      mload(0x40)\n      swap1\n      dup2\n      add\n      0x40\n      mstore\n      dup1\n      swap3\n      swap2\n      swap1\n      dup2\n      dup2\n      mstore\n      0x20\n      add\n      dup3\n      dup1\n      sload\n      tag_137\n      swap1\n      tag_48\n      jump\t// in\n    tag_137:\n      dup1\n      iszero\n      tag_138\n      jumpi\n      dup1\n      0x1f\n      lt\n      tag_139\n      jumpi\n      0x0100\n      dup1\n      dup4\n      sload\n      div\n      mul\n      dup4\n      mstore\n      swap2\n      0x20\n      add\n      swap2\n      jump(tag_138)\n    tag_139:\n      dup3\n      add\n      swap2\n      swap1\n      0x00\n      mstore\n      keccak256(0x00, 0x20)\n      swap1\n    tag_140:\n      dup2\n      sload\n      dup2\n      mstore\n      swap1\n      0x01\n      add\n      swap1\n      0x20\n      add\n      dup1\n      dup4\n      gt\n      tag_140\n      jumpi\n      dup3\n      swap1\n      sub\n      0x1f\n      and\n      dup3\n      add\n      swap2\n    tag_138:\n      pop\n      pop\n      pop\n      pop\n      pop\n      swap3\n      pop\n      dup2\n      dup1\n      sload\n      tag_141\n      swap1\n      tag_48\n      jump\t// in\n    tag_141:\n      dup1\n      0x1f\n      add\n      0x20\n      dup1\n      swap2\n      div\n      mul\n      0x20\n      add\n      mload(0x40)\n      swap1\n      dup2\n      add\n      0x40\n      mstore\n      dup1\n      swap3\n      swap2\n      swap1\n      dup2\n      dup2\n      mstore\n      0x20\n      add\n      dup3\n      dup1\n      sload\n      tag_142\n      swap1\n      tag_48\n      jump\t// in\n    tag_142:\n      dup1\n      iszero\n      tag_143\n      jumpi\n      dup1\n      0x1f\n      lt\n      tag_144\n      jumpi\n      0x0100\n      dup1\n      dup4\n      sload\n      div\n      mul\n      dup4\n      mstore\n      swap2\n      0x20\n      add\n      swap2\n      jump(tag_143)\n    tag_144:\n      dup3\n      add\n      swap2\n      swap1\n      0x00\n      mstore\n      keccak256(0x00, 0x20)\n      swap1\n    tag_145:\n      dup2\n      sload\n      dup2\n      mstore\n      swap1\n      0x01\n      add\n      swap1\n      0x20\n      add\n      dup1\n      dup4\n      gt\n      tag_145\n      jumpi\n      dup3\n      swap1\n      sub\n      0x1f\n      and\n      dup3\n      add\n      swap2\n    tag_143:\n      pop\n      pop\n      pop\n      pop\n      pop\n      swap2\n      pop\n      dup1\n      dup1\n      sload\n      tag_146\n      swap1\n      tag_48\n      jump\t// in\n    tag_146:\n      dup1\n      0x1f\n      add\n      0x20\n      dup1\n      swap2\n      div\n      mul\n      0x20\n      add\n      mload(0x40)\n      swap1\n      dup2\n      add\n      0x40\n      mstore\n      dup1\n      swap3\n      swap2\n      swap1\n      dup2\n      dup2\n      mstore\n      0x20\n      add\n      dup3\n      dup1\n      sload\n      tag_147\n      swap1\n      tag_48\n      jump\t// in\n    tag_147:\n      dup1\n      iszero\n      tag_148\n      jumpi\n      dup1\n      0x1f\n      lt\n      tag_149\n      jumpi\n      0x0100\n      dup1\n      dup4\n      sload\n      div\n      mul\n      dup4\n      mstore\n      swap2\n      0x20\n      add\n      swap2\n      jump(tag_148)\n    tag_149:\n      dup3\n      add\n      swap2\n      swap1\n      0x00\n      mstore\n      keccak256(0x00, 0x20)\n      swap1\n    tag_150:\n      dup2\n      sload\n      dup2\n      mstore\n      swap1\n      0x01\n      add\n      swap1\n      0x20\n      add\n      dup1\n      dup4\n      gt\n      tag_150\n      jumpi\n      dup3\n      swap1\n      sub\n      0x1f\n      and\n      dup3\n      add\n      swap2\n    tag_148:\n      pop\n      pop\n      pop\n      pop\n      pop\n      swap1\n      pop\n      swap10\n      pop\n      swap10\n      pop\n      swap10\n      pop\n      swap10\n      pop\n      swap10\n      pop\n      swap10\n      pop\n      swap10\n      pop\n      swap10\n      pop\n      swap10\n      pop\n      pop\n        /* \"SerialHeaderContract.sol\":3057:3766  function getSerialDetail(uint id) public view returns (... */\n      swap2\n      swap4\n      swap6\n      swap8\n      swap10\n      swap1\n      swap3\n      swap5\n      swap7\n      swap9\n      pop\n      jump\t// out\n        /* \"SerialHeaderContract.sol\":800:1622  function createSerialDetail(... */\n    tag_39:\n        /* \"SerialHeaderContract.sol\":1146:1181  SerialDetail memory newSerialDetail */\n      0x00\n        /* \"SerialHeaderContract.sol\":1184:1519  SerialDetail({... */\n      mload(0x40)\n      dup1\n      0x0120\n      add\n      0x40\n      mstore\n      dup1\n        /* \"SerialHeaderContract.sol\":1221:1230  _serialId */\n      dup12\n        /* \"SerialHeaderContract.sol\":1184:1519  SerialDetail({... */\n      dup2\n      mstore\n      0x20\n      add\n        /* \"SerialHeaderContract.sol\":1254:1263  _dateCode */\n      dup11\n        /* \"SerialHeaderContract.sol\":1184:1519  SerialDetail({... */\n      dup2\n      mstore\n      0x20\n      add\n        /* \"SerialHeaderContract.sol\":1286:1294  _lotCode */\n      dup10\n        /* \"SerialHeaderContract.sol\":1184:1519  SerialDetail({... */\n      dup2\n      mstore\n      0x20\n      add\n        /* \"SerialHeaderContract.sol\":1316:1323  _poItem */\n      dup9\n        /* \"SerialHeaderContract.sol\":1184:1519  SerialDetail({... */\n      dup2\n      mstore\n      0x20\n      add\n        /* \"SerialHeaderContract.sol\":1347:1356  _poNumber */\n      dup8\n        /* \"SerialHeaderContract.sol\":1184:1519  SerialDetail({... */\n      dup2\n      mstore\n      0x20\n      add\n        /* \"SerialHeaderContract.sol\":1380:1389  _quantity */\n      dup7\n        /* \"SerialHeaderContract.sol\":1184:1519  SerialDetail({... */\n      dup2\n      mstore\n      0x20\n      add\n        /* \"SerialHeaderContract.sol\":1408:1412  _uom */\n      dup6\n        /* \"SerialHeaderContract.sol\":1184:1519  SerialDetail({... */\n      dup2\n      mstore\n      0x20\n      add\n        /* \"SerialHeaderContract.sol\":1445:1463  _receivingLocation */\n      dup5\n        /* \"SerialHeaderContract.sol\":1184:1519  SerialDetail({... */\n      dup2\n      mstore\n      0x20\n      add\n        /* \"SerialHeaderContract.sol\":1493:1508  _receivingPlant */\n      dup4\n        /* \"SerialHeaderContract.sol\":1184:1519  SerialDetail({... */\n      dup2\n      mstore\n      pop\n        /* \"SerialHeaderContract.sol\":1146:1519  SerialDetail memory newSerialDetail = SerialDetail({... */\n      swap1\n      pop\n        /* \"SerialHeaderContract.sol\":1569:1584  newSerialDetail */\n      dup1\n        /* \"SerialHeaderContract.sol\":1529:1545  serialDetailsMap */\n      0x00\n        /* \"SerialHeaderContract.sol\":1529:1566  serialDetailsMap[serialDetailCounter] */\n      dup1\n        /* \"SerialHeaderContract.sol\":1546:1565  serialDetailCounter */\n      sload(0x02)\n        /* \"SerialHeaderContract.sol\":1529:1566  serialDetailsMap[serialDetailCounter] */\n      dup2\n      mstore\n      0x20\n      add\n      swap1\n      dup2\n      mstore\n      0x20\n      add\n      0x00\n      keccak256\n        /* \"SerialHeaderContract.sol\":1529:1584  serialDetailsMap[serialDetailCounter] = newSerialDetail */\n      0x00\n      dup3\n      add\n      mload\n      dup2\n      0x00\n      add\n      swap1\n      dup1\n      mload\n      swap1\n      0x20\n      add\n      swap1\n      tag_152\n      swap3\n      swap2\n      swap1\n      tag_103\n      jump\t// in\n    tag_152:\n      pop\n      0x20\n      dup3\n      add\n      mload\n      dup2\n      0x01\n      add\n      swap1\n      dup1\n      mload\n      swap1\n      0x20\n      add\n      swap1\n      tag_153\n      swap3\n      swap2\n      swap1\n      tag_103\n      jump\t// in\n    tag_153:\n      pop\n      0x40\n      dup3\n      add\n      mload\n      dup2\n      0x02\n      add\n      swap1\n      dup1\n      mload\n      swap1\n      0x20\n      add\n      swap1\n      tag_154\n      swap3\n      swap2\n      swap1\n      tag_103\n      jump\t// in\n    tag_154:\n      pop\n      0x60\n      dup3\n      add\n      mload\n      dup2\n      0x03\n      add\n      swap1\n      dup1\n      mload\n      swap1\n      0x20\n      add\n      swap1\n      tag_155\n      swap3\n      swap2\n      swap1\n      tag_103\n      jump\t// in\n    tag_155:\n      pop\n      0x80\n      dup3\n      add\n      mload\n      dup2\n      0x04\n      add\n      swap1\n      dup1\n      mload\n      swap1\n      0x20\n      add\n      swap1\n      tag_156\n      swap3\n      swap2\n      swap1\n      tag_103\n      jump\t// in\n    tag_156:\n      pop\n      0xa0\n      dup3\n      add\n      mload\n      dup2\n      0x05\n      add\n      sstore\n      0xc0\n      dup3\n      add\n      mload\n      dup2\n      0x06\n      add\n      swap1\n      dup1\n      mload\n      swap1\n      0x20\n      add\n      swap1\n      tag_157\n      swap3\n      swap2\n      swap1\n      tag_103\n      jump\t// in\n    tag_157:\n      pop\n      0xe0\n      dup3\n      add\n      mload\n      dup2\n      0x07\n      add\n      swap1\n      dup1\n      mload\n      swap1\n      0x20\n      add\n      swap1\n      tag_158\n      swap3\n      swap2\n      swap1\n      tag_103\n      jump\t// in\n    tag_158:\n      pop\n      0x0100\n      dup3\n      add\n      mload\n      dup2\n      0x08\n      add\n      swap1\n      dup1\n      mload\n      swap1\n      0x20\n      add\n      swap1\n      tag_159\n      swap3\n      swap2\n      swap1\n      tag_103\n      jump\t// in\n    tag_159:\n      pop\n      swap1\n      pop\n      pop\n        /* \"SerialHeaderContract.sol\":1594:1613  serialDetailCounter */\n      0x02\n      0x00\n        /* \"SerialHeaderContract.sol\":1594:1615  serialDetailCounter++ */\n      dup2\n      sload\n      dup1\n      swap3\n      swap2\n      swap1\n      tag_160\n      swap1\n      tag_161\n      jump\t// in\n    tag_160:\n      swap2\n      swap1\n      pop\n      sstore\n      pop\n        /* \"SerialHeaderContract.sol\":1136:1622  {... */\n      pop\n        /* \"SerialHeaderContract.sol\":800:1622  function createSerialDetail(... */\n      pop\n      pop\n      pop\n      pop\n      pop\n      pop\n      pop\n      pop\n      pop\n      jump\t// out\n        /* \"SerialHeaderContract.sol\":602:655  mapping(uint => SerialDetail) public serialDetailsMap */\n    tag_42:\n      mstore(0x20, 0x00)\n      dup1\n      0x00\n      mstore\n      keccak256(0x00, 0x40)\n      0x00\n      swap2\n      pop\n      swap1\n      pop\n      dup1\n      0x00\n      add\n      dup1\n      sload\n      tag_162\n      swap1\n      tag_48\n      jump\t// in\n    tag_162:\n      dup1\n      0x1f\n      add\n      0x20\n      dup1\n      swap2\n      div\n      mul\n      0x20\n      add\n      mload(0x40)\n      swap1\n      dup2\n      add\n      0x40\n      mstore\n      dup1\n      swap3\n      swap2\n      swap1\n      dup2\n      dup2\n      mstore\n      0x20\n      add\n      dup3\n      dup1\n      sload\n      tag_163\n      swap1\n      tag_48\n      jump\t// in\n    tag_163:\n      dup1\n      iszero\n      tag_164\n      jumpi\n      dup1\n      0x1f\n      lt\n      tag_165\n      jumpi\n      0x0100\n      dup1\n      dup4\n      sload\n      div\n      mul\n      dup4\n      mstore\n      swap2\n      0x20\n      add\n      swap2\n      jump(tag_164)\n    tag_165:\n      dup3\n      add\n      swap2\n      swap1\n      0x00\n      mstore\n      keccak256(0x00, 0x20)\n      swap1\n    tag_166:\n      dup2\n      sload\n      dup2\n      mstore\n      swap1\n      0x01\n      add\n      swap1\n      0x20\n      add\n      dup1\n      dup4\n      gt\n      tag_166\n      jumpi\n      dup3\n      swap1\n      sub\n      0x1f\n      and\n      dup3\n      add\n      swap2\n    tag_164:\n      pop\n      pop\n      pop\n      pop\n      pop\n      swap1\n      dup1\n      0x01\n      add\n      dup1\n      sload\n      tag_167\n      swap1\n      tag_48\n      jump\t// in\n    tag_167:\n      dup1\n      0x1f\n      add\n      0x20\n      dup1\n      swap2\n      div\n      mul\n      0x20\n      add\n      mload(0x40)\n      swap1\n      dup2\n      add\n      0x40\n      mstore\n      dup1\n      swap3\n      swap2\n      swap1\n      dup2\n      dup2\n      mstore\n      0x20\n      add\n      dup3\n      dup1\n      sload\n      tag_168\n      swap1\n      tag_48\n      jump\t// in\n    tag_168:\n      dup1\n      iszero\n      tag_169\n      jumpi\n      dup1\n      0x1f\n      lt\n      tag_170\n      jumpi\n      0x0100\n      dup1\n      dup4\n      sload\n      div\n      mul\n      dup4\n      mstore\n      swap2\n      0x20\n      add\n      swap2\n      jump(tag_169)\n    tag_170:\n      dup3\n      add\n      swap2\n      swap1\n      0x00\n      mstore\n      keccak256(0x00, 0x20)\n      swap1\n    tag_171:\n      dup2\n      sload\n      dup2\n      mstore\n      swap1\n      0x01\n      add\n      swap1\n      0x20\n      add\n      dup1\n      dup4\n      gt\n      tag_171\n      jumpi\n      dup3\n      swap1\n      sub\n      0x1f\n      and\n      dup3\n      add\n      swap2\n    tag_169:\n      pop\n      pop\n      pop\n      pop\n      pop\n      swap1\n      dup1\n      0x02\n      add\n      dup1\n      sload\n      tag_172\n      swap1\n      tag_48\n      jump\t// in\n    tag_172:\n      dup1\n      0x1f\n      add\n      0x20\n      dup1\n      swap2\n      div\n      mul\n      0x20\n      add\n      mload(0x40)\n      swap1\n      dup2\n      add\n      0x40\n      mstore\n      dup1\n      swap3\n      swap2\n      swap1\n      dup2\n      dup2\n      mstore\n      0x20\n      add\n      dup3\n      dup1\n      sload\n      tag_173\n      swap1\n      tag_48\n      jump\t// in\n    tag_173:\n      dup1\n      iszero\n      tag_174\n      jumpi\n      dup1\n      0x1f\n      lt\n      tag_175\n      jumpi\n      0x0100\n      dup1\n      dup4\n      sload\n      div\n      mul\n      dup4\n      mstore\n      swap2\n      0x20\n      add\n      swap2\n      jump(tag_174)\n    tag_175:\n      dup3\n      add\n      swap2\n      swap1\n      0x00\n      mstore\n      keccak256(0x00, 0x20)\n      swap1\n    tag_176:\n      dup2\n      sload\n      dup2\n      mstore\n      swap1\n      0x01\n      add\n      swap1\n      0x20\n      add\n      dup1\n      dup4\n      gt\n      tag_176\n      jumpi\n      dup3\n      swap1\n      sub\n      0x1f\n      and\n      dup3\n      add\n      swap2\n    tag_174:\n      pop\n      pop\n      pop\n      pop\n      pop\n      swap1\n      dup1\n      0x03\n      add\n      dup1\n      sload\n      tag_177\n      swap1\n      tag_48\n      jump\t// in\n    tag_177:\n      dup1\n      0x1f\n      add\n      0x20\n      dup1\n      swap2\n      div\n      mul\n      0x20\n      add\n      mload(0x40)\n      swap1\n      dup2\n      add\n      0x40\n      mstore\n      dup1\n      swap3\n      swap2\n      swap1\n      dup2\n      dup2\n      mstore\n      0x20\n      add\n      dup3\n      dup1\n      sload\n      tag_178\n      swap1\n      tag_48\n      jump\t// in\n    tag_178:\n      dup1\n      iszero\n      tag_179\n      jumpi\n      dup1\n      0x1f\n      lt\n      tag_180\n      jumpi\n      0x0100\n      dup1\n      dup4\n      sload\n      div\n      mul\n      dup4\n      mstore\n      swap2\n      0x20\n      add\n      swap2\n      jump(tag_179)\n    tag_180:\n      dup3\n      add\n      swap2\n      swap1\n      0x00\n      mstore\n      keccak256(0x00, 0x20)\n      swap1\n    tag_181:\n      dup2\n      sload\n      dup2\n      mstore\n      swap1\n      0x01\n      add\n      swap1\n      0x20\n      add\n      dup1\n      dup4\n      gt\n      tag_181\n      jumpi\n      dup3\n      swap1\n      sub\n      0x1f\n      and\n      dup3\n      add\n      swap2\n    tag_179:\n      pop\n      pop\n      pop\n      pop\n      pop\n      swap1\n      dup1\n      0x04\n      add\n      dup1\n      sload\n      tag_182\n      swap1\n      tag_48\n      jump\t// in\n    tag_182:\n      dup1\n      0x1f\n      add\n      0x20\n      dup1\n      swap2\n      div\n      mul\n      0x20\n      add\n      mload(0x40)\n      swap1\n      dup2\n      add\n      0x40\n      mstore\n      dup1\n      swap3\n      swap2\n      swap1\n      dup2\n      dup2\n      mstore\n      0x20\n      add\n      dup3\n      dup1\n      sload\n      tag_183\n      swap1\n      tag_48\n      jump\t// in\n    tag_183:\n      dup1\n      iszero\n      tag_184\n      jumpi\n      dup1\n      0x1f\n      lt\n      tag_185\n      jumpi\n      0x0100\n      dup1\n      dup4\n      sload\n      div\n      mul\n      dup4\n      mstore\n      swap2\n      0x20\n      add\n      swap2\n      jump(tag_184)\n    tag_185:\n      dup3\n      add\n      swap2\n      swap1\n      0x00\n      mstore\n      keccak256(0x00, 0x20)\n      swap1\n    tag_186:\n      dup2\n      sload\n      dup2\n      mstore\n      swap1\n      0x01\n      add\n      swap1\n      0x20\n      add\n      dup1\n      dup4\n      gt\n      tag_186\n      jumpi\n      dup3\n      swap1\n      sub\n      0x1f\n      and\n      dup3\n      add\n      swap2\n    tag_184:\n      pop\n      pop\n      pop\n      pop\n      pop\n      swap1\n      dup1\n      0x05\n      add\n      sload\n      swap1\n      dup1\n      0x06\n      add\n      dup1\n      sload\n      tag_187\n      swap1\n      tag_48\n      jump\t// in\n    tag_187:\n      dup1\n      0x1f\n      add\n      0x20\n      dup1\n      swap2\n      div\n      mul\n      0x20\n      add\n      mload(0x40)\n      swap1\n      dup2\n      add\n      0x40\n      mstore\n      dup1\n      swap3\n      swap2\n      swap1\n      dup2\n      dup2\n      mstore\n      0x20\n      add\n      dup3\n      dup1\n      sload\n      tag_188\n      swap1\n      tag_48\n      jump\t// in\n    tag_188:\n      dup1\n      iszero\n      tag_189\n      jumpi\n      dup1\n      0x1f\n      lt\n      tag_190\n      jumpi\n      0x0100\n      dup1\n      dup4\n      sload\n      div\n      mul\n      dup4\n      mstore\n      swap2\n      0x20\n      add\n      swap2\n      jump(tag_189)\n    tag_190:\n      dup3\n      add\n      swap2\n      swap1\n      0x00\n      mstore\n      keccak256(0x00, 0x20)\n      swap1\n    tag_191:\n      dup2\n      sload\n      dup2\n      mstore\n      swap1\n      0x01\n      add\n      swap1\n      0x20\n      add\n      dup1\n      dup4\n      gt\n      tag_191\n      jumpi\n      dup3\n      swap1\n      sub\n      0x1f\n      and\n      dup3\n      add\n      swap2\n    tag_189:\n      pop\n      pop\n      pop\n      pop\n      pop\n      swap1\n      dup1\n      0x07\n      add\n      dup1\n      sload\n      tag_192\n      swap1\n      tag_48\n      jump\t// in\n    tag_192:\n      dup1\n      0x1f\n      add\n      0x20\n      dup1\n      swap2\n      div\n      mul\n      0x20\n      add\n      mload(0x40)\n      swap1\n      dup2\n      add\n      0x40\n      mstore\n      dup1\n      swap3\n      swap2\n      swap1\n      dup2\n      dup2\n      mstore\n      0x20\n      add\n      dup3\n      dup1\n      sload\n      tag_193\n      swap1\n      tag_48\n      jump\t// in\n    tag_193:\n      dup1\n      iszero\n      tag_194\n      jumpi\n      dup1\n      0x1f\n      lt\n      tag_195\n      jumpi\n      0x0100\n      dup1\n      dup4\n      sload\n      div\n      mul\n      dup4\n      mstore\n      swap2\n      0x20\n      add\n      swap2\n      jump(tag_194)\n    tag_195:\n      dup3\n      add\n      swap2\n      swap1\n      0x00\n      mstore\n      keccak256(0x00, 0x20)\n      swap1\n    tag_196:\n      dup2\n      sload\n      dup2\n      mstore\n      swap1\n      0x01\n      add\n      swap1\n      0x20\n      add\n      dup1\n      dup4\n      gt\n      tag_196\n      jumpi\n      dup3\n      swap1\n      sub\n      0x1f\n      and\n      dup3\n      add\n      swap2\n    tag_194:\n      pop\n      pop\n      pop\n      pop\n      pop\n      swap1\n      dup1\n      0x08\n      add\n      dup1\n      sload\n      tag_197\n      swap1\n      tag_48\n      jump\t// in\n    tag_197:\n      dup1\n      0x1f\n      add\n      0x20\n      dup1\n      swap2\n      div\n      mul\n      0x20\n      add\n      mload(0x40)\n      swap1\n      dup2\n      add\n      0x40\n      mstore\n      dup1\n      swap3\n      swap2\n      swap1\n      dup2\n      dup2\n      mstore\n      0x20\n      add\n      dup3\n      dup1\n      sload\n      tag_198\n      swap1\n      tag_48\n      jump\t// in\n    tag_198:\n      dup1\n      iszero\n      tag_199\n      jumpi\n      dup1\n      0x1f\n      lt\n      tag_200\n      jumpi\n      0x0100\n      dup1\n      dup4\n      sload\n      div\n      mul\n      dup4\n      mstore\n      swap2\n      0x20\n      add\n      swap2\n      jump(tag_199)\n    tag_200:\n      dup3\n      add\n      swap2\n      swap1\n      0x00\n      mstore\n      keccak256(0x00, 0x20)\n      swap1\n    tag_201:\n      dup2\n      sload\n      dup2\n      mstore\n      swap1\n      0x01\n      add\n      swap1\n      0x20\n      add\n      dup1\n      dup4\n      gt\n      tag_201\n      jumpi\n      dup3\n      swap1\n      sub\n      0x1f\n      and\n      dup3\n      add\n      swap2\n    tag_199:\n      pop\n      pop\n      pop\n      pop\n      pop\n      swap1\n      pop\n      dup10\n      jump\t// out\n    tag_103:\n      dup3\n      dup1\n      sload\n      tag_202\n      swap1\n      tag_48\n      jump\t// in\n    tag_202:\n      swap1\n      0x00\n      mstore\n      keccak256(0x00, 0x20)\n      swap1\n      0x1f\n      add\n      0x20\n      swap1\n      div\n      dup2\n      add\n      swap3\n      dup3\n      tag_204\n      jumpi\n      0x00\n      dup6\n      sstore\n      jump(tag_203)\n    tag_204:\n      dup3\n      0x1f\n      lt\n      tag_205\n      jumpi\n      dup1\n      mload\n      not(0xff)\n      and\n      dup4\n      dup1\n      add\n      or\n      dup6\n      sstore\n      jump(tag_203)\n    tag_205:\n      dup3\n      dup1\n      add\n      0x01\n      add\n      dup6\n      sstore\n      dup3\n      iszero\n      tag_203\n      jumpi\n      swap2\n      dup3\n      add\n    tag_206:\n      dup3\n      dup2\n      gt\n      iszero\n      tag_207\n      jumpi\n      dup3\n      mload\n      dup3\n      sstore\n      swap2\n      0x20\n      add\n      swap2\n      swap1\n      0x01\n      add\n      swap1\n      jump(tag_206)\n    tag_207:\n    tag_203:\n      pop\n      swap1\n      pop\n      tag_208\n      swap2\n      swap1\n      tag_209\n      jump\t// in\n    tag_208:\n      pop\n      swap1\n      jump\t// out\n    tag_109:\n      dup3\n      dup1\n      sload\n      dup3\n      dup3\n      sstore\n      swap1\n      0x00\n      mstore\n      keccak256(0x00, 0x20)\n      swap1\n      dup2\n      add\n      swap3\n      dup3\n      iszero\n      tag_210\n      jumpi\n      swap2\n      0x20\n      mul\n      dup3\n      add\n    tag_211:\n      dup3\n      dup2\n      gt\n      iszero\n      tag_212\n      jumpi\n      dup3\n      mload\n      dup3\n      sstore\n      swap2\n      0x20\n      add\n      swap2\n      swap1\n      0x01\n      add\n      swap1\n      jump(tag_211)\n    tag_212:\n    tag_210:\n      pop\n      swap1\n      pop\n      tag_213\n      swap2\n      swap1\n      tag_209\n      jump\t// in\n    tag_213:\n      pop\n      swap1\n      jump\t// out\n    tag_209:\n    tag_214:\n      dup1\n      dup3\n      gt\n      iszero\n      tag_215\n      jumpi\n      0x00\n      dup2\n      0x00\n      swap1\n      sstore\n      pop\n      0x01\n      add\n      jump(tag_214)\n    tag_215:\n      pop\n      swap1\n      jump\t// out\n        /* \"#utility.yul\":7:82   */\n    tag_216:\n        /* \"#utility.yul\":40:46   */\n      0x00\n        /* \"#utility.yul\":73:75   */\n      0x40\n        /* \"#utility.yul\":67:76   */\n      mload\n        /* \"#utility.yul\":57:76   */\n      swap1\n      pop\n        /* \"#utility.yul\":7:82   */\n      swap1\n      jump\t// out\n        /* \"#utility.yul\":88:205   */\n    tag_217:\n        /* \"#utility.yul\":197:198   */\n      0x00\n        /* \"#utility.yul\":194:195   */\n      dup1\n        /* \"#utility.yul\":187:199   */\n      revert\n        /* \"#utility.yul\":211:328   */\n    tag_218:\n        /* \"#utility.yul\":320:321   */\n      0x00\n        /* \"#utility.yul\":317:318   */\n      dup1\n        /* \"#utility.yul\":310:322   */\n      revert\n        /* \"#utility.yul\":334:451   */\n    tag_219:\n        /* \"#utility.yul\":443:444   */\n      0x00\n        /* \"#utility.yul\":440:441   */\n      dup1\n        /* \"#utility.yul\":433:445   */\n      revert\n        /* \"#utility.yul\":457:574   */\n    tag_220:\n        /* \"#utility.yul\":566:567   */\n      0x00\n        /* \"#utility.yul\":563:564   */\n      dup1\n        /* \"#utility.yul\":556:568   */\n      revert\n        /* \"#utility.yul\":580:682   */\n    tag_221:\n        /* \"#utility.yul\":621:627   */\n      0x00\n        /* \"#utility.yul\":672:674   */\n      0x1f\n        /* \"#utility.yul\":668:675   */\n      not\n        /* \"#utility.yul\":663:665   */\n      0x1f\n        /* \"#utility.yul\":656:661   */\n      dup4\n        /* \"#utility.yul\":652:666   */\n      add\n        /* \"#utility.yul\":648:676   */\n      and\n        /* \"#utility.yul\":638:676   */\n      swap1\n      pop\n        /* \"#utility.yul\":580:682   */\n      swap2\n      swap1\n      pop\n      jump\t// out\n        /* \"#utility.yul\":688:868   */\n    tag_222:\n        /* \"#utility.yul\":736:813   */\n      0x4e487b7100000000000000000000000000000000000000000000000000000000\n        /* \"#utility.yul\":733:734   */\n      0x00\n        /* \"#utility.yul\":726:814   */\n      mstore\n        /* \"#utility.yul\":833:837   */\n      0x41\n        /* \"#utility.yul\":830:831   */\n      0x04\n        /* \"#utility.yul\":823:838   */\n      mstore\n        /* \"#utility.yul\":857:861   */\n      0x24\n        /* \"#utility.yul\":854:855   */\n      0x00\n        /* \"#utility.yul\":847:862   */\n      revert\n        /* \"#utility.yul\":874:1155   */\n    tag_223:\n        /* \"#utility.yul\":957:984   */\n      tag_261\n        /* \"#utility.yul\":979:983   */\n      dup3\n        /* \"#utility.yul\":957:984   */\n      tag_221\n      jump\t// in\n    tag_261:\n        /* \"#utility.yul\":949:955   */\n      dup2\n        /* \"#utility.yul\":945:985   */\n      add\n        /* \"#utility.yul\":1087:1093   */\n      dup2\n        /* \"#utility.yul\":1075:1085   */\n      dup2\n        /* \"#utility.yul\":1072:1094   */\n      lt\n        /* \"#utility.yul\":1051:1069   */\n      0xffffffffffffffff\n        /* \"#utility.yul\":1039:1049   */\n      dup3\n        /* \"#utility.yul\":1036:1070   */\n      gt\n        /* \"#utility.yul\":1033:1095   */\n      or\n        /* \"#utility.yul\":1030:1118   */\n      iszero\n      tag_262\n      jumpi\n        /* \"#utility.yul\":1098:1116   */\n      tag_263\n      tag_222\n      jump\t// in\n    tag_263:\n        /* \"#utility.yul\":1030:1118   */\n    tag_262:\n        /* \"#utility.yul\":1138:1148   */\n      dup1\n        /* \"#utility.yul\":1134:1136   */\n      0x40\n        /* \"#utility.yul\":1127:1149   */\n      mstore\n        /* \"#utility.yul\":917:1155   */\n      pop\n        /* \"#utility.yul\":874:1155   */\n      pop\n      pop\n      jump\t// out\n        /* \"#utility.yul\":1161:1290   */\n    tag_224:\n        /* \"#utility.yul\":1195:1201   */\n      0x00\n        /* \"#utility.yul\":1222:1242   */\n      tag_265\n      tag_216\n      jump\t// in\n    tag_265:\n        /* \"#utility.yul\":1212:1242   */\n      swap1\n      pop\n        /* \"#utility.yul\":1251:1284   */\n      tag_266\n        /* \"#utility.yul\":1279:1283   */\n      dup3\n        /* \"#utility.yul\":1271:1277   */\n      dup3\n        /* \"#utility.yul\":1251:1284   */\n      tag_223\n      jump\t// in\n    tag_266:\n        /* \"#utility.yul\":1161:1290   */\n      swap2\n      swap1\n      pop\n      jump\t// out\n        /* \"#utility.yul\":1296:1604   */\n    tag_225:\n        /* \"#utility.yul\":1358:1362   */\n      0x00\n        /* \"#utility.yul\":1448:1466   */\n      0xffffffffffffffff\n        /* \"#utility.yul\":1440:1446   */\n      dup3\n        /* \"#utility.yul\":1437:1467   */\n      gt\n        /* \"#utility.yul\":1434:1490   */\n      iszero\n      tag_268\n      jumpi\n        /* \"#utility.yul\":1470:1488   */\n      tag_269\n      tag_222\n      jump\t// in\n    tag_269:\n        /* \"#utility.yul\":1434:1490   */\n    tag_268:\n        /* \"#utility.yul\":1508:1537   */\n      tag_270\n        /* \"#utility.yul\":1530:1536   */\n      dup3\n        /* \"#utility.yul\":1508:1537   */\n      tag_221\n      jump\t// in\n    tag_270:\n        /* \"#utility.yul\":1500:1537   */\n      swap1\n      pop\n        /* \"#utility.yul\":1592:1596   */\n      0x20\n        /* \"#utility.yul\":1586:1590   */\n      dup2\n        /* \"#utility.yul\":1582:1597   */\n      add\n        /* \"#utility.yul\":1574:1597   */\n      swap1\n      pop\n        /* \"#utility.yul\":1296:1604   */\n      swap2\n      swap1\n      pop\n      jump\t// out\n        /* \"#utility.yul\":1610:1764   */\n    tag_226:\n        /* \"#utility.yul\":1694:1700   */\n      dup3\n        /* \"#utility.yul\":1689:1692   */\n      dup2\n        /* \"#utility.yul\":1684:1687   */\n      dup4\n        /* \"#utility.yul\":1671:1701   */\n      calldatacopy\n        /* \"#utility.yul\":1756:1757   */\n      0x00\n        /* \"#utility.yul\":1747:1753   */\n      dup4\n        /* \"#utility.yul\":1742:1745   */\n      dup4\n        /* \"#utility.yul\":1738:1754   */\n      add\n        /* \"#utility.yul\":1731:1758   */\n      mstore\n        /* \"#utility.yul\":1610:1764   */\n      pop\n      pop\n      pop\n      jump\t// out\n        /* \"#utility.yul\":1770:2182   */\n    tag_227:\n        /* \"#utility.yul\":1848:1853   */\n      0x00\n        /* \"#utility.yul\":1873:1939   */\n      tag_273\n        /* \"#utility.yul\":1889:1938   */\n      tag_274\n        /* \"#utility.yul\":1931:1937   */\n      dup5\n        /* \"#utility.yul\":1889:1938   */\n      tag_225\n      jump\t// in\n    tag_274:\n        /* \"#utility.yul\":1873:1939   */\n      tag_224\n      jump\t// in\n    tag_273:\n        /* \"#utility.yul\":1864:1939   */\n      swap1\n      pop\n        /* \"#utility.yul\":1962:1968   */\n      dup3\n        /* \"#utility.yul\":1955:1960   */\n      dup2\n        /* \"#utility.yul\":1948:1969   */\n      mstore\n        /* \"#utility.yul\":2000:2004   */\n      0x20\n        /* \"#utility.yul\":1993:1998   */\n      dup2\n        /* \"#utility.yul\":1989:2005   */\n      add\n        /* \"#utility.yul\":2038:2041   */\n      dup5\n        /* \"#utility.yul\":2029:2035   */\n      dup5\n        /* \"#utility.yul\":2024:2027   */\n      dup5\n        /* \"#utility.yul\":2020:2036   */\n      add\n        /* \"#utility.yul\":2017:2042   */\n      gt\n        /* \"#utility.yul\":2014:2126   */\n      iszero\n      tag_275\n      jumpi\n        /* \"#utility.yul\":2045:2124   */\n      tag_276\n      tag_220\n      jump\t// in\n    tag_276:\n        /* \"#utility.yul\":2014:2126   */\n    tag_275:\n        /* \"#utility.yul\":2135:2176   */\n      tag_277\n        /* \"#utility.yul\":2169:2175   */\n      dup5\n        /* \"#utility.yul\":2164:2167   */\n      dup3\n        /* \"#utility.yul\":2159:2162   */\n      dup6\n        /* \"#utility.yul\":2135:2176   */\n      tag_226\n      jump\t// in\n    tag_277:\n        /* \"#utility.yul\":1854:2182   */\n      pop\n        /* \"#utility.yul\":1770:2182   */\n      swap4\n      swap3\n      pop\n      pop\n      pop\n      jump\t// out\n        /* \"#utility.yul\":2202:2542   */\n    tag_228:\n        /* \"#utility.yul\":2258:2263   */\n      0x00\n        /* \"#utility.yul\":2307:2310   */\n      dup3\n        /* \"#utility.yul\":2300:2304   */\n      0x1f\n        /* \"#utility.yul\":2292:2298   */\n      dup4\n        /* \"#utility.yul\":2288:2305   */\n      add\n        /* \"#utility.yul\":2284:2311   */\n      slt\n        /* \"#utility.yul\":2274:2396   */\n      tag_279\n      jumpi\n        /* \"#utility.yul\":2315:2394   */\n      tag_280\n      tag_219\n      jump\t// in\n    tag_280:\n        /* \"#utility.yul\":2274:2396   */\n    tag_279:\n        /* \"#utility.yul\":2432:2438   */\n      dup2\n        /* \"#utility.yul\":2419:2439   */\n      calldataload\n        /* \"#utility.yul\":2457:2536   */\n      tag_281\n        /* \"#utility.yul\":2532:2535   */\n      dup5\n        /* \"#utility.yul\":2524:2530   */\n      dup3\n        /* \"#utility.yul\":2517:2521   */\n      0x20\n        /* \"#utility.yul\":2509:2515   */\n      dup7\n        /* \"#utility.yul\":2505:2522   */\n      add\n        /* \"#utility.yul\":2457:2536   */\n      tag_227\n      jump\t// in\n    tag_281:\n        /* \"#utility.yul\":2448:2536   */\n      swap2\n      pop\n        /* \"#utility.yul\":2264:2542   */\n      pop\n        /* \"#utility.yul\":2202:2542   */\n      swap3\n      swap2\n      pop\n      pop\n      jump\t// out\n        /* \"#utility.yul\":2548:3057   */\n    tag_13:\n        /* \"#utility.yul\":2617:2623   */\n      0x00\n        /* \"#utility.yul\":2666:2668   */\n      0x20\n        /* \"#utility.yul\":2654:2663   */\n      dup3\n        /* \"#utility.yul\":2645:2652   */\n      dup5\n        /* \"#utility.yul\":2641:2664   */\n      sub\n        /* \"#utility.yul\":2637:2669   */\n      slt\n        /* \"#utility.yul\":2634:2753   */\n      iszero\n      tag_283\n      jumpi\n        /* \"#utility.yul\":2672:2751   */\n      tag_284\n      tag_217\n      jump\t// in\n    tag_284:\n        /* \"#utility.yul\":2634:2753   */\n    tag_283:\n        /* \"#utility.yul\":2820:2821   */\n      0x00\n        /* \"#utility.yul\":2809:2818   */\n      dup3\n        /* \"#utility.yul\":2805:2822   */\n      add\n        /* \"#utility.yul\":2792:2823   */\n      calldataload\n        /* \"#utility.yul\":2850:2868   */\n      0xffffffffffffffff\n        /* \"#utility.yul\":2842:2848   */\n      dup2\n        /* \"#utility.yul\":2839:2869   */\n      gt\n        /* \"#utility.yul\":2836:2953   */\n      iszero\n      tag_285\n      jumpi\n        /* \"#utility.yul\":2872:2951   */\n      tag_286\n      tag_218\n      jump\t// in\n    tag_286:\n        /* \"#utility.yul\":2836:2953   */\n    tag_285:\n        /* \"#utility.yul\":2977:3040   */\n      tag_287\n        /* \"#utility.yul\":3032:3039   */\n      dup5\n        /* \"#utility.yul\":3023:3029   */\n      dup3\n        /* \"#utility.yul\":3012:3021   */\n      dup6\n        /* \"#utility.yul\":3008:3030   */\n      add\n        /* \"#utility.yul\":2977:3040   */\n      tag_228\n      jump\t// in\n    tag_287:\n        /* \"#utility.yul\":2967:3040   */\n      swap2\n      pop\n        /* \"#utility.yul\":2763:3050   */\n      pop\n        /* \"#utility.yul\":2548:3057   */\n      swap3\n      swap2\n      pop\n      pop\n      jump\t// out\n        /* \"#utility.yul\":3063:3162   */\n    tag_229:\n        /* \"#utility.yul\":3115:3121   */\n      0x00\n        /* \"#utility.yul\":3149:3154   */\n      dup2\n        /* \"#utility.yul\":3143:3155   */\n      mload\n        /* \"#utility.yul\":3133:3155   */\n      swap1\n      pop\n        /* \"#utility.yul\":3063:3162   */\n      swap2\n      swap1\n      pop\n      jump\t// out\n        /* \"#utility.yul\":3168:3337   */\n    tag_230:\n        /* \"#utility.yul\":3252:3263   */\n      0x00\n        /* \"#utility.yul\":3286:3292   */\n      dup3\n        /* \"#utility.yul\":3281:3284   */\n      dup3\n        /* \"#utility.yul\":3274:3293   */\n      mstore\n        /* \"#utility.yul\":3326:3330   */\n      0x20\n        /* \"#utility.yul\":3321:3324   */\n      dup3\n        /* \"#utility.yul\":3317:3331   */\n      add\n        /* \"#utility.yul\":3302:3331   */\n      swap1\n      pop\n        /* \"#utility.yul\":3168:3337   */\n      swap3\n      swap2\n      pop\n      pop\n      jump\t// out\n        /* \"#utility.yul\":3343:3650   */\n    tag_231:\n        /* \"#utility.yul\":3411:3412   */\n      0x00\n        /* \"#utility.yul\":3421:3534   */\n    tag_291:\n        /* \"#utility.yul\":3435:3441   */\n      dup4\n        /* \"#utility.yul\":3432:3433   */\n      dup2\n        /* \"#utility.yul\":3429:3442   */\n      lt\n        /* \"#utility.yul\":3421:3534   */\n      iszero\n      tag_293\n      jumpi\n        /* \"#utility.yul\":3520:3521   */\n      dup1\n        /* \"#utility.yul\":3515:3518   */\n      dup3\n        /* \"#utility.yul\":3511:3522   */\n      add\n        /* \"#utility.yul\":3505:3523   */\n      mload\n        /* \"#utility.yul\":3501:3502   */\n      dup2\n        /* \"#utility.yul\":3496:3499   */\n      dup5\n        /* \"#utility.yul\":3492:3503   */\n      add\n        /* \"#utility.yul\":3485:3524   */\n      mstore\n        /* \"#utility.yul\":3457:3459   */\n      0x20\n        /* \"#utility.yul\":3454:3455   */\n      dup2\n        /* \"#utility.yul\":3450:3460   */\n      add\n        /* \"#utility.yul\":3445:3460   */\n      swap1\n      pop\n        /* \"#utility.yul\":3421:3534   */\n      jump(tag_291)\n    tag_293:\n        /* \"#utility.yul\":3552:3558   */\n      dup4\n        /* \"#utility.yul\":3549:3550   */\n      dup2\n        /* \"#utility.yul\":3546:3559   */\n      gt\n        /* \"#utility.yul\":3543:3644   */\n      iszero\n      tag_294\n      jumpi\n        /* \"#utility.yul\":3632:3633   */\n      0x00\n        /* \"#utility.yul\":3623:3629   */\n      dup5\n        /* \"#utility.yul\":3618:3621   */\n      dup5\n        /* \"#utility.yul\":3614:3630   */\n      add\n        /* \"#utility.yul\":3607:3634   */\n      mstore\n        /* \"#utility.yul\":3543:3644   */\n    tag_294:\n        /* \"#utility.yul\":3392:3650   */\n      pop\n        /* \"#utility.yul\":3343:3650   */\n      pop\n      pop\n      pop\n      jump\t// out\n        /* \"#utility.yul\":3656:4020   */\n    tag_232:\n        /* \"#utility.yul\":3744:3747   */\n      0x00\n        /* \"#utility.yul\":3772:3811   */\n      tag_296\n        /* \"#utility.yul\":3805:3810   */\n      dup3\n        /* \"#utility.yul\":3772:3811   */\n      tag_229\n      jump\t// in\n    tag_296:\n        /* \"#utility.yul\":3827:3898   */\n      tag_297\n        /* \"#utility.yul\":3891:3897   */\n      dup2\n        /* \"#utility.yul\":3886:3889   */\n      dup6\n        /* \"#utility.yul\":3827:3898   */\n      tag_230\n      jump\t// in\n    tag_297:\n        /* \"#utility.yul\":3820:3898   */\n      swap4\n      pop\n        /* \"#utility.yul\":3907:3959   */\n      tag_298\n        /* \"#utility.yul\":3952:3958   */\n      dup2\n        /* \"#utility.yul\":3947:3950   */\n      dup6\n        /* \"#utility.yul\":3940:3944   */\n      0x20\n        /* \"#utility.yul\":3933:3938   */\n      dup7\n        /* \"#utility.yul\":3929:3945   */\n      add\n        /* \"#utility.yul\":3907:3959   */\n      tag_231\n      jump\t// in\n    tag_298:\n        /* \"#utility.yul\":3984:4013   */\n      tag_299\n        /* \"#utility.yul\":4006:4012   */\n      dup2\n        /* \"#utility.yul\":3984:4013   */\n      tag_221\n      jump\t// in\n    tag_299:\n        /* \"#utility.yul\":3979:3982   */\n      dup5\n        /* \"#utility.yul\":3975:4014   */\n      add\n        /* \"#utility.yul\":3968:4014   */\n      swap2\n      pop\n        /* \"#utility.yul\":3748:4020   */\n      pop\n        /* \"#utility.yul\":3656:4020   */\n      swap3\n      swap2\n      pop\n      pop\n      jump\t// out\n        /* \"#utility.yul\":4026:4140   */\n    tag_233:\n        /* \"#utility.yul\":4093:4099   */\n      0x00\n        /* \"#utility.yul\":4127:4132   */\n      dup2\n        /* \"#utility.yul\":4121:4133   */\n      mload\n        /* \"#utility.yul\":4111:4133   */\n      swap1\n      pop\n        /* \"#utility.yul\":4026:4140   */\n      swap2\n      swap1\n      pop\n      jump\t// out\n        /* \"#utility.yul\":4146:4330   */\n    tag_234:\n        /* \"#utility.yul\":4245:4256   */\n      0x00\n        /* \"#utility.yul\":4279:4285   */\n      dup3\n        /* \"#utility.yul\":4274:4277   */\n      dup3\n        /* \"#utility.yul\":4267:4286   */\n      mstore\n        /* \"#utility.yul\":4319:4323   */\n      0x20\n        /* \"#utility.yul\":4314:4317   */\n      dup3\n        /* \"#utility.yul\":4310:4324   */\n      add\n        /* \"#utility.yul\":4295:4324   */\n      swap1\n      pop\n        /* \"#utility.yul\":4146:4330   */\n      swap3\n      swap2\n      pop\n      pop\n      jump\t// out\n        /* \"#utility.yul\":4336:4468   */\n    tag_235:\n        /* \"#utility.yul\":4403:4407   */\n      0x00\n        /* \"#utility.yul\":4426:4429   */\n      dup2\n        /* \"#utility.yul\":4418:4429   */\n      swap1\n      pop\n        /* \"#utility.yul\":4456:4460   */\n      0x20\n        /* \"#utility.yul\":4451:4454   */\n      dup3\n        /* \"#utility.yul\":4447:4461   */\n      add\n        /* \"#utility.yul\":4439:4461   */\n      swap1\n      pop\n        /* \"#utility.yul\":4336:4468   */\n      swap2\n      swap1\n      pop\n      jump\t// out\n        /* \"#utility.yul\":4474:4551   */\n    tag_236:\n        /* \"#utility.yul\":4511:4518   */\n      0x00\n        /* \"#utility.yul\":4540:4545   */\n      dup2\n        /* \"#utility.yul\":4529:4545   */\n      swap1\n      pop\n        /* \"#utility.yul\":4474:4551   */\n      swap2\n      swap1\n      pop\n      jump\t// out\n        /* \"#utility.yul\":4557:4665   */\n    tag_237:\n        /* \"#utility.yul\":4634:4658   */\n      tag_305\n        /* \"#utility.yul\":4652:4657   */\n      dup2\n        /* \"#utility.yul\":4634:4658   */\n      tag_236\n      jump\t// in\n    tag_305:\n        /* \"#utility.yul\":4629:4632   */\n      dup3\n        /* \"#utility.yul\":4622:4659   */\n      mstore\n        /* \"#utility.yul\":4557:4665   */\n      pop\n      pop\n      jump\t// out\n        /* \"#utility.yul\":4671:4850   */\n    tag_238:\n        /* \"#utility.yul\":4740:4750   */\n      0x00\n        /* \"#utility.yul\":4761:4807   */\n      tag_307\n        /* \"#utility.yul\":4803:4806   */\n      dup4\n        /* \"#utility.yul\":4795:4801   */\n      dup4\n        /* \"#utility.yul\":4761:4807   */\n      tag_237\n      jump\t// in\n    tag_307:\n        /* \"#utility.yul\":4839:4843   */\n      0x20\n        /* \"#utility.yul\":4834:4837   */\n      dup4\n        /* \"#utility.yul\":4830:4844   */\n      add\n        /* \"#utility.yul\":4816:4844   */\n      swap1\n      pop\n        /* \"#utility.yul\":4671:4850   */\n      swap3\n      swap2\n      pop\n      pop\n      jump\t// out\n        /* \"#utility.yul\":4856:4969   */\n    tag_239:\n        /* \"#utility.yul\":4926:4930   */\n      0x00\n        /* \"#utility.yul\":4958:4962   */\n      0x20\n        /* \"#utility.yul\":4953:4956   */\n      dup3\n        /* \"#utility.yul\":4949:4963   */\n      add\n        /* \"#utility.yul\":4941:4963   */\n      swap1\n      pop\n        /* \"#utility.yul\":4856:4969   */\n      swap2\n      swap1\n      pop\n      jump\t// out\n        /* \"#utility.yul\":5005:5737   */\n    tag_240:\n        /* \"#utility.yul\":5124:5127   */\n      0x00\n        /* \"#utility.yul\":5153:5207   */\n      tag_310\n        /* \"#utility.yul\":5201:5206   */\n      dup3\n        /* \"#utility.yul\":5153:5207   */\n      tag_233\n      jump\t// in\n    tag_310:\n        /* \"#utility.yul\":5223:5309   */\n      tag_311\n        /* \"#utility.yul\":5302:5308   */\n      dup2\n        /* \"#utility.yul\":5297:5300   */\n      dup6\n        /* \"#utility.yul\":5223:5309   */\n      tag_234\n      jump\t// in\n    tag_311:\n        /* \"#utility.yul\":5216:5309   */\n      swap4\n      pop\n        /* \"#utility.yul\":5333:5389   */\n      tag_312\n        /* \"#utility.yul\":5383:5388   */\n      dup4\n        /* \"#utility.yul\":5333:5389   */\n      tag_235\n      jump\t// in\n    tag_312:\n        /* \"#utility.yul\":5412:5419   */\n      dup1\n        /* \"#utility.yul\":5443:5444   */\n      0x00\n        /* \"#utility.yul\":5428:5712   */\n    tag_313:\n        /* \"#utility.yul\":5453:5459   */\n      dup4\n        /* \"#utility.yul\":5450:5451   */\n      dup2\n        /* \"#utility.yul\":5447:5460   */\n      lt\n        /* \"#utility.yul\":5428:5712   */\n      iszero\n      tag_315\n      jumpi\n        /* \"#utility.yul\":5529:5535   */\n      dup2\n        /* \"#utility.yul\":5523:5536   */\n      mload\n        /* \"#utility.yul\":5556:5619   */\n      tag_316\n        /* \"#utility.yul\":5615:5618   */\n      dup9\n        /* \"#utility.yul\":5600:5613   */\n      dup3\n        /* \"#utility.yul\":5556:5619   */\n      tag_238\n      jump\t// in\n    tag_316:\n        /* \"#utility.yul\":5549:5619   */\n      swap8\n      pop\n        /* \"#utility.yul\":5642:5702   */\n      tag_317\n        /* \"#utility.yul\":5695:5701   */\n      dup4\n        /* \"#utility.yul\":5642:5702   */\n      tag_239\n      jump\t// in\n    tag_317:\n        /* \"#utility.yul\":5632:5702   */\n      swap3\n      pop\n        /* \"#utility.yul\":5488:5712   */\n      pop\n        /* \"#utility.yul\":5475:5476   */\n      0x01\n        /* \"#utility.yul\":5472:5473   */\n      dup2\n        /* \"#utility.yul\":5468:5477   */\n      add\n        /* \"#utility.yul\":5463:5477   */\n      swap1\n      pop\n        /* \"#utility.yul\":5428:5712   */\n      jump(tag_313)\n    tag_315:\n        /* \"#utility.yul\":5432:5446   */\n      pop\n        /* \"#utility.yul\":5728:5731   */\n      dup6\n        /* \"#utility.yul\":5721:5731   */\n      swap4\n      pop\n        /* \"#utility.yul\":5129:5737   */\n      pop\n      pop\n      pop\n        /* \"#utility.yul\":5005:5737   */\n      swap3\n      swap2\n      pop\n      pop\n      jump\t// out\n        /* \"#utility.yul\":5743:7124   */\n    tag_16:\n        /* \"#utility.yul\":6126:6130   */\n      0x00\n        /* \"#utility.yul\":6164:6167   */\n      0xc0\n        /* \"#utility.yul\":6153:6162   */\n      dup3\n        /* \"#utility.yul\":6149:6168   */\n      add\n        /* \"#utility.yul\":6141:6168   */\n      swap1\n      pop\n        /* \"#utility.yul\":6214:6223   */\n      dup2\n        /* \"#utility.yul\":6208:6212   */\n      dup2\n        /* \"#utility.yul\":6204:6224   */\n      sub\n        /* \"#utility.yul\":6200:6201   */\n      0x00\n        /* \"#utility.yul\":6189:6198   */\n      dup4\n        /* \"#utility.yul\":6185:6202   */\n      add\n        /* \"#utility.yul\":6178:6225   */\n      mstore\n        /* \"#utility.yul\":6242:6320   */\n      tag_319\n        /* \"#utility.yul\":6315:6319   */\n      dup2\n        /* \"#utility.yul\":6306:6312   */\n      dup10\n        /* \"#utility.yul\":6242:6320   */\n      tag_232\n      jump\t// in\n    tag_319:\n        /* \"#utility.yul\":6234:6320   */\n      swap1\n      pop\n        /* \"#utility.yul\":6367:6376   */\n      dup2\n        /* \"#utility.yul\":6361:6365   */\n      dup2\n        /* \"#utility.yul\":6357:6377   */\n      sub\n        /* \"#utility.yul\":6352:6354   */\n      0x20\n        /* \"#utility.yul\":6341:6350   */\n      dup4\n        /* \"#utility.yul\":6337:6355   */\n      add\n        /* \"#utility.yul\":6330:6378   */\n      mstore\n        /* \"#utility.yul\":6395:6473   */\n      tag_320\n        /* \"#utility.yul\":6468:6472   */\n      dup2\n        /* \"#utility.yul\":6459:6465   */\n      dup9\n        /* \"#utility.yul\":6395:6473   */\n      tag_232\n      jump\t// in\n    tag_320:\n        /* \"#utility.yul\":6387:6473   */\n      swap1\n      pop\n        /* \"#utility.yul\":6520:6529   */\n      dup2\n        /* \"#utility.yul\":6514:6518   */\n      dup2\n        /* \"#utility.yul\":6510:6530   */\n      sub\n        /* \"#utility.yul\":6505:6507   */\n      0x40\n        /* \"#utility.yul\":6494:6503   */\n      dup4\n        /* \"#utility.yul\":6490:6508   */\n      add\n        /* \"#utility.yul\":6483:6531   */\n      mstore\n        /* \"#utility.yul\":6548:6626   */\n      tag_321\n        /* \"#utility.yul\":6621:6625   */\n      dup2\n        /* \"#utility.yul\":6612:6618   */\n      dup8\n        /* \"#utility.yul\":6548:6626   */\n      tag_232\n      jump\t// in\n    tag_321:\n        /* \"#utility.yul\":6540:6626   */\n      swap1\n      pop\n        /* \"#utility.yul\":6673:6682   */\n      dup2\n        /* \"#utility.yul\":6667:6671   */\n      dup2\n        /* \"#utility.yul\":6663:6683   */\n      sub\n        /* \"#utility.yul\":6658:6660   */\n      0x60\n        /* \"#utility.yul\":6647:6656   */\n      dup4\n        /* \"#utility.yul\":6643:6661   */\n      add\n        /* \"#utility.yul\":6636:6684   */\n      mstore\n        /* \"#utility.yul\":6701:6779   */\n      tag_322\n        /* \"#utility.yul\":6774:6778   */\n      dup2\n        /* \"#utility.yul\":6765:6771   */\n      dup7\n        /* \"#utility.yul\":6701:6779   */\n      tag_232\n      jump\t// in\n    tag_322:\n        /* \"#utility.yul\":6693:6779   */\n      swap1\n      pop\n        /* \"#utility.yul\":6827:6836   */\n      dup2\n        /* \"#utility.yul\":6821:6825   */\n      dup2\n        /* \"#utility.yul\":6817:6837   */\n      sub\n        /* \"#utility.yul\":6811:6814   */\n      0x80\n        /* \"#utility.yul\":6800:6809   */\n      dup4\n        /* \"#utility.yul\":6796:6815   */\n      add\n        /* \"#utility.yul\":6789:6838   */\n      mstore\n        /* \"#utility.yul\":6855:6933   */\n      tag_323\n        /* \"#utility.yul\":6928:6932   */\n      dup2\n        /* \"#utility.yul\":6919:6925   */\n      dup6\n        /* \"#utility.yul\":6855:6933   */\n      tag_232\n      jump\t// in\n    tag_323:\n        /* \"#utility.yul\":6847:6933   */\n      swap1\n      pop\n        /* \"#utility.yul\":6981:6990   */\n      dup2\n        /* \"#utility.yul\":6975:6979   */\n      dup2\n        /* \"#utility.yul\":6971:6991   */\n      sub\n        /* \"#utility.yul\":6965:6968   */\n      0xa0\n        /* \"#utility.yul\":6954:6963   */\n      dup4\n        /* \"#utility.yul\":6950:6969   */\n      add\n        /* \"#utility.yul\":6943:6992   */\n      mstore\n        /* \"#utility.yul\":7009:7117   */\n      tag_324\n        /* \"#utility.yul\":7112:7116   */\n      dup2\n        /* \"#utility.yul\":7103:7109   */\n      dup5\n        /* \"#utility.yul\":7009:7117   */\n      tag_240\n      jump\t// in\n    tag_324:\n        /* \"#utility.yul\":7001:7117   */\n      swap1\n      pop\n        /* \"#utility.yul\":5743:7124   */\n      swap8\n      swap7\n      pop\n      pop\n      pop\n      pop\n      pop\n      pop\n      pop\n      jump\t// out\n        /* \"#utility.yul\":7130:8249   */\n    tag_21:\n        /* \"#utility.yul\":7435:7439   */\n      0x00\n        /* \"#utility.yul\":7473:7476   */\n      0xa0\n        /* \"#utility.yul\":7462:7471   */\n      dup3\n        /* \"#utility.yul\":7458:7477   */\n      add\n        /* \"#utility.yul\":7450:7477   */\n      swap1\n      pop\n        /* \"#utility.yul\":7523:7532   */\n      dup2\n        /* \"#utility.yul\":7517:7521   */\n      dup2\n        /* \"#utility.yul\":7513:7533   */\n      sub\n        /* \"#utility.yul\":7509:7510   */\n      0x00\n        /* \"#utility.yul\":7498:7507   */\n      dup4\n        /* \"#utility.yul\":7494:7511   */\n      add\n        /* \"#utility.yul\":7487:7534   */\n      mstore\n        /* \"#utility.yul\":7551:7629   */\n      tag_326\n        /* \"#utility.yul\":7624:7628   */\n      dup2\n        /* \"#utility.yul\":7615:7621   */\n      dup9\n        /* \"#utility.yul\":7551:7629   */\n      tag_232\n      jump\t// in\n    tag_326:\n        /* \"#utility.yul\":7543:7629   */\n      swap1\n      pop\n        /* \"#utility.yul\":7676:7685   */\n      dup2\n        /* \"#utility.yul\":7670:7674   */\n      dup2\n        /* \"#utility.yul\":7666:7686   */\n      sub\n        /* \"#utility.yul\":7661:7663   */\n      0x20\n        /* \"#utility.yul\":7650:7659   */\n      dup4\n        /* \"#utility.yul\":7646:7664   */\n      add\n        /* \"#utility.yul\":7639:7687   */\n      mstore\n        /* \"#utility.yul\":7704:7782   */\n      tag_327\n        /* \"#utility.yul\":7777:7781   */\n      dup2\n        /* \"#utility.yul\":7768:7774   */\n      dup8\n        /* \"#utility.yul\":7704:7782   */\n      tag_232\n      jump\t// in\n    tag_327:\n        /* \"#utility.yul\":7696:7782   */\n      swap1\n      pop\n        /* \"#utility.yul\":7829:7838   */\n      dup2\n        /* \"#utility.yul\":7823:7827   */\n      dup2\n        /* \"#utility.yul\":7819:7839   */\n      sub\n        /* \"#utility.yul\":7814:7816   */\n      0x40\n        /* \"#utility.yul\":7803:7812   */\n      dup4\n        /* \"#utility.yul\":7799:7817   */\n      add\n        /* \"#utility.yul\":7792:7840   */\n      mstore\n        /* \"#utility.yul\":7857:7935   */\n      tag_328\n        /* \"#utility.yul\":7930:7934   */\n      dup2\n        /* \"#utility.yul\":7921:7927   */\n      dup7\n        /* \"#utility.yul\":7857:7935   */\n      tag_232\n      jump\t// in\n    tag_328:\n        /* \"#utility.yul\":7849:7935   */\n      swap1\n      pop\n        /* \"#utility.yul\":7982:7991   */\n      dup2\n        /* \"#utility.yul\":7976:7980   */\n      dup2\n        /* \"#utility.yul\":7972:7992   */\n      sub\n        /* \"#utility.yul\":7967:7969   */\n      0x60\n        /* \"#utility.yul\":7956:7965   */\n      dup4\n        /* \"#utility.yul\":7952:7970   */\n      add\n        /* \"#utility.yul\":7945:7993   */\n      mstore\n        /* \"#utility.yul\":8010:8088   */\n      tag_329\n        /* \"#utility.yul\":8083:8087   */\n      dup2\n        /* \"#utility.yul\":8074:8080   */\n      dup6\n        /* \"#utility.yul\":8010:8088   */\n      tag_232\n      jump\t// in\n    tag_329:\n        /* \"#utility.yul\":8002:8088   */\n      swap1\n      pop\n        /* \"#utility.yul\":8136:8145   */\n      dup2\n        /* \"#utility.yul\":8130:8134   */\n      dup2\n        /* \"#utility.yul\":8126:8146   */\n      sub\n        /* \"#utility.yul\":8120:8123   */\n      0x80\n        /* \"#utility.yul\":8109:8118   */\n      dup4\n        /* \"#utility.yul\":8105:8124   */\n      add\n        /* \"#utility.yul\":8098:8147   */\n      mstore\n        /* \"#utility.yul\":8164:8242   */\n      tag_330\n        /* \"#utility.yul\":8237:8241   */\n      dup2\n        /* \"#utility.yul\":8228:8234   */\n      dup5\n        /* \"#utility.yul\":8164:8242   */\n      tag_232\n      jump\t// in\n    tag_330:\n        /* \"#utility.yul\":8156:8242   */\n      swap1\n      pop\n        /* \"#utility.yul\":7130:8249   */\n      swap7\n      swap6\n      pop\n      pop\n      pop\n      pop\n      pop\n      pop\n      jump\t// out\n        /* \"#utility.yul\":8255:8566   */\n    tag_241:\n        /* \"#utility.yul\":8332:8336   */\n      0x00\n        /* \"#utility.yul\":8422:8440   */\n      0xffffffffffffffff\n        /* \"#utility.yul\":8414:8420   */\n      dup3\n        /* \"#utility.yul\":8411:8441   */\n      gt\n        /* \"#utility.yul\":8408:8464   */\n      iszero\n      tag_332\n      jumpi\n        /* \"#utility.yul\":8444:8462   */\n      tag_333\n      tag_222\n      jump\t// in\n    tag_333:\n        /* \"#utility.yul\":8408:8464   */\n    tag_332:\n        /* \"#utility.yul\":8494:8498   */\n      0x20\n        /* \"#utility.yul\":8486:8492   */\n      dup3\n        /* \"#utility.yul\":8482:8499   */\n      mul\n        /* \"#utility.yul\":8474:8499   */\n      swap1\n      pop\n        /* \"#utility.yul\":8554:8558   */\n      0x20\n        /* \"#utility.yul\":8548:8552   */\n      dup2\n        /* \"#utility.yul\":8544:8559   */\n      add\n        /* \"#utility.yul\":8536:8559   */\n      swap1\n      pop\n        /* \"#utility.yul\":8255:8566   */\n      swap2\n      swap1\n      pop\n      jump\t// out\n        /* \"#utility.yul\":8572:8689   */\n    tag_242:\n        /* \"#utility.yul\":8681:8682   */\n      0x00\n        /* \"#utility.yul\":8678:8679   */\n      dup1\n        /* \"#utility.yul\":8671:8683   */\n      revert\n        /* \"#utility.yul\":8695:8817   */\n    tag_243:\n        /* \"#utility.yul\":8768:8792   */\n      tag_336\n        /* \"#utility.yul\":8786:8791   */\n      dup2\n        /* \"#utility.yul\":8768:8792   */\n      tag_236\n      jump\t// in\n    tag_336:\n        /* \"#utility.yul\":8761:8766   */\n      dup2\n        /* \"#utility.yul\":8758:8793   */\n      eq\n        /* \"#utility.yul\":8748:8811   */\n      tag_337\n      jumpi\n        /* \"#utility.yul\":8807:8808   */\n      0x00\n        /* \"#utility.yul\":8804:8805   */\n      dup1\n        /* \"#utility.yul\":8797:8809   */\n      revert\n        /* \"#utility.yul\":8748:8811   */\n    tag_337:\n        /* \"#utility.yul\":8695:8817   */\n      pop\n      jump\t// out\n        /* \"#utility.yul\":8823:8962   */\n    tag_244:\n        /* \"#utility.yul\":8869:8874   */\n      0x00\n        /* \"#utility.yul\":8907:8913   */\n      dup2\n        /* \"#utility.yul\":8894:8914   */\n      calldataload\n        /* \"#utility.yul\":8885:8914   */\n      swap1\n      pop\n        /* \"#utility.yul\":8923:8956   */\n      tag_339\n        /* \"#utility.yul\":8950:8955   */\n      dup2\n        /* \"#utility.yul\":8923:8956   */\n      tag_243\n      jump\t// in\n    tag_339:\n        /* \"#utility.yul\":8823:8962   */\n      swap3\n      swap2\n      pop\n      pop\n      jump\t// out\n        /* \"#utility.yul\":8985:9695   */\n    tag_245:\n        /* \"#utility.yul\":9081:9086   */\n      0x00\n        /* \"#utility.yul\":9106:9187   */\n      tag_341\n        /* \"#utility.yul\":9122:9186   */\n      tag_342\n        /* \"#utility.yul\":9179:9185   */\n      dup5\n        /* \"#utility.yul\":9122:9186   */\n      tag_241\n      jump\t// in\n    tag_342:\n        /* \"#utility.yul\":9106:9187   */\n      tag_224\n      jump\t// in\n    tag_341:\n        /* \"#utility.yul\":9097:9187   */\n      swap1\n      pop\n        /* \"#utility.yul\":9207:9212   */\n      dup1\n        /* \"#utility.yul\":9236:9242   */\n      dup4\n        /* \"#utility.yul\":9229:9234   */\n      dup3\n        /* \"#utility.yul\":9222:9243   */\n      mstore\n        /* \"#utility.yul\":9270:9274   */\n      0x20\n        /* \"#utility.yul\":9263:9268   */\n      dup3\n        /* \"#utility.yul\":9259:9275   */\n      add\n        /* \"#utility.yul\":9252:9275   */\n      swap1\n      pop\n        /* \"#utility.yul\":9323:9327   */\n      0x20\n        /* \"#utility.yul\":9315:9321   */\n      dup5\n        /* \"#utility.yul\":9311:9328   */\n      mul\n        /* \"#utility.yul\":9303:9309   */\n      dup4\n        /* \"#utility.yul\":9299:9329   */\n      add\n        /* \"#utility.yul\":9352:9355   */\n      dup6\n        /* \"#utility.yul\":9344:9350   */\n      dup2\n        /* \"#utility.yul\":9341:9356   */\n      gt\n        /* \"#utility.yul\":9338:9460   */\n      iszero\n      tag_343\n      jumpi\n        /* \"#utility.yul\":9371:9450   */\n      tag_344\n      tag_242\n      jump\t// in\n    tag_344:\n        /* \"#utility.yul\":9338:9460   */\n    tag_343:\n        /* \"#utility.yul\":9486:9492   */\n      dup4\n        /* \"#utility.yul\":9469:9689   */\n    tag_345:\n        /* \"#utility.yul\":9503:9509   */\n      dup2\n        /* \"#utility.yul\":9498:9501   */\n      dup2\n        /* \"#utility.yul\":9495:9510   */\n      lt\n        /* \"#utility.yul\":9469:9689   */\n      iszero\n      tag_347\n      jumpi\n        /* \"#utility.yul\":9578:9581   */\n      dup1\n        /* \"#utility.yul\":9607:9644   */\n      tag_348\n        /* \"#utility.yul\":9640:9643   */\n      dup9\n        /* \"#utility.yul\":9628:9638   */\n      dup3\n        /* \"#utility.yul\":9607:9644   */\n      tag_244\n      jump\t// in\n    tag_348:\n        /* \"#utility.yul\":9602:9605   */\n      dup5\n        /* \"#utility.yul\":9595:9645   */\n      mstore\n        /* \"#utility.yul\":9674:9678   */\n      0x20\n        /* \"#utility.yul\":9669:9672   */\n      dup5\n        /* \"#utility.yul\":9665:9679   */\n      add\n        /* \"#utility.yul\":9658:9679   */\n      swap4\n      pop\n        /* \"#utility.yul\":9545:9689   */\n      pop\n        /* \"#utility.yul\":9529:9533   */\n      0x20\n        /* \"#utility.yul\":9524:9527   */\n      dup2\n        /* \"#utility.yul\":9520:9534   */\n      add\n        /* \"#utility.yul\":9513:9534   */\n      swap1\n      pop\n        /* \"#utility.yul\":9469:9689   */\n      jump(tag_345)\n    tag_347:\n        /* \"#utility.yul\":9473:9494   */\n      pop\n        /* \"#utility.yul\":9087:9695   */\n      pop\n      pop\n        /* \"#utility.yul\":8985:9695   */\n      swap4\n      swap3\n      pop\n      pop\n      pop\n      jump\t// out\n        /* \"#utility.yul\":9718:10088   */\n    tag_246:\n        /* \"#utility.yul\":9789:9794   */\n      0x00\n        /* \"#utility.yul\":9838:9841   */\n      dup3\n        /* \"#utility.yul\":9831:9835   */\n      0x1f\n        /* \"#utility.yul\":9823:9829   */\n      dup4\n        /* \"#utility.yul\":9819:9836   */\n      add\n        /* \"#utility.yul\":9815:9842   */\n      slt\n        /* \"#utility.yul\":9805:9927   */\n      tag_350\n      jumpi\n        /* \"#utility.yul\":9846:9925   */\n      tag_351\n      tag_219\n      jump\t// in\n    tag_351:\n        /* \"#utility.yul\":9805:9927   */\n    tag_350:\n        /* \"#utility.yul\":9963:9969   */\n      dup2\n        /* \"#utility.yul\":9950:9970   */\n      calldataload\n        /* \"#utility.yul\":9988:10082   */\n      tag_352\n        /* \"#utility.yul\":10078:10081   */\n      dup5\n        /* \"#utility.yul\":10070:10076   */\n      dup3\n        /* \"#utility.yul\":10063:10067   */\n      0x20\n        /* \"#utility.yul\":10055:10061   */\n      dup7\n        /* \"#utility.yul\":10051:10068   */\n      add\n        /* \"#utility.yul\":9988:10082   */\n      tag_245\n      jump\t// in\n    tag_352:\n        /* \"#utility.yul\":9979:10082   */\n      swap2\n      pop\n        /* \"#utility.yul\":9795:10088   */\n      pop\n        /* \"#utility.yul\":9718:10088   */\n      swap3\n      swap2\n      pop\n      pop\n      jump\t// out\n        /* \"#utility.yul\":10094:12587   */\n    tag_24:\n        /* \"#utility.yul\":10292:10298   */\n      0x00\n        /* \"#utility.yul\":10300:10306   */\n      dup1\n        /* \"#utility.yul\":10308:10314   */\n      0x00\n        /* \"#utility.yul\":10316:10322   */\n      dup1\n        /* \"#utility.yul\":10324:10330   */\n      0x00\n        /* \"#utility.yul\":10332:10338   */\n      dup1\n        /* \"#utility.yul\":10340:10346   */\n      0x00\n        /* \"#utility.yul\":10389:10392   */\n      0xe0\n        /* \"#utility.yul\":10377:10386   */\n      dup9\n        /* \"#utility.yul\":10368:10375   */\n      dup11\n        /* \"#utility.yul\":10364:10387   */\n      sub\n        /* \"#utility.yul\":10360:10393   */\n      slt\n        /* \"#utility.yul\":10357:10477   */\n      iszero\n      tag_354\n      jumpi\n        /* \"#utility.yul\":10396:10475   */\n      tag_355\n      tag_217\n      jump\t// in\n    tag_355:\n        /* \"#utility.yul\":10357:10477   */\n    tag_354:\n        /* \"#utility.yul\":10544:10545   */\n      0x00\n        /* \"#utility.yul\":10533:10542   */\n      dup9\n        /* \"#utility.yul\":10529:10546   */\n      add\n        /* \"#utility.yul\":10516:10547   */\n      calldataload\n        /* \"#utility.yul\":10574:10592   */\n      0xffffffffffffffff\n        /* \"#utility.yul\":10566:10572   */\n      dup2\n        /* \"#utility.yul\":10563:10593   */\n      gt\n        /* \"#utility.yul\":10560:10677   */\n      iszero\n      tag_356\n      jumpi\n        /* \"#utility.yul\":10596:10675   */\n      tag_357\n      tag_218\n      jump\t// in\n    tag_357:\n        /* \"#utility.yul\":10560:10677   */\n    tag_356:\n        /* \"#utility.yul\":10701:10764   */\n      tag_358\n        /* \"#utility.yul\":10756:10763   */\n      dup11\n        /* \"#utility.yul\":10747:10753   */\n      dup3\n        /* \"#utility.yul\":10736:10745   */\n      dup12\n        /* \"#utility.yul\":10732:10754   */\n      add\n        /* \"#utility.yul\":10701:10764   */\n      tag_228\n      jump\t// in\n    tag_358:\n        /* \"#utility.yul\":10691:10764   */\n      swap8\n      pop\n        /* \"#utility.yul\":10487:10774   */\n      pop\n        /* \"#utility.yul\":10841:10843   */\n      0x20\n        /* \"#utility.yul\":10830:10839   */\n      dup9\n        /* \"#utility.yul\":10826:10844   */\n      add\n        /* \"#utility.yul\":10813:10845   */\n      calldataload\n        /* \"#utility.yul\":10872:10890   */\n      0xffffffffffffffff\n        /* \"#utility.yul\":10864:10870   */\n      dup2\n        /* \"#utility.yul\":10861:10891   */\n      gt\n        /* \"#utility.yul\":10858:10975   */\n      iszero\n      tag_359\n      jumpi\n        /* \"#utility.yul\":10894:10973   */\n      tag_360\n      tag_218\n      jump\t// in\n    tag_360:\n        /* \"#utility.yul\":10858:10975   */\n    tag_359:\n        /* \"#utility.yul\":10999:11062   */\n      tag_361\n        /* \"#utility.yul\":11054:11061   */\n      dup11\n        /* \"#utility.yul\":11045:11051   */\n      dup3\n        /* \"#utility.yul\":11034:11043   */\n      dup12\n        /* \"#utility.yul\":11030:11052   */\n      add\n        /* \"#utility.yul\":10999:11062   */\n      tag_228\n      jump\t// in\n    tag_361:\n        /* \"#utility.yul\":10989:11062   */\n      swap7\n      pop\n        /* \"#utility.yul\":10784:11072   */\n      pop\n        /* \"#utility.yul\":11139:11141   */\n      0x40\n        /* \"#utility.yul\":11128:11137   */\n      dup9\n        /* \"#utility.yul\":11124:11142   */\n      add\n        /* \"#utility.yul\":11111:11143   */\n      calldataload\n        /* \"#utility.yul\":11170:11188   */\n      0xffffffffffffffff\n        /* \"#utility.yul\":11162:11168   */\n      dup2\n        /* \"#utility.yul\":11159:11189   */\n      gt\n        /* \"#utility.yul\":11156:11273   */\n      iszero\n      tag_362\n      jumpi\n        /* \"#utility.yul\":11192:11271   */\n      tag_363\n      tag_218\n      jump\t// in\n    tag_363:\n        /* \"#utility.yul\":11156:11273   */\n    tag_362:\n        /* \"#utility.yul\":11297:11360   */\n      tag_364\n        /* \"#utility.yul\":11352:11359   */\n      dup11\n        /* \"#utility.yul\":11343:11349   */\n      dup3\n        /* \"#utility.yul\":11332:11341   */\n      dup12\n        /* \"#utility.yul\":11328:11350   */\n      add\n        /* \"#utility.yul\":11297:11360   */\n      tag_228\n      jump\t// in\n    tag_364:\n        /* \"#utility.yul\":11287:11360   */\n      swap6\n      pop\n        /* \"#utility.yul\":11082:11370   */\n      pop\n        /* \"#utility.yul\":11437:11439   */\n      0x60\n        /* \"#utility.yul\":11426:11435   */\n      dup9\n        /* \"#utility.yul\":11422:11440   */\n      add\n        /* \"#utility.yul\":11409:11441   */\n      calldataload\n        /* \"#utility.yul\":11468:11486   */\n      0xffffffffffffffff\n        /* \"#utility.yul\":11460:11466   */\n      dup2\n        /* \"#utility.yul\":11457:11487   */\n      gt\n        /* \"#utility.yul\":11454:11571   */\n      iszero\n      tag_365\n      jumpi\n        /* \"#utility.yul\":11490:11569   */\n      tag_366\n      tag_218\n      jump\t// in\n    tag_366:\n        /* \"#utility.yul\":11454:11571   */\n    tag_365:\n        /* \"#utility.yul\":11595:11658   */\n      tag_367\n        /* \"#utility.yul\":11650:11657   */\n      dup11\n        /* \"#utility.yul\":11641:11647   */\n      dup3\n        /* \"#utility.yul\":11630:11639   */\n      dup12\n        /* \"#utility.yul\":11626:11648   */\n      add\n        /* \"#utility.yul\":11595:11658   */\n      tag_228\n      jump\t// in\n    tag_367:\n        /* \"#utility.yul\":11585:11658   */\n      swap5\n      pop\n        /* \"#utility.yul\":11380:11668   */\n      pop\n        /* \"#utility.yul\":11735:11738   */\n      0x80\n        /* \"#utility.yul\":11724:11733   */\n      dup9\n        /* \"#utility.yul\":11720:11739   */\n      add\n        /* \"#utility.yul\":11707:11740   */\n      calldataload\n        /* \"#utility.yul\":11767:11785   */\n      0xffffffffffffffff\n        /* \"#utility.yul\":11759:11765   */\n      dup2\n        /* \"#utility.yul\":11756:11786   */\n      gt\n        /* \"#utility.yul\":11753:11870   */\n      iszero\n      tag_368\n      jumpi\n        /* \"#utility.yul\":11789:11868   */\n      tag_369\n      tag_218\n      jump\t// in\n    tag_369:\n        /* \"#utility.yul\":11753:11870   */\n    tag_368:\n        /* \"#utility.yul\":11894:11957   */\n      tag_370\n        /* \"#utility.yul\":11949:11956   */\n      dup11\n        /* \"#utility.yul\":11940:11946   */\n      dup3\n        /* \"#utility.yul\":11929:11938   */\n      dup12\n        /* \"#utility.yul\":11925:11947   */\n      add\n        /* \"#utility.yul\":11894:11957   */\n      tag_228\n      jump\t// in\n    tag_370:\n        /* \"#utility.yul\":11884:11957   */\n      swap4\n      pop\n        /* \"#utility.yul\":11678:11967   */\n      pop\n        /* \"#utility.yul\":12034:12037   */\n      0xa0\n        /* \"#utility.yul\":12023:12032   */\n      dup9\n        /* \"#utility.yul\":12019:12038   */\n      add\n        /* \"#utility.yul\":12006:12039   */\n      calldataload\n        /* \"#utility.yul\":12066:12084   */\n      0xffffffffffffffff\n        /* \"#utility.yul\":12058:12064   */\n      dup2\n        /* \"#utility.yul\":12055:12085   */\n      gt\n        /* \"#utility.yul\":12052:12169   */\n      iszero\n      tag_371\n      jumpi\n        /* \"#utility.yul\":12088:12167   */\n      tag_372\n      tag_218\n      jump\t// in\n    tag_372:\n        /* \"#utility.yul\":12052:12169   */\n    tag_371:\n        /* \"#utility.yul\":12193:12256   */\n      tag_373\n        /* \"#utility.yul\":12248:12255   */\n      dup11\n        /* \"#utility.yul\":12239:12245   */\n      dup3\n        /* \"#utility.yul\":12228:12237   */\n      dup12\n        /* \"#utility.yul\":12224:12246   */\n      add\n        /* \"#utility.yul\":12193:12256   */\n      tag_228\n      jump\t// in\n    tag_373:\n        /* \"#utility.yul\":12183:12256   */\n      swap3\n      pop\n        /* \"#utility.yul\":11977:12266   */\n      pop\n        /* \"#utility.yul\":12333:12336   */\n      0xc0\n        /* \"#utility.yul\":12322:12331   */\n      dup9\n        /* \"#utility.yul\":12318:12337   */\n      add\n        /* \"#utility.yul\":12305:12338   */\n      calldataload\n        /* \"#utility.yul\":12365:12383   */\n      0xffffffffffffffff\n        /* \"#utility.yul\":12357:12363   */\n      dup2\n        /* \"#utility.yul\":12354:12384   */\n      gt\n        /* \"#utility.yul\":12351:12468   */\n      iszero\n      tag_374\n      jumpi\n        /* \"#utility.yul\":12387:12466   */\n      tag_375\n      tag_218\n      jump\t// in\n    tag_375:\n        /* \"#utility.yul\":12351:12468   */\n    tag_374:\n        /* \"#utility.yul\":12492:12570   */\n      tag_376\n        /* \"#utility.yul\":12562:12569   */\n      dup11\n        /* \"#utility.yul\":12553:12559   */\n      dup3\n        /* \"#utility.yul\":12542:12551   */\n      dup12\n        /* \"#utility.yul\":12538:12560   */\n      add\n        /* \"#utility.yul\":12492:12570   */\n      tag_246\n      jump\t// in\n    tag_376:\n        /* \"#utility.yul\":12482:12570   */\n      swap2\n      pop\n        /* \"#utility.yul\":12276:12580   */\n      pop\n        /* \"#utility.yul\":10094:12587   */\n      swap3\n      swap6\n      swap9\n      swap2\n      swap5\n      swap8\n      pop\n      swap3\n      swap6\n      pop\n      jump\t// out\n        /* \"#utility.yul\":12593:12711   */\n    tag_247:\n        /* \"#utility.yul\":12680:12704   */\n      tag_378\n        /* \"#utility.yul\":12698:12703   */\n      dup2\n        /* \"#utility.yul\":12680:12704   */\n      tag_236\n      jump\t// in\n    tag_378:\n        /* \"#utility.yul\":12675:12678   */\n      dup3\n        /* \"#utility.yul\":12668:12705   */\n      mstore\n        /* \"#utility.yul\":12593:12711   */\n      pop\n      pop\n      jump\t// out\n        /* \"#utility.yul\":12717:12939   */\n    tag_29:\n        /* \"#utility.yul\":12810:12814   */\n      0x00\n        /* \"#utility.yul\":12848:12850   */\n      0x20\n        /* \"#utility.yul\":12837:12846   */\n      dup3\n        /* \"#utility.yul\":12833:12851   */\n      add\n        /* \"#utility.yul\":12825:12851   */\n      swap1\n      pop\n        /* \"#utility.yul\":12861:12932   */\n      tag_380\n        /* \"#utility.yul\":12929:12930   */\n      0x00\n        /* \"#utility.yul\":12918:12927   */\n      dup4\n        /* \"#utility.yul\":12914:12931   */\n      add\n        /* \"#utility.yul\":12905:12911   */\n      dup5\n        /* \"#utility.yul\":12861:12932   */\n      tag_247\n      jump\t// in\n    tag_380:\n        /* \"#utility.yul\":12717:12939   */\n      swap3\n      swap2\n      pop\n      pop\n      jump\t// out\n        /* \"#utility.yul\":12945:13274   */\n    tag_32:\n        /* \"#utility.yul\":13004:13010   */\n      0x00\n        /* \"#utility.yul\":13053:13055   */\n      0x20\n        /* \"#utility.yul\":13041:13050   */\n      dup3\n        /* \"#utility.yul\":13032:13039   */\n      dup5\n        /* \"#utility.yul\":13028:13051   */\n      sub\n        /* \"#utility.yul\":13024:13056   */\n      slt\n        /* \"#utility.yul\":13021:13140   */\n      iszero\n      tag_382\n      jumpi\n        /* \"#utility.yul\":13059:13138   */\n      tag_383\n      tag_217\n      jump\t// in\n    tag_383:\n        /* \"#utility.yul\":13021:13140   */\n    tag_382:\n        /* \"#utility.yul\":13179:13180   */\n      0x00\n        /* \"#utility.yul\":13204:13257   */\n      tag_384\n        /* \"#utility.yul\":13249:13256   */\n      dup5\n        /* \"#utility.yul\":13240:13246   */\n      dup3\n        /* \"#utility.yul\":13229:13238   */\n      dup6\n        /* \"#utility.yul\":13225:13247   */\n      add\n        /* \"#utility.yul\":13204:13257   */\n      tag_244\n      jump\t// in\n    tag_384:\n        /* \"#utility.yul\":13194:13257   */\n      swap2\n      pop\n        /* \"#utility.yul\":13150:13267   */\n      pop\n        /* \"#utility.yul\":12945:13274   */\n      swap3\n      swap2\n      pop\n      pop\n      jump\t// out\n        /* \"#utility.yul\":13280:15116   */\n    tag_35:\n        /* \"#utility.yul\":13757:13761   */\n      0x00\n        /* \"#utility.yul\":13795:13798   */\n      0x0120\n        /* \"#utility.yul\":13784:13793   */\n      dup3\n        /* \"#utility.yul\":13780:13799   */\n      add\n        /* \"#utility.yul\":13772:13799   */\n      swap1\n      pop\n        /* \"#utility.yul\":13845:13854   */\n      dup2\n        /* \"#utility.yul\":13839:13843   */\n      dup2\n        /* \"#utility.yul\":13835:13855   */\n      sub\n        /* \"#utility.yul\":13831:13832   */\n      0x00\n        /* \"#utility.yul\":13820:13829   */\n      dup4\n        /* \"#utility.yul\":13816:13833   */\n      add\n        /* \"#utility.yul\":13809:13856   */\n      mstore\n        /* \"#utility.yul\":13873:13951   */\n      tag_386\n        /* \"#utility.yul\":13946:13950   */\n      dup2\n        /* \"#utility.yul\":13937:13943   */\n      dup13\n        /* \"#utility.yul\":13873:13951   */\n      tag_232\n      jump\t// in\n    tag_386:\n        /* \"#utility.yul\":13865:13951   */\n      swap1\n      pop\n        /* \"#utility.yul\":13998:14007   */\n      dup2\n        /* \"#utility.yul\":13992:13996   */\n      dup2\n        /* \"#utility.yul\":13988:14008   */\n      sub\n        /* \"#utility.yul\":13983:13985   */\n      0x20\n        /* \"#utility.yul\":13972:13981   */\n      dup4\n        /* \"#utility.yul\":13968:13986   */\n      add\n        /* \"#utility.yul\":13961:14009   */\n      mstore\n        /* \"#utility.yul\":14026:14104   */\n      tag_387\n        /* \"#utility.yul\":14099:14103   */\n      dup2\n        /* \"#utility.yul\":14090:14096   */\n      dup12\n        /* \"#utility.yul\":14026:14104   */\n      tag_232\n      jump\t// in\n    tag_387:\n        /* \"#utility.yul\":14018:14104   */\n      swap1\n      pop\n        /* \"#utility.yul\":14151:14160   */\n      dup2\n        /* \"#utility.yul\":14145:14149   */\n      dup2\n        /* \"#utility.yul\":14141:14161   */\n      sub\n        /* \"#utility.yul\":14136:14138   */\n      0x40\n        /* \"#utility.yul\":14125:14134   */\n      dup4\n        /* \"#utility.yul\":14121:14139   */\n      add\n        /* \"#utility.yul\":14114:14162   */\n      mstore\n        /* \"#utility.yul\":14179:14257   */\n      tag_388\n        /* \"#utility.yul\":14252:14256   */\n      dup2\n        /* \"#utility.yul\":14243:14249   */\n      dup11\n        /* \"#utility.yul\":14179:14257   */\n      tag_232\n      jump\t// in\n    tag_388:\n        /* \"#utility.yul\":14171:14257   */\n      swap1\n      pop\n        /* \"#utility.yul\":14304:14313   */\n      dup2\n        /* \"#utility.yul\":14298:14302   */\n      dup2\n        /* \"#utility.yul\":14294:14314   */\n      sub\n        /* \"#utility.yul\":14289:14291   */\n      0x60\n        /* \"#utility.yul\":14278:14287   */\n      dup4\n        /* \"#utility.yul\":14274:14292   */\n      add\n        /* \"#utility.yul\":14267:14315   */\n      mstore\n        /* \"#utility.yul\":14332:14410   */\n      tag_389\n        /* \"#utility.yul\":14405:14409   */\n      dup2\n        /* \"#utility.yul\":14396:14402   */\n      dup10\n        /* \"#utility.yul\":14332:14410   */\n      tag_232\n      jump\t// in\n    tag_389:\n        /* \"#utility.yul\":14324:14410   */\n      swap1\n      pop\n        /* \"#utility.yul\":14458:14467   */\n      dup2\n        /* \"#utility.yul\":14452:14456   */\n      dup2\n        /* \"#utility.yul\":14448:14468   */\n      sub\n        /* \"#utility.yul\":14442:14445   */\n      0x80\n        /* \"#utility.yul\":14431:14440   */\n      dup4\n        /* \"#utility.yul\":14427:14446   */\n      add\n        /* \"#utility.yul\":14420:14469   */\n      mstore\n        /* \"#utility.yul\":14486:14564   */\n      tag_390\n        /* \"#utility.yul\":14559:14563   */\n      dup2\n        /* \"#utility.yul\":14550:14556   */\n      dup9\n        /* \"#utility.yul\":14486:14564   */\n      tag_232\n      jump\t// in\n    tag_390:\n        /* \"#utility.yul\":14478:14564   */\n      swap1\n      pop\n        /* \"#utility.yul\":14574:14647   */\n      tag_391\n        /* \"#utility.yul\":14642:14645   */\n      0xa0\n        /* \"#utility.yul\":14631:14640   */\n      dup4\n        /* \"#utility.yul\":14627:14646   */\n      add\n        /* \"#utility.yul\":14618:14624   */\n      dup8\n        /* \"#utility.yul\":14574:14647   */\n      tag_247\n      jump\t// in\n    tag_391:\n        /* \"#utility.yul\":14695:14704   */\n      dup2\n        /* \"#utility.yul\":14689:14693   */\n      dup2\n        /* \"#utility.yul\":14685:14705   */\n      sub\n        /* \"#utility.yul\":14679:14682   */\n      0xc0\n        /* \"#utility.yul\":14668:14677   */\n      dup4\n        /* \"#utility.yul\":14664:14683   */\n      add\n        /* \"#utility.yul\":14657:14706   */\n      mstore\n        /* \"#utility.yul\":14723:14801   */\n      tag_392\n        /* \"#utility.yul\":14796:14800   */\n      dup2\n        /* \"#utility.yul\":14787:14793   */\n      dup7\n        /* \"#utility.yul\":14723:14801   */\n      tag_232\n      jump\t// in\n    tag_392:\n        /* \"#utility.yul\":14715:14801   */\n      swap1\n      pop\n        /* \"#utility.yul\":14849:14858   */\n      dup2\n        /* \"#utility.yul\":14843:14847   */\n      dup2\n        /* \"#utility.yul\":14839:14859   */\n      sub\n        /* \"#utility.yul\":14833:14836   */\n      0xe0\n        /* \"#utility.yul\":14822:14831   */\n      dup4\n        /* \"#utility.yul\":14818:14837   */\n      add\n        /* \"#utility.yul\":14811:14860   */\n      mstore\n        /* \"#utility.yul\":14877:14955   */\n      tag_393\n        /* \"#utility.yul\":14950:14954   */\n      dup2\n        /* \"#utility.yul\":14941:14947   */\n      dup6\n        /* \"#utility.yul\":14877:14955   */\n      tag_232\n      jump\t// in\n    tag_393:\n        /* \"#utility.yul\":14869:14955   */\n      swap1\n      pop\n        /* \"#utility.yul\":15003:15012   */\n      dup2\n        /* \"#utility.yul\":14997:15001   */\n      dup2\n        /* \"#utility.yul\":14993:15013   */\n      sub\n        /* \"#utility.yul\":14987:14990   */\n      0x0100\n        /* \"#utility.yul\":14976:14985   */\n      dup4\n        /* \"#utility.yul\":14972:14991   */\n      add\n        /* \"#utility.yul\":14965:15014   */\n      mstore\n        /* \"#utility.yul\":15031:15109   */\n      tag_394\n        /* \"#utility.yul\":15104:15108   */\n      dup2\n        /* \"#utility.yul\":15095:15101   */\n      dup5\n        /* \"#utility.yul\":15031:15109   */\n      tag_232\n      jump\t// in\n    tag_394:\n        /* \"#utility.yul\":15023:15109   */\n      swap1\n      pop\n        /* \"#utility.yul\":13280:15116   */\n      swap11\n      swap10\n      pop\n      pop\n      pop\n      pop\n      pop\n      pop\n      pop\n      pop\n      pop\n      pop\n      jump\t// out\n        /* \"#utility.yul\":15122:18057   */\n    tag_38:\n        /* \"#utility.yul\":15333:15339   */\n      0x00\n        /* \"#utility.yul\":15341:15347   */\n      dup1\n        /* \"#utility.yul\":15349:15355   */\n      0x00\n        /* \"#utility.yul\":15357:15363   */\n      dup1\n        /* \"#utility.yul\":15365:15371   */\n      0x00\n        /* \"#utility.yul\":15373:15379   */\n      dup1\n        /* \"#utility.yul\":15381:15387   */\n      0x00\n        /* \"#utility.yul\":15389:15395   */\n      dup1\n        /* \"#utility.yul\":15397:15403   */\n      0x00\n        /* \"#utility.yul\":15446:15449   */\n      0x0120\n        /* \"#utility.yul\":15434:15443   */\n      dup11\n        /* \"#utility.yul\":15425:15432   */\n      dup13\n        /* \"#utility.yul\":15421:15444   */\n      sub\n        /* \"#utility.yul\":15417:15450   */\n      slt\n        /* \"#utility.yul\":15414:15534   */\n      iszero\n      tag_396\n      jumpi\n        /* \"#utility.yul\":15453:15532   */\n      tag_397\n      tag_217\n      jump\t// in\n    tag_397:\n        /* \"#utility.yul\":15414:15534   */\n    tag_396:\n        /* \"#utility.yul\":15601:15602   */\n      0x00\n        /* \"#utility.yul\":15590:15599   */\n      dup11\n        /* \"#utility.yul\":15586:15603   */\n      add\n        /* \"#utility.yul\":15573:15604   */\n      calldataload\n        /* \"#utility.yul\":15631:15649   */\n      0xffffffffffffffff\n        /* \"#utility.yul\":15623:15629   */\n      dup2\n        /* \"#utility.yul\":15620:15650   */\n      gt\n        /* \"#utility.yul\":15617:15734   */\n      iszero\n      tag_398\n      jumpi\n        /* \"#utility.yul\":15653:15732   */\n      tag_399\n      tag_218\n      jump\t// in\n    tag_399:\n        /* \"#utility.yul\":15617:15734   */\n    tag_398:\n        /* \"#utility.yul\":15758:15821   */\n      tag_400\n        /* \"#utility.yul\":15813:15820   */\n      dup13\n        /* \"#utility.yul\":15804:15810   */\n      dup3\n        /* \"#utility.yul\":15793:15802   */\n      dup14\n        /* \"#utility.yul\":15789:15811   */\n      add\n        /* \"#utility.yul\":15758:15821   */\n      tag_228\n      jump\t// in\n    tag_400:\n        /* \"#utility.yul\":15748:15821   */\n      swap10\n      pop\n        /* \"#utility.yul\":15544:15831   */\n      pop\n        /* \"#utility.yul\":15898:15900   */\n      0x20\n        /* \"#utility.yul\":15887:15896   */\n      dup11\n        /* \"#utility.yul\":15883:15901   */\n      add\n        /* \"#utility.yul\":15870:15902   */\n      calldataload\n        /* \"#utility.yul\":15929:15947   */\n      0xffffffffffffffff\n        /* \"#utility.yul\":15921:15927   */\n      dup2\n        /* \"#utility.yul\":15918:15948   */\n      gt\n        /* \"#utility.yul\":15915:16032   */\n      iszero\n      tag_401\n      jumpi\n        /* \"#utility.yul\":15951:16030   */\n      tag_402\n      tag_218\n      jump\t// in\n    tag_402:\n        /* \"#utility.yul\":15915:16032   */\n    tag_401:\n        /* \"#utility.yul\":16056:16119   */\n      tag_403\n        /* \"#utility.yul\":16111:16118   */\n      dup13\n        /* \"#utility.yul\":16102:16108   */\n      dup3\n        /* \"#utility.yul\":16091:16100   */\n      dup14\n        /* \"#utility.yul\":16087:16109   */\n      add\n        /* \"#utility.yul\":16056:16119   */\n      tag_228\n      jump\t// in\n    tag_403:\n        /* \"#utility.yul\":16046:16119   */\n      swap9\n      pop\n        /* \"#utility.yul\":15841:16129   */\n      pop\n        /* \"#utility.yul\":16196:16198   */\n      0x40\n        /* \"#utility.yul\":16185:16194   */\n      dup11\n        /* \"#utility.yul\":16181:16199   */\n      add\n        /* \"#utility.yul\":16168:16200   */\n      calldataload\n        /* \"#utility.yul\":16227:16245   */\n      0xffffffffffffffff\n        /* \"#utility.yul\":16219:16225   */\n      dup2\n        /* \"#utility.yul\":16216:16246   */\n      gt\n        /* \"#utility.yul\":16213:16330   */\n      iszero\n      tag_404\n      jumpi\n        /* \"#utility.yul\":16249:16328   */\n      tag_405\n      tag_218\n      jump\t// in\n    tag_405:\n        /* \"#utility.yul\":16213:16330   */\n    tag_404:\n        /* \"#utility.yul\":16354:16417   */\n      tag_406\n        /* \"#utility.yul\":16409:16416   */\n      dup13\n        /* \"#utility.yul\":16400:16406   */\n      dup3\n        /* \"#utility.yul\":16389:16398   */\n      dup14\n        /* \"#utility.yul\":16385:16407   */\n      add\n        /* \"#utility.yul\":16354:16417   */\n      tag_228\n      jump\t// in\n    tag_406:\n        /* \"#utility.yul\":16344:16417   */\n      swap8\n      pop\n        /* \"#utility.yul\":16139:16427   */\n      pop\n        /* \"#utility.yul\":16494:16496   */\n      0x60\n        /* \"#utility.yul\":16483:16492   */\n      dup11\n        /* \"#utility.yul\":16479:16497   */\n      add\n        /* \"#utility.yul\":16466:16498   */\n      calldataload\n        /* \"#utility.yul\":16525:16543   */\n      0xffffffffffffffff\n        /* \"#utility.yul\":16517:16523   */\n      dup2\n        /* \"#utility.yul\":16514:16544   */\n      gt\n        /* \"#utility.yul\":16511:16628   */\n      iszero\n      tag_407\n      jumpi\n        /* \"#utility.yul\":16547:16626   */\n      tag_408\n      tag_218\n      jump\t// in\n    tag_408:\n        /* \"#utility.yul\":16511:16628   */\n    tag_407:\n        /* \"#utility.yul\":16652:16715   */\n      tag_409\n        /* \"#utility.yul\":16707:16714   */\n      dup13\n        /* \"#utility.yul\":16698:16704   */\n      dup3\n        /* \"#utility.yul\":16687:16696   */\n      dup14\n        /* \"#utility.yul\":16683:16705   */\n      add\n        /* \"#utility.yul\":16652:16715   */\n      tag_228\n      jump\t// in\n    tag_409:\n        /* \"#utility.yul\":16642:16715   */\n      swap7\n      pop\n        /* \"#utility.yul\":16437:16725   */\n      pop\n        /* \"#utility.yul\":16792:16795   */\n      0x80\n        /* \"#utility.yul\":16781:16790   */\n      dup11\n        /* \"#utility.yul\":16777:16796   */\n      add\n        /* \"#utility.yul\":16764:16797   */\n      calldataload\n        /* \"#utility.yul\":16824:16842   */\n      0xffffffffffffffff\n        /* \"#utility.yul\":16816:16822   */\n      dup2\n        /* \"#utility.yul\":16813:16843   */\n      gt\n        /* \"#utility.yul\":16810:16927   */\n      iszero\n      tag_410\n      jumpi\n        /* \"#utility.yul\":16846:16925   */\n      tag_411\n      tag_218\n      jump\t// in\n    tag_411:\n        /* \"#utility.yul\":16810:16927   */\n    tag_410:\n        /* \"#utility.yul\":16951:17014   */\n      tag_412\n        /* \"#utility.yul\":17006:17013   */\n      dup13\n        /* \"#utility.yul\":16997:17003   */\n      dup3\n        /* \"#utility.yul\":16986:16995   */\n      dup14\n        /* \"#utility.yul\":16982:17004   */\n      add\n        /* \"#utility.yul\":16951:17014   */\n      tag_228\n      jump\t// in\n    tag_412:\n        /* \"#utility.yul\":16941:17014   */\n      swap6\n      pop\n        /* \"#utility.yul\":16735:17024   */\n      pop\n        /* \"#utility.yul\":17063:17066   */\n      0xa0\n        /* \"#utility.yul\":17090:17143   */\n      tag_413\n        /* \"#utility.yul\":17135:17142   */\n      dup13\n        /* \"#utility.yul\":17126:17132   */\n      dup3\n        /* \"#utility.yul\":17115:17124   */\n      dup14\n        /* \"#utility.yul\":17111:17133   */\n      add\n        /* \"#utility.yul\":17090:17143   */\n      tag_244\n      jump\t// in\n    tag_413:\n        /* \"#utility.yul\":17080:17143   */\n      swap5\n      pop\n        /* \"#utility.yul\":17034:17153   */\n      pop\n        /* \"#utility.yul\":17220:17223   */\n      0xc0\n        /* \"#utility.yul\":17209:17218   */\n      dup11\n        /* \"#utility.yul\":17205:17224   */\n      add\n        /* \"#utility.yul\":17192:17225   */\n      calldataload\n        /* \"#utility.yul\":17252:17270   */\n      0xffffffffffffffff\n        /* \"#utility.yul\":17244:17250   */\n      dup2\n        /* \"#utility.yul\":17241:17271   */\n      gt\n        /* \"#utility.yul\":17238:17355   */\n      iszero\n      tag_414\n      jumpi\n        /* \"#utility.yul\":17274:17353   */\n      tag_415\n      tag_218\n      jump\t// in\n    tag_415:\n        /* \"#utility.yul\":17238:17355   */\n    tag_414:\n        /* \"#utility.yul\":17379:17442   */\n      tag_416\n        /* \"#utility.yul\":17434:17441   */\n      dup13\n        /* \"#utility.yul\":17425:17431   */\n      dup3\n        /* \"#utility.yul\":17414:17423   */\n      dup14\n        /* \"#utility.yul\":17410:17432   */\n      add\n        /* \"#utility.yul\":17379:17442   */\n      tag_228\n      jump\t// in\n    tag_416:\n        /* \"#utility.yul\":17369:17442   */\n      swap4\n      pop\n        /* \"#utility.yul\":17163:17452   */\n      pop\n        /* \"#utility.yul\":17519:17522   */\n      0xe0\n        /* \"#utility.yul\":17508:17517   */\n      dup11\n        /* \"#utility.yul\":17504:17523   */\n      add\n        /* \"#utility.yul\":17491:17524   */\n      calldataload\n        /* \"#utility.yul\":17551:17569   */\n      0xffffffffffffffff\n        /* \"#utility.yul\":17543:17549   */\n      dup2\n        /* \"#utility.yul\":17540:17570   */\n      gt\n        /* \"#utility.yul\":17537:17654   */\n      iszero\n      tag_417\n      jumpi\n        /* \"#utility.yul\":17573:17652   */\n      tag_418\n      tag_218\n      jump\t// in\n    tag_418:\n        /* \"#utility.yul\":17537:17654   */\n    tag_417:\n        /* \"#utility.yul\":17678:17741   */\n      tag_419\n        /* \"#utility.yul\":17733:17740   */\n      dup13\n        /* \"#utility.yul\":17724:17730   */\n      dup3\n        /* \"#utility.yul\":17713:17722   */\n      dup14\n        /* \"#utility.yul\":17709:17731   */\n      add\n        /* \"#utility.yul\":17678:17741   */\n      tag_228\n      jump\t// in\n    tag_419:\n        /* \"#utility.yul\":17668:17741   */\n      swap3\n      pop\n        /* \"#utility.yul\":17462:17751   */\n      pop\n        /* \"#utility.yul\":17818:17821   */\n      0x0100\n        /* \"#utility.yul\":17807:17816   */\n      dup11\n        /* \"#utility.yul\":17803:17822   */\n      add\n        /* \"#utility.yul\":17790:17823   */\n      calldataload\n        /* \"#utility.yul\":17850:17868   */\n      0xffffffffffffffff\n        /* \"#utility.yul\":17842:17848   */\n      dup2\n        /* \"#utility.yul\":17839:17869   */\n      gt\n        /* \"#utility.yul\":17836:17953   */\n      iszero\n      tag_420\n      jumpi\n        /* \"#utility.yul\":17872:17951   */\n      tag_421\n      tag_218\n      jump\t// in\n    tag_421:\n        /* \"#utility.yul\":17836:17953   */\n    tag_420:\n        /* \"#utility.yul\":17977:18040   */\n      tag_422\n        /* \"#utility.yul\":18032:18039   */\n      dup13\n        /* \"#utility.yul\":18023:18029   */\n      dup3\n        /* \"#utility.yul\":18012:18021   */\n      dup14\n        /* \"#utility.yul\":18008:18030   */\n      add\n        /* \"#utility.yul\":17977:18040   */\n      tag_228\n      jump\t// in\n    tag_422:\n        /* \"#utility.yul\":17967:18040   */\n      swap2\n      pop\n        /* \"#utility.yul\":17761:18050   */\n      pop\n        /* \"#utility.yul\":15122:18057   */\n      swap3\n      swap6\n      swap9\n      pop\n      swap3\n      swap6\n      swap9\n      pop\n      swap3\n      swap6\n      swap9\n      jump\t// out\n        /* \"#utility.yul\":18063:18211   */\n    tag_248:\n        /* \"#utility.yul\":18165:18176   */\n      0x00\n        /* \"#utility.yul\":18202:18205   */\n      dup2\n        /* \"#utility.yul\":18187:18205   */\n      swap1\n      pop\n        /* \"#utility.yul\":18063:18211   */\n      swap3\n      swap2\n      pop\n      pop\n      jump\t// out\n        /* \"#utility.yul\":18217:18594   */\n    tag_249:\n        /* \"#utility.yul\":18323:18326   */\n      0x00\n        /* \"#utility.yul\":18351:18390   */\n      tag_425\n        /* \"#utility.yul\":18384:18389   */\n      dup3\n        /* \"#utility.yul\":18351:18390   */\n      tag_229\n      jump\t// in\n    tag_425:\n        /* \"#utility.yul\":18406:18495   */\n      tag_426\n        /* \"#utility.yul\":18488:18494   */\n      dup2\n        /* \"#utility.yul\":18483:18486   */\n      dup6\n        /* \"#utility.yul\":18406:18495   */\n      tag_248\n      jump\t// in\n    tag_426:\n        /* \"#utility.yul\":18399:18495   */\n      swap4\n      pop\n        /* \"#utility.yul\":18504:18556   */\n      tag_427\n        /* \"#utility.yul\":18549:18555   */\n      dup2\n        /* \"#utility.yul\":18544:18547   */\n      dup6\n        /* \"#utility.yul\":18537:18541   */\n      0x20\n        /* \"#utility.yul\":18530:18535   */\n      dup7\n        /* \"#utility.yul\":18526:18542   */\n      add\n        /* \"#utility.yul\":18504:18556   */\n      tag_231\n      jump\t// in\n    tag_427:\n        /* \"#utility.yul\":18581:18587   */\n      dup1\n        /* \"#utility.yul\":18576:18579   */\n      dup5\n        /* \"#utility.yul\":18572:18588   */\n      add\n        /* \"#utility.yul\":18565:18588   */\n      swap2\n      pop\n        /* \"#utility.yul\":18327:18594   */\n      pop\n        /* \"#utility.yul\":18217:18594   */\n      swap3\n      swap2\n      pop\n      pop\n      jump\t// out\n        /* \"#utility.yul\":18600:18875   */\n    tag_46:\n        /* \"#utility.yul\":18732:18735   */\n      0x00\n        /* \"#utility.yul\":18754:18849   */\n      tag_429\n        /* \"#utility.yul\":18845:18848   */\n      dup3\n        /* \"#utility.yul\":18836:18842   */\n      dup5\n        /* \"#utility.yul\":18754:18849   */\n      tag_249\n      jump\t// in\n    tag_429:\n        /* \"#utility.yul\":18747:18849   */\n      swap2\n      pop\n        /* \"#utility.yul\":18866:18869   */\n      dup2\n        /* \"#utility.yul\":18859:18869   */\n      swap1\n      pop\n        /* \"#utility.yul\":18600:18875   */\n      swap3\n      swap2\n      pop\n      pop\n      jump\t// out\n        /* \"#utility.yul\":18881:19061   */\n    tag_250:\n        /* \"#utility.yul\":18929:19006   */\n      0x4e487b7100000000000000000000000000000000000000000000000000000000\n        /* \"#utility.yul\":18926:18927   */\n      0x00\n        /* \"#utility.yul\":18919:19007   */\n      mstore\n        /* \"#utility.yul\":19026:19030   */\n      0x22\n        /* \"#utility.yul\":19023:19024   */\n      0x04\n        /* \"#utility.yul\":19016:19031   */\n      mstore\n        /* \"#utility.yul\":19050:19054   */\n      0x24\n        /* \"#utility.yul\":19047:19048   */\n      0x00\n        /* \"#utility.yul\":19040:19055   */\n      revert\n        /* \"#utility.yul\":19067:19387   */\n    tag_48:\n        /* \"#utility.yul\":19111:19117   */\n      0x00\n        /* \"#utility.yul\":19148:19149   */\n      0x02\n        /* \"#utility.yul\":19142:19146   */\n      dup3\n        /* \"#utility.yul\":19138:19150   */\n      div\n        /* \"#utility.yul\":19128:19150   */\n      swap1\n      pop\n        /* \"#utility.yul\":19195:19196   */\n      0x01\n        /* \"#utility.yul\":19189:19193   */\n      dup3\n        /* \"#utility.yul\":19185:19197   */\n      and\n        /* \"#utility.yul\":19216:19234   */\n      dup1\n        /* \"#utility.yul\":19206:19287   */\n      tag_432\n      jumpi\n        /* \"#utility.yul\":19272:19276   */\n      0x7f\n        /* \"#utility.yul\":19264:19270   */\n      dup3\n        /* \"#utility.yul\":19260:19277   */\n      and\n        /* \"#utility.yul\":19250:19277   */\n      swap2\n      pop\n        /* \"#utility.yul\":19206:19287   */\n    tag_432:\n        /* \"#utility.yul\":19334:19336   */\n      0x20\n        /* \"#utility.yul\":19326:19332   */\n      dup3\n        /* \"#utility.yul\":19323:19337   */\n      lt\n        /* \"#utility.yul\":19303:19321   */\n      dup2\n        /* \"#utility.yul\":19300:19338   */\n      eq\n        /* \"#utility.yul\":19297:19381   */\n      iszero\n      tag_433\n      jumpi\n        /* \"#utility.yul\":19353:19371   */\n      tag_434\n      tag_250\n      jump\t// in\n    tag_434:\n        /* \"#utility.yul\":19297:19381   */\n    tag_433:\n        /* \"#utility.yul\":19118:19387   */\n      pop\n        /* \"#utility.yul\":19067:19387   */\n      swap2\n      swap1\n      pop\n      jump\t// out\n        /* \"#utility.yul\":19393:19573   */\n    tag_251:\n        /* \"#utility.yul\":19441:19518   */\n      0x4e487b7100000000000000000000000000000000000000000000000000000000\n        /* \"#utility.yul\":19438:19439   */\n      0x00\n        /* \"#utility.yul\":19431:19519   */\n      mstore\n        /* \"#utility.yul\":19538:19542   */\n      0x11\n        /* \"#utility.yul\":19535:19536   */\n      0x04\n        /* \"#utility.yul\":19528:19543   */\n      mstore\n        /* \"#utility.yul\":19562:19566   */\n      0x24\n        /* \"#utility.yul\":19559:19560   */\n      0x00\n        /* \"#utility.yul\":19552:19567   */\n      revert\n        /* \"#utility.yul\":19579:19812   */\n    tag_161:\n        /* \"#utility.yul\":19618:19621   */\n      0x00\n        /* \"#utility.yul\":19641:19665   */\n      tag_437\n        /* \"#utility.yul\":19659:19664   */\n      dup3\n        /* \"#utility.yul\":19641:19665   */\n      tag_236\n      jump\t// in\n    tag_437:\n        /* \"#utility.yul\":19632:19665   */\n      swap2\n      pop\n        /* \"#utility.yul\":19687:19753   */\n      0xffffffffffffffffffffffffffffffffffffffffffffffffffffffffffffffff\n        /* \"#utility.yul\":19680:19685   */\n      dup3\n        /* \"#utility.yul\":19677:19754   */\n      eq\n        /* \"#utility.yul\":19674:19777   */\n      iszero\n      tag_438\n      jumpi\n        /* \"#utility.yul\":19757:19775   */\n      tag_439\n      tag_251\n      jump\t// in\n    tag_439:\n        /* \"#utility.yul\":19674:19777   */\n    tag_438:\n        /* \"#utility.yul\":19804:19805   */\n      0x01\n        /* \"#utility.yul\":19797:19802   */\n      dup3\n        /* \"#utility.yul\":19793:19806   */\n      add\n        /* \"#utility.yul\":19786:19806   */\n      swap1\n      pop\n        /* \"#utility.yul\":19579:19812   */\n      swap2\n      swap1\n      pop\n      jump\t// out\n\n    auxdata: 0xa264697066735822122076ddefda8926e645d096fa82fd43af0cc8d7d87930fdcc1e191c898f2ad0d20b64736f6c634300080a0033\n}\n",
        "bytecode": {
            "linkReferences": {},
            "object": "6080604052600060025534801561001557600080fd5b50611f4e806100256000396000f3fe608060405234801561001057600080fd5b506004361061007d5760003560e01c8063c7dcc89b1161005b578063c7dcc89b14610107578063d8493fa814610125578063e59c28701461015d578063f7d01c7c146101795761007d565b80630581e74c146100825780634b079ff8146100b75780637f804547146100eb575b600080fd5b61009c60048036038101906100979190611632565b6101b1565b6040516100ae969594939291906117cb565b60405180910390f35b6100d160048036038101906100cc9190611632565b610518565b6040516100e2959493929190611856565b60405180910390f35b610105600480360381019061010091906119c0565b61080c565b005b61010f610917565b60405161011c9190611b35565b60405180910390f35b61013f600480360381019061013a9190611b50565b61091d565b60405161015499989796959493929190611b7d565b60405180910390f35b61017760048036038101906101729190611c42565b610de7565b005b610193600480360381019061018e9190611b50565b610f5a565b6040516101a899989796959493929190611b7d565b60405180910390f35b60608060608060608060006001886040516101cc9190611e28565b9081526020016040518091039020905080600001816001018260020183600301846004018560050185805461020090611e6e565b80601f016020809104026020016040519081016040528092919081815260200182805461022c90611e6e565b80156102795780601f1061024e57610100808354040283529160200191610279565b820191906000526020600020905b81548152906001019060200180831161025c57829003601f168201915b5050505050955084805461028c90611e6e565b80601f01602080910402602001604051908101604052809291908181526020018280546102b890611e6e565b80156103055780601f106102da57610100808354040283529160200191610305565b820191906000526020600020905b8154815290600101906020018083116102e857829003601f168201915b5050505050945083805461031890611e6e565b80601f016020809104026020016040519081016040528092919081815260200182805461034490611e6e565b80156103915780601f1061036657610100808354040283529160200191610391565b820191906000526020600020905b81548152906001019060200180831161037457829003601f168201915b505050505093508280546103a490611e6e565b80601f01602080910402602001604051908101604052809291908181526020018280546103d090611e6e565b801561041d5780601f106103f25761010080835404028352916020019161041d565b820191906000526020600020905b81548152906001019060200180831161040057829003601f168201915b5050505050925081805461043090611e6e565b80601f016020809104026020016040519081016040528092919081815260200182805461045c90611e6e565b80156104a95780601f1061047e576101008083540402835291602001916104a9565b820191906000526020600020905b81548152906001019060200180831161048c57829003601f168201915b50505050509150808054806020026020016040519081016040528092919081815260200182805480156104fb57602002820191906000526020600020905b8154815260200190600101908083116104e7575b505050505090509650965096509650965096505091939550919395565b60018180516020810182018051848252602083016020850120818352809550505050505060009150905080600001805461055190611e6e565b80601f016020809104026020016040519081016040528092919081815260200182805461057d90611e6e565b80156105ca5780601f1061059f576101008083540402835291602001916105ca565b820191906000526020600020905b8154815290600101906020018083116105ad57829003601f168201915b5050505050908060010180546105df90611e6e565b80601f016020809104026020016040519081016040528092919081815260200182805461060b90611e6e565b80156106585780601f1061062d57610100808354040283529160200191610658565b820191906000526020600020905b81548152906001019060200180831161063b57829003601f168201915b50505050509080600201805461066d90611e6e565b80601f016020809104026020016040519081016040528092919081815260200182805461069990611e6e565b80156106e65780601f106106bb576101008083540402835291602001916106e6565b820191906000526020600020905b8154815290600101906020018083116106c957829003601f168201915b5050505050908060030180546106fb90611e6e565b80601f016020809104026020016040519081016040528092919081815260200182805461072790611e6e565b80156107745780601f1061074957610100808354040283529160200191610774565b820191906000526020600020905b81548152906001019060200180831161075757829003601f168201915b50505050509080600401805461078990611e6e565b80601f01602080910402602001604051908101604052809291908181526020018280546107b590611e6e565b80156108025780601f106107d757610100808354040283529160200191610802565b820191906000526020600020905b8154815290600101906020018083116107e557829003601f168201915b5050505050905085565b60006040518060c001604052808881526020018781526020018681526020018581526020018481526020018381525090508060018960405161084e9190611e28565b908152602001604051809103902060008201518160000190805190602001906108789291906113e8565b5060208201518160010190805190602001906108959291906113e8565b5060408201518160020190805190602001906108b29291906113e8565b5060608201518160030190805190602001906108cf9291906113e8565b5060808201518160040190805190602001906108ec9291906113e8565b5060a082015181600501908051906020019061090992919061146e565b509050505050505050505050565b60025481565b60608060608060606000606080606060008060008c815260200190815260200160002090508060000181600101826002018360030184600401856005015486600601876007018860080188805461097390611e6e565b80601f016020809104026020016040519081016040528092919081815260200182805461099f90611e6e565b80156109ec5780601f106109c1576101008083540402835291602001916109ec565b820191906000526020600020905b8154815290600101906020018083116109cf57829003601f168201915b505050505098508780546109ff90611e6e565b80601f0160208091040260200160405190810160405280929190818152602001828054610a2b90611e6e565b8015610a785780601f10610a4d57610100808354040283529160200191610a78565b820191906000526020600020905b815481529060010190602001808311610a5b57829003601f168201915b50505050509750868054610a8b90611e6e565b80601f0160208091040260200160405190810160405280929190818152602001828054610ab790611e6e565b8015610b045780601f10610ad957610100808354040283529160200191610b04565b820191906000526020600020905b815481529060010190602001808311610ae757829003601f168201915b50505050509650858054610b1790611e6e565b80601f0160208091040260200160405190810160405280929190818152602001828054610b4390611e6e565b8015610b905780601f10610b6557610100808354040283529160200191610b90565b820191906000526020600020905b815481529060010190602001808311610b7357829003601f168201915b50505050509550848054610ba390611e6e565b80601f0160208091040260200160405190810160405280929190818152602001828054610bcf90611e6e565b8015610c1c5780601f10610bf157610100808354040283529160200191610c1c565b820191906000526020600020905b815481529060010190602001808311610bff57829003601f168201915b50505050509450828054610c2f90611e6e565b80601f0160208091040260200160405190810160405280929190818152602001828054610c5b90611e6e565b8015610ca85780601f10610c7d57610100808354040283529160200191610ca8565b820191906000526020600020905b815481529060010190602001808311610c8b57829003601f168201915b50505050509250818054610cbb90611e6e565b80601f0160208091040260200160405190810160405280929190818152602001828054610ce790611e6e565b8015610d345780601f10610d0957610100808354040283529160200191610d34565b820191906000526020600020905b815481529060010190602001808311610d1757829003601f168201915b50505050509150808054610d4790611e6e565b80601f0160208091040260200160405190810160405280929190818152602001828054610d7390611e6e565b8015610dc05780601f10610d9557610100808354040283529160200191610dc0565b820191906000526020600020905b815481529060010190602001808311610da357829003601f168201915b50505050509050995099509950995099509950995099509950509193959799909294969850565b60006040518061012001604052808b81526020018a81526020018981526020018881526020018781526020018681526020018581526020018481526020018381525090508060008060025481526020019081526020016000206000820151816000019080519060200190610e5c9291906113e8565b506020820151816001019080519060200190610e799291906113e8565b506040820151816002019080519060200190610e969291906113e8565b506060820151816003019080519060200190610eb39291906113e8565b506080820151816004019080519060200190610ed09291906113e8565b5060a0820151816005015560c0820151816006019080519060200190610ef79291906113e8565b5060e0820151816007019080519060200190610f149291906113e8565b50610100820151816008019080519060200190610f329291906113e8565b5090505060026000815480929190610f4990611ecf565b919050555050505050505050505050565b6000602052806000526040600020600091509050806000018054610f7d90611e6e565b80601f0160208091040260200160405190810160405280929190818152602001828054610fa990611e6e565b8015610ff65780601f10610fcb57610100808354040283529160200191610ff6565b820191906000526020600020905b815481529060010190602001808311610fd957829003601f168201915b50505050509080600101805461100b90611e6e565b80601f016020809104026020016040519081016040528092919081815260200182805461103790611e6e565b80156110845780601f1061105957610100808354040283529160200191611084565b820191906000526020600020905b81548152906001019060200180831161106757829003601f168201915b50505050509080600201805461109990611e6e565b80601f01602080910402602001604051908101604052809291908181526020018280546110c590611e6e565b80156111125780601f106110e757610100808354040283529160200191611112565b820191906000526020600020905b8154815290600101906020018083116110f557829003601f168201915b50505050509080600301805461112790611e6e565b80601f016020809104026020016040519081016040528092919081815260200182805461115390611e6e565b80156111a05780601f10611175576101008083540402835291602001916111a0565b820191906000526020600020905b81548152906001019060200180831161118357829003601f168201915b5050505050908060040180546111b590611e6e565b80601f01602080910402602001604051908101604052809291908181526020018280546111e190611e6e565b801561122e5780601f106112035761010080835404028352916020019161122e565b820191906000526020600020905b81548152906001019060200180831161121157829003601f168201915b50505050509080600501549080600601805461124990611e6e565b80601f016020809104026020016040519081016040528092919081815260200182805461127590611e6e565b80156112c25780601f10611297576101008083540402835291602001916112c2565b820191906000526020600020905b8154815290600101906020018083116112a557829003601f168201915b5050505050908060070180546112d790611e6e565b80601f016020809104026020016040519081016040528092919081815260200182805461130390611e6e565b80156113505780601f1061132557610100808354040283529160200191611350565b820191906000526020600020905b81548152906001019060200180831161133357829003601f168201915b50505050509080600801805461136590611e6e565b80601f016020809104026020016040519081016040528092919081815260200182805461139190611e6e565b80156113de5780601f106113b3576101008083540402835291602001916113de565b820191906000526020600020905b8154815290600101906020018083116113c157829003601f168201915b5050505050905089565b8280546113f490611e6e565b90600052602060002090601f016020900481019282611416576000855561145d565b82601f1061142f57805160ff191683800117855561145d565b8280016001018555821561145d579182015b8281111561145c578251825591602001919060010190611441565b5b50905061146a91906114bb565b5090565b8280548282559060005260206000209081019282156114aa579160200282015b828111156114a957825182559160200191906001019061148e565b5b5090506114b791906114bb565b5090565b5b808211156114d45760008160009055506001016114bc565b5090565b6000604051905090565b600080fd5b600080fd5b600080fd5b600080fd5b6000601f19601f8301169050919050565b7f4e487b7100000000000000000000000000000000000000000000000000000000600052604160045260246000fd5b61153f826114f6565b810181811067ffffffffffffffff8211171561155e5761155d611507565b5b80604052505050565b60006115716114d8565b905061157d8282611536565b919050565b600067ffffffffffffffff82111561159d5761159c611507565b5b6115a6826114f6565b9050602081019050919050565b82818337600083830152505050565b60006115d56115d084611582565b611567565b9050828152602081018484840111156115f1576115f06114f1565b5b6115fc8482856115b3565b509392505050565b600082601f830112611619576116186114ec565b5b81356116298482602086016115c2565b91505092915050565b600060208284031215611648576116476114e2565b5b600082013567ffffffffffffffff811115611666576116656114e7565b5b61167284828501611604565b91505092915050565b600081519050919050565b600082825260208201905092915050565b60005b838110156116b557808201518184015260208101905061169a565b838111156116c4576000848401525b50505050565b60006116d58261167b565b6116df8185611686565b93506116ef818560208601611697565b6116f8816114f6565b840191505092915050565b600081519050919050565b600082825260208201905092915050565b6000819050602082019050919050565b6000819050919050565b6117428161172f565b82525050565b60006117548383611739565b60208301905092915050565b6000602082019050919050565b600061177882611703565b611782818561170e565b935061178d8361171f565b8060005b838110156117be5781516117a58882611748565b97506117b083611760565b925050600181019050611791565b5085935050505092915050565b600060c08201905081810360008301526117e581896116ca565b905081810360208301526117f981886116ca565b9050818103604083015261180d81876116ca565b9050818103606083015261182181866116ca565b9050818103608083015261183581856116ca565b905081810360a0830152611849818461176d565b9050979650505050505050565b600060a082019050818103600083015261187081886116ca565b9050818103602083015261188481876116ca565b9050818103604083015261189881866116ca565b905081810360608301526118ac81856116ca565b905081810360808301526118c081846116ca565b90509695505050505050565b600067ffffffffffffffff8211156118e7576118e6611507565b5b602082029050602081019050919050565b600080fd5b6119068161172f565b811461191157600080fd5b50565b600081359050611923816118fd565b92915050565b600061193c611937846118cc565b611567565b9050808382526020820190506020840283018581111561195f5761195e6118f8565b5b835b8181101561198857806119748882611914565b845260208401935050602081019050611961565b5050509392505050565b600082601f8301126119a7576119a66114ec565b5b81356119b7848260208601611929565b91505092915050565b600080600080600080600060e0888a0312156119df576119de6114e2565b5b600088013567ffffffffffffffff8111156119fd576119fc6114e7565b5b611a098a828b01611604565b975050602088013567ffffffffffffffff811115611a2a57611a296114e7565b5b611a368a828b01611604565b965050604088013567ffffffffffffffff811115611a5757611a566114e7565b5b611a638a828b01611604565b955050606088013567ffffffffffffffff811115611a8457611a836114e7565b5b611a908a828b01611604565b945050608088013567ffffffffffffffff811115611ab157611ab06114e7565b5b611abd8a828b01611604565b93505060a088013567ffffffffffffffff811115611ade57611add6114e7565b5b611aea8a828b01611604565b92505060c088013567ffffffffffffffff811115611b0b57611b0a6114e7565b5b611b178a828b01611992565b91505092959891949750929550565b611b2f8161172f565b82525050565b6000602082019050611b4a6000830184611b26565b92915050565b600060208284031215611b6657611b656114e2565b5b6000611b7484828501611914565b91505092915050565b6000610120820190508181036000830152611b98818c6116ca565b90508181036020830152611bac818b6116ca565b90508181036040830152611bc0818a6116ca565b90508181036060830152611bd481896116ca565b90508181036080830152611be881886116ca565b9050611bf760a0830187611b26565b81810360c0830152611c0981866116ca565b905081810360e0830152611c1d81856116ca565b9050818103610100830152611c3281846116ca565b90509a9950505050505050505050565b60008060008060008060008060006101208a8c031215611c6557611c646114e2565b5b60008a013567ffffffffffffffff811115611c8357611c826114e7565b5b611c8f8c828d01611604565b99505060208a013567ffffffffffffffff811115611cb057611caf6114e7565b5b611cbc8c828d01611604565b98505060408a013567ffffffffffffffff811115611cdd57611cdc6114e7565b5b611ce98c828d01611604565b97505060608a013567ffffffffffffffff811115611d0a57611d096114e7565b5b611d168c828d01611604565b96505060808a013567ffffffffffffffff811115611d3757611d366114e7565b5b611d438c828d01611604565b95505060a0611d548c828d01611914565b94505060c08a013567ffffffffffffffff811115611d7557611d746114e7565b5b611d818c828d01611604565b93505060e08a013567ffffffffffffffff811115611da257611da16114e7565b5b611dae8c828d01611604565b9250506101008a013567ffffffffffffffff811115611dd057611dcf6114e7565b5b611ddc8c828d01611604565b9150509295985092959850929598565b600081905092915050565b6000611e028261167b565b611e0c8185611dec565b9350611e1c818560208601611697565b80840191505092915050565b6000611e348284611df7565b915081905092915050565b7f4e487b7100000000000000000000000000000000000000000000000000000000600052602260045260246000fd5b60006002820490506001821680611e8657607f821691505b60208210811415611e9a57611e99611e3f565b5b50919050565b7f4e487b7100000000000000000000000000000000000000000000000000000000600052601160045260246000fd5b6000611eda8261172f565b91507fffffffffffffffffffffffffffffffffffffffffffffffffffffffffffffffff821415611f0d57611f0c611ea0565b5b60018201905091905056fea264697066735822122076ddefda8926e645d096fa82fd43af0cc8d7d87930fdcc1e191c898f2ad0d20b64736f6c634300080a0033",
            "opcodes": "PUSH1 0x80 PUSH1 0x40 MSTORE PUSH1 0x0 PUSH1 0x2 SSTORE CALLVALUE DUP1 ISZERO PUSH2 0x15 JUMPI PUSH1 0x0 DUP1 REVERT JUMPDEST POP PUSH2 0x1F4E DUP1 PUSH2 0x25 PUSH1 0x0 CODECOPY PUSH1 0x0 RETURN INVALID PUSH1 0x80 PUSH1 0x40 MSTORE CALLVALUE DUP1 ISZERO PUSH2 0x10 JUMPI PUSH1 0x0 DUP1 REVERT JUMPDEST POP PUSH1 0x4 CALLDATASIZE LT PUSH2 0x7D JUMPI PUSH1 0x0 CALLDATALOAD PUSH1 0xE0 SHR DUP1 PUSH4 0xC7DCC89B GT PUSH2 0x5B JUMPI DUP1 PUSH4 0xC7DCC89B EQ PUSH2 0x107 JUMPI DUP1 PUSH4 0xD8493FA8 EQ PUSH2 0x125 JUMPI DUP1 PUSH4 0xE59C2870 EQ PUSH2 0x15D JUMPI DUP1 PUSH4 0xF7D01C7C EQ PUSH2 0x179 JUMPI PUSH2 0x7D JUMP JUMPDEST DUP1 PUSH4 0x581E74C EQ PUSH2 0x82 JUMPI DUP1 PUSH4 0x4B079FF8 EQ PUSH2 0xB7 JUMPI DUP1 PUSH4 0x7F804547 EQ PUSH2 0xEB JUMPI JUMPDEST PUSH1 0x0 DUP1 REVERT JUMPDEST PUSH2 0x9C PUSH1 0x4 DUP1 CALLDATASIZE SUB DUP2 ADD SWAP1 PUSH2 0x97 SWAP2 SWAP1 PUSH2 0x1632 JUMP JUMPDEST PUSH2 0x1B1 JUMP JUMPDEST PUSH1 0x40 MLOAD PUSH2 0xAE SWAP7 SWAP6 SWAP5 SWAP4 SWAP3 SWAP2 SWAP1 PUSH2 0x17CB JUMP JUMPDEST PUSH1 0x40 MLOAD DUP1 SWAP2 SUB SWAP1 RETURN JUMPDEST PUSH2 0xD1 PUSH1 0x4 DUP1 CALLDATASIZE SUB DUP2 ADD SWAP1 PUSH2 0xCC SWAP2 SWAP1 PUSH2 0x1632 JUMP JUMPDEST PUSH2 0x518 JUMP JUMPDEST PUSH1 0x40 MLOAD PUSH2 0xE2 SWAP6 SWAP5 SWAP4 SWAP3 SWAP2 SWAP1 PUSH2 0x1856 JUMP JUMPDEST PUSH1 0x40 MLOAD DUP1 SWAP2 SUB SWAP1 RETURN JUMPDEST PUSH2 0x105 PUSH1 0x4 DUP1 CALLDATASIZE SUB DUP2 ADD SWAP1 PUSH2 0x100 SWAP2 SWAP1 PUSH2 0x19C0 JUMP JUMPDEST PUSH2 0x80C JUMP JUMPDEST STOP JUMPDEST PUSH2 0x10F PUSH2 0x917 JUMP JUMPDEST PUSH1 0x40 MLOAD PUSH2 0x11C SWAP2 SWAP1 PUSH2 0x1B35 JUMP JUMPDEST PUSH1 0x40 MLOAD DUP1 SWAP2 SUB SWAP1 RETURN JUMPDEST PUSH2 0x13F PUSH1 0x4 DUP1 CALLDATASIZE SUB DUP2 ADD SWAP1 PUSH2 0x13A SWAP2 SWAP1 PUSH2 0x1B50 JUMP JUMPDEST PUSH2 0x91D JUMP JUMPDEST PUSH1 0x40 MLOAD PUSH2 0x154 SWAP10 SWAP9 SWAP8 SWAP7 SWAP6 SWAP5 SWAP4 SWAP3 SWAP2 SWAP1 PUSH2 0x1B7D JUMP JUMPDEST PUSH1 0x40 MLOAD DUP1 SWAP2 SUB SWAP1 RETURN JUMPDEST PUSH2 0x177 PUSH1 0x4 DUP1 CALLDATASIZE SUB DUP2 ADD SWAP1 PUSH2 0x172 SWAP2 SWAP1 PUSH2 0x1C42 JUMP JUMPDEST PUSH2 0xDE7 JUMP JUMPDEST STOP JUMPDEST PUSH2 0x193 PUSH1 0x4 DUP1 CALLDATASIZE SUB DUP2 ADD SWAP1 PUSH2 0x18E SWAP2 SWAP1 PUSH2 0x1B50 JUMP JUMPDEST PUSH2 0xF5A JUMP JUMPDEST PUSH1 0x40 MLOAD PUSH2 0x1A8 SWAP10 SWAP9 SWAP8 SWAP7 SWAP6 SWAP5 SWAP4 SWAP3 SWAP2 SWAP1 PUSH2 0x1B7D JUMP JUMPDEST PUSH1 0x40 MLOAD DUP1 SWAP2 SUB SWAP1 RETURN JUMPDEST PUSH1 0x60 DUP1 PUSH1 0x60 DUP1 PUSH1 0x60 DUP1 PUSH1 0x0 PUSH1 0x1 DUP9 PUSH1 0x40 MLOAD PUSH2 0x1CC SWAP2 SWAP1 PUSH2 0x1E28 JUMP JUMPDEST SWAP1 DUP2 MSTORE PUSH1 0x20 ADD PUSH1 0x40 MLOAD DUP1 SWAP2 SUB SWAP1 KECCAK256 SWAP1 POP DUP1 PUSH1 0x0 ADD DUP2 PUSH1 0x1 ADD DUP3 PUSH1 0x2 ADD DUP4 PUSH1 0x3 ADD DUP5 PUSH1 0x4 ADD DUP6 PUSH1 0x5 ADD DUP6 DUP1 SLOAD PUSH2 0x200 SWAP1 PUSH2 0x1E6E JUMP JUMPDEST DUP1 PUSH1 0x1F ADD PUSH1 0x20 DUP1 SWAP2 DIV MUL PUSH1 0x20 ADD PUSH1 0x40 MLOAD SWAP1 DUP2 ADD PUSH1 0x40 MSTORE DUP1 SWAP3 SWAP2 SWAP1 DUP2 DUP2 MSTORE PUSH1 0x20 ADD DUP3 DUP1 SLOAD PUSH2 0x22C SWAP1 PUSH2 0x1E6E JUMP JUMPDEST DUP1 ISZERO PUSH2 0x279 JUMPI DUP1 PUSH1 0x1F LT PUSH2 0x24E JUMPI PUSH2 0x100 DUP1 DUP4 SLOAD DIV MUL DUP4 MSTORE SWAP2 PUSH1 0x20 ADD SWAP2 PUSH2 0x279 JUMP JUMPDEST DUP3 ADD SWAP2 SWAP1 PUSH1 0x0 MSTORE PUSH1 0x20 PUSH1 0x0 KECCAK256 SWAP1 JUMPDEST DUP2 SLOAD DUP2 MSTORE SWAP1 PUSH1 0x1 ADD SWAP1 PUSH1 0x20 ADD DUP1 DUP4 GT PUSH2 0x25C JUMPI DUP3 SWAP1 SUB PUSH1 0x1F AND DUP3 ADD SWAP2 JUMPDEST POP POP POP POP POP SWAP6 POP DUP5 DUP1 SLOAD PUSH2 0x28C SWAP1 PUSH2 0x1E6E JUMP JUMPDEST DUP1 PUSH1 0x1F ADD PUSH1 0x20 DUP1 SWAP2 DIV MUL PUSH1 0x20 ADD PUSH1 0x40 MLOAD SWAP1 DUP2 ADD PUSH1 0x40 MSTORE DUP1 SWAP3 SWAP2 SWAP1 DUP2 DUP2 MSTORE PUSH1 0x20 ADD DUP3 DUP1 SLOAD PUSH2 0x2B8 SWAP1 PUSH2 0x1E6E JUMP JUMPDEST DUP1 ISZERO PUSH2 0x305 JUMPI DUP1 PUSH1 0x1F LT PUSH2 0x2DA JUMPI PUSH2 0x100 DUP1 DUP4 SLOAD DIV MUL DUP4 MSTORE SWAP2 PUSH1 0x20 ADD SWAP2 PUSH2 0x305 JUMP JUMPDEST DUP3 ADD SWAP2 SWAP1 PUSH1 0x0 MSTORE PUSH1 0x20 PUSH1 0x0 KECCAK256 SWAP1 JUMPDEST DUP2 SLOAD DUP2 MSTORE SWAP1 PUSH1 0x1 ADD SWAP1 PUSH1 0x20 ADD DUP1 DUP4 GT PUSH2 0x2E8 JUMPI DUP3 SWAP1 SUB PUSH1 0x1F AND DUP3 ADD SWAP2 JUMPDEST POP POP POP POP POP SWAP5 POP DUP4 DUP1 SLOAD PUSH2 0x318 SWAP1 PUSH2 0x1E6E JUMP JUMPDEST DUP1 PUSH1 0x1F ADD PUSH1 0x20 DUP1 SWAP2 DIV MUL PUSH1 0x20 ADD PUSH1 0x40 MLOAD SWAP1 DUP2 ADD PUSH1 0x40 MSTORE DUP1 SWAP3 SWAP2 SWAP1 DUP2 DUP2 MSTORE PUSH1 0x20 ADD DUP3 DUP1 SLOAD PUSH2 0x344 SWAP1 PUSH2 0x1E6E JUMP JUMPDEST DUP1 ISZERO PUSH2 0x391 JUMPI DUP1 PUSH1 0x1F LT PUSH2 0x366 JUMPI PUSH2 0x100 DUP1 DUP4 SLOAD DIV MUL DUP4 MSTORE SWAP2 PUSH1 0x20 ADD SWAP2 PUSH2 0x391 JUMP JUMPDEST DUP3 ADD SWAP2 SWAP1 PUSH1 0x0 MSTORE PUSH1 0x20 PUSH1 0x0 KECCAK256 SWAP1 JUMPDEST DUP2 SLOAD DUP2 MSTORE SWAP1 PUSH1 0x1 ADD SWAP1 PUSH1 0x20 ADD DUP1 DUP4 GT PUSH2 0x374 JUMPI DUP3 SWAP1 SUB PUSH1 0x1F AND DUP3 ADD SWAP2 JUMPDEST POP POP POP POP POP SWAP4 POP DUP3 DUP1 SLOAD PUSH2 0x3A4 SWAP1 PUSH2 0x1E6E JUMP JUMPDEST DUP1 PUSH1 0x1F ADD PUSH1 0x20 DUP1 SWAP2 DIV MUL PUSH1 0x20 ADD PUSH1 0x40 MLOAD SWAP1 DUP2 ADD PUSH1 0x40 MSTORE DUP1 SWAP3 SWAP2 SWAP1 DUP2 DUP2 MSTORE PUSH1 0x20 ADD DUP3 DUP1 SLOAD PUSH2 0x3D0 SWAP1 PUSH2 0x1E6E JUMP JUMPDEST DUP1 ISZERO PUSH2 0x41D JUMPI DUP1 PUSH1 0x1F LT PUSH2 0x3F2 JUMPI PUSH2 0x100 DUP1 DUP4 SLOAD DIV MUL DUP4 MSTORE SWAP2 PUSH1 0x20 ADD SWAP2 PUSH2 0x41D JUMP JUMPDEST DUP3 ADD SWAP2 SWAP1 PUSH1 0x0 MSTORE PUSH1 0x20 PUSH1 0x0 KECCAK256 SWAP1 JUMPDEST DUP2 SLOAD DUP2 MSTORE SWAP1 PUSH1 0x1 ADD SWAP1 PUSH1 0x20 ADD DUP1 DUP4 GT PUSH2 0x400 JUMPI DUP3 SWAP1 SUB PUSH1 0x1F AND DUP3 ADD SWAP2 JUMPDEST POP POP POP POP POP SWAP3 POP DUP2 DUP1 SLOAD PUSH2 0x430 SWAP1 PUSH2 0x1E6E JUMP JUMPDEST DUP1 PUSH1 0x1F ADD PUSH1 0x20 DUP1 SWAP2 DIV MUL PUSH1 0x20 ADD PUSH1 0x40 MLOAD SWAP1 DUP2 ADD PUSH1 0x40 MSTORE DUP1 SWAP3 SWAP2 SWAP1 DUP2 DUP2 MSTORE PUSH1 0x20 ADD DUP3 DUP1 SLOAD PUSH2 0x45C SWAP1 PUSH2 0x1E6E JUMP JUMPDEST DUP1 ISZERO PUSH2 0x4A9 JUMPI DUP1 PUSH1 0x1F LT PUSH2 0x47E JUMPI PUSH2 0x100 DUP1 DUP4 SLOAD DIV MUL DUP4 MSTORE SWAP2 PUSH1 0x20 ADD SWAP2 PUSH2 0x4A9 JUMP JUMPDEST DUP3 ADD SWAP2 SWAP1 PUSH1 0x0 MSTORE PUSH1 0x20 PUSH1 0x0 KECCAK256 SWAP1 JUMPDEST DUP2 SLOAD DUP2 MSTORE SWAP1 PUSH1 0x1 ADD SWAP1 PUSH1 0x20 ADD DUP1 DUP4 GT PUSH2 0x48C JUMPI DUP3 SWAP1 SUB PUSH1 0x1F AND DUP3 ADD SWAP2 JUMPDEST POP POP POP POP POP SWAP2 POP DUP1 DUP1 SLOAD DUP1 PUSH1 0x20 MUL PUSH1 0x20 ADD PUSH1 0x40 MLOAD SWAP1 DUP2 ADD PUSH1 0x40 MSTORE DUP1 SWAP3 SWAP2 SWAP1 DUP2 DUP2 MSTORE PUSH1 0x20 ADD DUP3 DUP1 SLOAD DUP1 ISZERO PUSH2 0x4FB JUMPI PUSH1 0x20 MUL DUP3 ADD SWAP2 SWAP1 PUSH1 0x0 MSTORE PUSH1 0x20 PUSH1 0x0 KECCAK256 SWAP1 JUMPDEST DUP2 SLOAD DUP2 MSTORE PUSH1 0x20 ADD SWAP1 PUSH1 0x1 ADD SWAP1 DUP1 DUP4 GT PUSH2 0x4E7 JUMPI JUMPDEST POP POP POP POP POP SWAP1 POP SWAP7 POP SWAP7 POP SWAP7 POP SWAP7 POP SWAP7 POP SWAP7 POP POP SWAP2 SWAP4 SWAP6 POP SWAP2 SWAP4 SWAP6 JUMP JUMPDEST PUSH1 0x1 DUP2 DUP1 MLOAD PUSH1 0x20 DUP2 ADD DUP3 ADD DUP1 MLOAD DUP5 DUP3 MSTORE PUSH1 0x20 DUP4 ADD PUSH1 0x20 DUP6 ADD KECCAK256 DUP2 DUP4 MSTORE DUP1 SWAP6 POP POP POP POP POP POP PUSH1 0x0 SWAP2 POP SWAP1 POP DUP1 PUSH1 0x0 ADD DUP1 SLOAD PUSH2 0x551 SWAP1 PUSH2 0x1E6E JUMP JUMPDEST DUP1 PUSH1 0x1F ADD PUSH1 0x20 DUP1 SWAP2 DIV MUL PUSH1 0x20 ADD PUSH1 0x40 MLOAD SWAP1 DUP2 ADD PUSH1 0x40 MSTORE DUP1 SWAP3 SWAP2 SWAP1 DUP2 DUP2 MSTORE PUSH1 0x20 ADD DUP3 DUP1 SLOAD PUSH2 0x57D SWAP1 PUSH2 0x1E6E JUMP JUMPDEST DUP1 ISZERO PUSH2 0x5CA JUMPI DUP1 PUSH1 0x1F LT PUSH2 0x59F JUMPI PUSH2 0x100 DUP1 DUP4 SLOAD DIV MUL DUP4 MSTORE SWAP2 PUSH1 0x20 ADD SWAP2 PUSH2 0x5CA JUMP JUMPDEST DUP3 ADD SWAP2 SWAP1 PUSH1 0x0 MSTORE PUSH1 0x20 PUSH1 0x0 KECCAK256 SWAP1 JUMPDEST DUP2 SLOAD DUP2 MSTORE SWAP1 PUSH1 0x1 ADD SWAP1 PUSH1 0x20 ADD DUP1 DUP4 GT PUSH2 0x5AD JUMPI DUP3 SWAP1 SUB PUSH1 0x1F AND DUP3 ADD SWAP2 JUMPDEST POP POP POP POP POP SWAP1 DUP1 PUSH1 0x1 ADD DUP1 SLOAD PUSH2 0x5DF SWAP1 PUSH2 0x1E6E JUMP JUMPDEST DUP1 PUSH1 0x1F ADD PUSH1 0x20 DUP1 SWAP2 DIV MUL PUSH1 0x20 ADD PUSH1 0x40 MLOAD SWAP1 DUP2 ADD PUSH1 0x40 MSTORE DUP1 SWAP3 SWAP2 SWAP1 DUP2 DUP2 MSTORE PUSH1 0x20 ADD DUP3 DUP1 SLOAD PUSH2 0x60B SWAP1 PUSH2 0x1E6E JUMP JUMPDEST DUP1 ISZERO PUSH2 0x658 JUMPI DUP1 PUSH1 0x1F LT PUSH2 0x62D JUMPI PUSH2 0x100 DUP1 DUP4 SLOAD DIV MUL DUP4 MSTORE SWAP2 PUSH1 0x20 ADD SWAP2 PUSH2 0x658 JUMP JUMPDEST DUP3 ADD SWAP2 SWAP1 PUSH1 0x0 MSTORE PUSH1 0x20 PUSH1 0x0 KECCAK256 SWAP1 JUMPDEST DUP2 SLOAD DUP2 MSTORE SWAP1 PUSH1 0x1 ADD SWAP1 PUSH1 0x20 ADD DUP1 DUP4 GT PUSH2 0x63B JUMPI DUP3 SWAP1 SUB PUSH1 0x1F AND DUP3 ADD SWAP2 JUMPDEST POP POP POP POP POP SWAP1 DUP1 PUSH1 0x2 ADD DUP1 SLOAD PUSH2 0x66D SWAP1 PUSH2 0x1E6E JUMP JUMPDEST DUP1 PUSH1 0x1F ADD PUSH1 0x20 DUP1 SWAP2 DIV MUL PUSH1 0x20 ADD PUSH1 0x40 MLOAD SWAP1 DUP2 ADD PUSH1 0x40 MSTORE DUP1 SWAP3 SWAP2 SWAP1 DUP2 DUP2 MSTORE PUSH1 0x20 ADD DUP3 DUP1 SLOAD PUSH2 0x699 SWAP1 PUSH2 0x1E6E JUMP JUMPDEST DUP1 ISZERO PUSH2 0x6E6 JUMPI DUP1 PUSH1 0x1F LT PUSH2 0x6BB JUMPI PUSH2 0x100 DUP1 DUP4 SLOAD DIV MUL DUP4 MSTORE SWAP2 PUSH1 0x20 ADD SWAP2 PUSH2 0x6E6 JUMP JUMPDEST DUP3 ADD SWAP2 SWAP1 PUSH1 0x0 MSTORE PUSH1 0x20 PUSH1 0x0 KECCAK256 SWAP1 JUMPDEST DUP2 SLOAD DUP2 MSTORE SWAP1 PUSH1 0x1 ADD SWAP1 PUSH1 0x20 ADD DUP1 DUP4 GT PUSH2 0x6C9 JUMPI DUP3 SWAP1 SUB PUSH1 0x1F AND DUP3 ADD SWAP2 JUMPDEST POP POP POP POP POP SWAP1 DUP1 PUSH1 0x3 ADD DUP1 SLOAD PUSH2 0x6FB SWAP1 PUSH2 0x1E6E JUMP JUMPDEST DUP1 PUSH1 0x1F ADD PUSH1 0x20 DUP1 SWAP2 DIV MUL PUSH1 0x20 ADD PUSH1 0x40 MLOAD SWAP1 DUP2 ADD PUSH1 0x40 MSTORE DUP1 SWAP3 SWAP2 SWAP1 DUP2 DUP2 MSTORE PUSH1 0x20 ADD DUP3 DUP1 SLOAD PUSH2 0x727 SWAP1 PUSH2 0x1E6E JUMP JUMPDEST DUP1 ISZERO PUSH2 0x774 JUMPI DUP1 PUSH1 0x1F LT PUSH2 0x749 JUMPI PUSH2 0x100 DUP1 DUP4 SLOAD DIV MUL DUP4 MSTORE SWAP2 PUSH1 0x20 ADD SWAP2 PUSH2 0x774 JUMP JUMPDEST DUP3 ADD SWAP2 SWAP1 PUSH1 0x0 MSTORE PUSH1 0x20 PUSH1 0x0 KECCAK256 SWAP1 JUMPDEST DUP2 SLOAD DUP2 MSTORE SWAP1 PUSH1 0x1 ADD SWAP1 PUSH1 0x20 ADD DUP1 DUP4 GT PUSH2 0x757 JUMPI DUP3 SWAP1 SUB PUSH1 0x1F AND DUP3 ADD SWAP2 JUMPDEST POP POP POP POP POP SWAP1 DUP1 PUSH1 0x4 ADD DUP1 SLOAD PUSH2 0x789 SWAP1 PUSH2 0x1E6E JUMP JUMPDEST DUP1 PUSH1 0x1F ADD PUSH1 0x20 DUP1 SWAP2 DIV MUL PUSH1 0x20 ADD PUSH1 0x40 MLOAD SWAP1 DUP2 ADD PUSH1 0x40 MSTORE DUP1 SWAP3 SWAP2 SWAP1 DUP2 DUP2 MSTORE PUSH1 0x20 ADD DUP3 DUP1 SLOAD PUSH2 0x7B5 SWAP1 PUSH2 0x1E6E JUMP JUMPDEST DUP1 ISZERO PUSH2 0x802 JUMPI DUP1 PUSH1 0x1F LT PUSH2 0x7D7 JUMPI PUSH2 0x100 DUP1 DUP4 SLOAD DIV MUL DUP4 MSTORE SWAP2 PUSH1 0x20 ADD SWAP2 PUSH2 0x802 JUMP JUMPDEST DUP3 ADD SWAP2 SWAP1 PUSH1 0x0 MSTORE PUSH1 0x20 PUSH1 0x0 KECCAK256 SWAP1 JUMPDEST DUP2 SLOAD DUP2 MSTORE SWAP1 PUSH1 0x1 ADD SWAP1 PUSH1 0x20 ADD DUP1 DUP4 GT PUSH2 0x7E5 JUMPI DUP3 SWAP1 SUB PUSH1 0x1F AND DUP3 ADD SWAP2 JUMPDEST POP POP POP POP POP SWAP1 POP DUP6 JUMP JUMPDEST PUSH1 0x0 PUSH1 0x40 MLOAD DUP1 PUSH1 0xC0 ADD PUSH1 0x40 MSTORE DUP1 DUP9 DUP2 MSTORE PUSH1 0x20 ADD DUP8 DUP2 MSTORE PUSH1 0x20 ADD DUP7 DUP2 MSTORE PUSH1 0x20 ADD DUP6 DUP2 MSTORE PUSH1 0x20 ADD DUP5 DUP2 MSTORE PUSH1 0x20 ADD DUP4 DUP2 MSTORE POP SWAP1 POP DUP1 PUSH1 0x1 DUP10 PUSH1 0x40 MLOAD PUSH2 0x84E SWAP2 SWAP1 PUSH2 0x1E28 JUMP JUMPDEST SWAP1 DUP2 MSTORE PUSH1 0x20 ADD PUSH1 0x40 MLOAD DUP1 SWAP2 SUB SWAP1 KECCAK256 PUSH1 0x0 DUP3 ADD MLOAD DUP2 PUSH1 0x0 ADD SWAP1 DUP1 MLOAD SWAP1 PUSH1 0x20 ADD SWAP1 PUSH2 0x878 SWAP3 SWAP2 SWAP1 PUSH2 0x13E8 JUMP JUMPDEST POP PUSH1 0x20 DUP3 ADD MLOAD DUP2 PUSH1 0x1 ADD SWAP1 DUP1 MLOAD SWAP1 PUSH1 0x20 ADD SWAP1 PUSH2 0x895 SWAP3 SWAP2 SWAP1 PUSH2 0x13E8 JUMP JUMPDEST POP PUSH1 0x40 DUP3 ADD MLOAD DUP2 PUSH1 0x2 ADD SWAP1 DUP1 MLOAD SWAP1 PUSH1 0x20 ADD SWAP1 PUSH2 0x8B2 SWAP3 SWAP2 SWAP1 PUSH2 0x13E8 JUMP JUMPDEST POP PUSH1 0x60 DUP3 ADD MLOAD DUP2 PUSH1 0x3 ADD SWAP1 DUP1 MLOAD SWAP1 PUSH1 0x20 ADD SWAP1 PUSH2 0x8CF SWAP3 SWAP2 SWAP1 PUSH2 0x13E8 JUMP JUMPDEST POP PUSH1 0x80 DUP3 ADD MLOAD DUP2 PUSH1 0x4 ADD SWAP1 DUP1 MLOAD SWAP1 PUSH1 0x20 ADD SWAP1 PUSH2 0x8EC SWAP3 SWAP2 SWAP1 PUSH2 0x13E8 JUMP JUMPDEST POP PUSH1 0xA0 DUP3 ADD MLOAD DUP2 PUSH1 0x5 ADD SWAP1 DUP1 MLOAD SWAP1 PUSH1 0x20 ADD SWAP1 PUSH2 0x909 SWAP3 SWAP2 SWAP1 PUSH2 0x146E JUMP JUMPDEST POP SWAP1 POP POP POP POP POP POP POP POP POP POP JUMP JUMPDEST PUSH1 0x2 SLOAD DUP2 JUMP JUMPDEST PUSH1 0x60 DUP1 PUSH1 0x60 DUP1 PUSH1 0x60 PUSH1 0x0 PUSH1 0x60 DUP1 PUSH1 0x60 PUSH1 0x0 DUP1 PUSH1 0x0 DUP13 DUP2 MSTORE PUSH1 0x20 ADD SWAP1 DUP2 MSTORE PUSH1 0x20 ADD PUSH1 0x0 KECCAK256 SWAP1 POP DUP1 PUSH1 0x0 ADD DUP2 PUSH1 0x1 ADD DUP3 PUSH1 0x2 ADD DUP4 PUSH1 0x3 ADD DUP5 PUSH1 0x4 ADD DUP6 PUSH1 0x5 ADD SLOAD DUP7 PUSH1 0x6 ADD DUP8 PUSH1 0x7 ADD DUP9 PUSH1 0x8 ADD DUP9 DUP1 SLOAD PUSH2 0x973 SWAP1 PUSH2 0x1E6E JUMP JUMPDEST DUP1 PUSH1 0x1F ADD PUSH1 0x20 DUP1 SWAP2 DIV MUL PUSH1 0x20 ADD PUSH1 0x40 MLOAD SWAP1 DUP2 ADD PUSH1 0x40 MSTORE DUP1 SWAP3 SWAP2 SWAP1 DUP2 DUP2 MSTORE PUSH1 0x20 ADD DUP3 DUP1 SLOAD PUSH2 0x99F SWAP1 PUSH2 0x1E6E JUMP JUMPDEST DUP1 ISZERO PUSH2 0x9EC JUMPI DUP1 PUSH1 0x1F LT PUSH2 0x9C1 JUMPI PUSH2 0x100 DUP1 DUP4 SLOAD DIV MUL DUP4 MSTORE SWAP2 PUSH1 0x20 ADD SWAP2 PUSH2 0x9EC JUMP JUMPDEST DUP3 ADD SWAP2 SWAP1 PUSH1 0x0 MSTORE PUSH1 0x20 PUSH1 0x0 KECCAK256 SWAP1 JUMPDEST DUP2 SLOAD DUP2 MSTORE SWAP1 PUSH1 0x1 ADD SWAP1 PUSH1 0x20 ADD DUP1 DUP4 GT PUSH2 0x9CF JUMPI DUP3 SWAP1 SUB PUSH1 0x1F AND DUP3 ADD SWAP2 JUMPDEST POP POP POP POP POP SWAP9 POP DUP8 DUP1 SLOAD PUSH2 0x9FF SWAP1 PUSH2 0x1E6E JUMP JUMPDEST DUP1 PUSH1 0x1F ADD PUSH1 0x20 DUP1 SWAP2 DIV MUL PUSH1 0x20 ADD PUSH1 0x40 MLOAD SWAP1 DUP2 ADD PUSH1 0x40 MSTORE DUP1 SWAP3 SWAP2 SWAP1 DUP2 DUP2 MSTORE PUSH1 0x20 ADD DUP3 DUP1 SLOAD PUSH2 0xA2B SWAP1 PUSH2 0x1E6E JUMP JUMPDEST DUP1 ISZERO PUSH2 0xA78 JUMPI DUP1 PUSH1 0x1F LT PUSH2 0xA4D JUMPI PUSH2 0x100 DUP1 DUP4 SLOAD DIV MUL DUP4 MSTORE SWAP2 PUSH1 0x20 ADD SWAP2 PUSH2 0xA78 JUMP JUMPDEST DUP3 ADD SWAP2 SWAP1 PUSH1 0x0 MSTORE PUSH1 0x20 PUSH1 0x0 KECCAK256 SWAP1 JUMPDEST DUP2 SLOAD DUP2 MSTORE SWAP1 PUSH1 0x1 ADD SWAP1 PUSH1 0x20 ADD DUP1 DUP4 GT PUSH2 0xA5B JUMPI DUP3 SWAP1 SUB PUSH1 0x1F AND DUP3 ADD SWAP2 JUMPDEST POP POP POP POP POP SWAP8 POP DUP7 DUP1 SLOAD PUSH2 0xA8B SWAP1 PUSH2 0x1E6E JUMP JUMPDEST DUP1 PUSH1 0x1F ADD PUSH1 0x20 DUP1 SWAP2 DIV MUL PUSH1 0x20 ADD PUSH1 0x40 MLOAD SWAP1 DUP2 ADD PUSH1 0x40 MSTORE DUP1 SWAP3 SWAP2 SWAP1 DUP2 DUP2 MSTORE PUSH1 0x20 ADD DUP3 DUP1 SLOAD PUSH2 0xAB7 SWAP1 PUSH2 0x1E6E JUMP JUMPDEST DUP1 ISZERO PUSH2 0xB04 JUMPI DUP1 PUSH1 0x1F LT PUSH2 0xAD9 JUMPI PUSH2 0x100 DUP1 DUP4 SLOAD DIV MUL DUP4 MSTORE SWAP2 PUSH1 0x20 ADD SWAP2 PUSH2 0xB04 JUMP JUMPDEST DUP3 ADD SWAP2 SWAP1 PUSH1 0x0 MSTORE PUSH1 0x20 PUSH1 0x0 KECCAK256 SWAP1 JUMPDEST DUP2 SLOAD DUP2 MSTORE SWAP1 PUSH1 0x1 ADD SWAP1 PUSH1 0x20 ADD DUP1 DUP4 GT PUSH2 0xAE7 JUMPI DUP3 SWAP1 SUB PUSH1 0x1F AND DUP3 ADD SWAP2 JUMPDEST POP POP POP POP POP SWAP7 POP DUP6 DUP1 SLOAD PUSH2 0xB17 SWAP1 PUSH2 0x1E6E JUMP JUMPDEST DUP1 PUSH1 0x1F ADD PUSH1 0x20 DUP1 SWAP2 DIV MUL PUSH1 0x20 ADD PUSH1 0x40 MLOAD SWAP1 DUP2 ADD PUSH1 0x40 MSTORE DUP1 SWAP3 SWAP2 SWAP1 DUP2 DUP2 MSTORE PUSH1 0x20 ADD DUP3 DUP1 SLOAD PUSH2 0xB43 SWAP1 PUSH2 0x1E6E JUMP JUMPDEST DUP1 ISZERO PUSH2 0xB90 JUMPI DUP1 PUSH1 0x1F LT PUSH2 0xB65 JUMPI PUSH2 0x100 DUP1 DUP4 SLOAD DIV MUL DUP4 MSTORE SWAP2 PUSH1 0x20 ADD SWAP2 PUSH2 0xB90 JUMP JUMPDEST DUP3 ADD SWAP2 SWAP1 PUSH1 0x0 MSTORE PUSH1 0x20 PUSH1 0x0 KECCAK256 SWAP1 JUMPDEST DUP2 SLOAD DUP2 MSTORE SWAP1 PUSH1 0x1 ADD SWAP1 PUSH1 0x20 ADD DUP1 DUP4 GT PUSH2 0xB73 JUMPI DUP3 SWAP1 SUB PUSH1 0x1F AND DUP3 ADD SWAP2 JUMPDEST POP POP POP POP POP SWAP6 POP DUP5 DUP1 SLOAD PUSH2 0xBA3 SWAP1 PUSH2 0x1E6E JUMP JUMPDEST DUP1 PUSH1 0x1F ADD PUSH1 0x20 DUP1 SWAP2 DIV MUL PUSH1 0x20 ADD PUSH1 0x40 MLOAD SWAP1 DUP2 ADD PUSH1 0x40 MSTORE DUP1 SWAP3 SWAP2 SWAP1 DUP2 DUP2 MSTORE PUSH1 0x20 ADD DUP3 DUP1 SLOAD PUSH2 0xBCF SWAP1 PUSH2 0x1E6E JUMP JUMPDEST DUP1 ISZERO PUSH2 0xC1C JUMPI DUP1 PUSH1 0x1F LT PUSH2 0xBF1 JUMPI PUSH2 0x100 DUP1 DUP4 SLOAD DIV MUL DUP4 MSTORE SWAP2 PUSH1 0x20 ADD SWAP2 PUSH2 0xC1C JUMP JUMPDEST DUP3 ADD SWAP2 SWAP1 PUSH1 0x0 MSTORE PUSH1 0x20 PUSH1 0x0 KECCAK256 SWAP1 JUMPDEST DUP2 SLOAD DUP2 MSTORE SWAP1 PUSH1 0x1 ADD SWAP1 PUSH1 0x20 ADD DUP1 DUP4 GT PUSH2 0xBFF JUMPI DUP3 SWAP1 SUB PUSH1 0x1F AND DUP3 ADD SWAP2 JUMPDEST POP POP POP POP POP SWAP5 POP DUP3 DUP1 SLOAD PUSH2 0xC2F SWAP1 PUSH2 0x1E6E JUMP JUMPDEST DUP1 PUSH1 0x1F ADD PUSH1 0x20 DUP1 SWAP2 DIV MUL PUSH1 0x20 ADD PUSH1 0x40 MLOAD SWAP1 DUP2 ADD PUSH1 0x40 MSTORE DUP1 SWAP3 SWAP2 SWAP1 DUP2 DUP2 MSTORE PUSH1 0x20 ADD DUP3 DUP1 SLOAD PUSH2 0xC5B SWAP1 PUSH2 0x1E6E JUMP JUMPDEST DUP1 ISZERO PUSH2 0xCA8 JUMPI DUP1 PUSH1 0x1F LT PUSH2 0xC7D JUMPI PUSH2 0x100 DUP1 DUP4 SLOAD DIV MUL DUP4 MSTORE SWAP2 PUSH1 0x20 ADD SWAP2 PUSH2 0xCA8 JUMP JUMPDEST DUP3 ADD SWAP2 SWAP1 PUSH1 0x0 MSTORE PUSH1 0x20 PUSH1 0x0 KECCAK256 SWAP1 JUMPDEST DUP2 SLOAD DUP2 MSTORE SWAP1 PUSH1 0x1 ADD SWAP1 PUSH1 0x20 ADD DUP1 DUP4 GT PUSH2 0xC8B JUMPI DUP3 SWAP1 SUB PUSH1 0x1F AND DUP3 ADD SWAP2 JUMPDEST POP POP POP POP POP SWAP3 POP DUP2 DUP1 SLOAD PUSH2 0xCBB SWAP1 PUSH2 0x1E6E JUMP JUMPDEST DUP1 PUSH1 0x1F ADD PUSH1 0x20 DUP1 SWAP2 DIV MUL PUSH1 0x20 ADD PUSH1 0x40 MLOAD SWAP1 DUP2 ADD PUSH1 0x40 MSTORE DUP1 SWAP3 SWAP2 SWAP1 DUP2 DUP2 MSTORE PUSH1 0x20 ADD DUP3 DUP1 SLOAD PUSH2 0xCE7 SWAP1 PUSH2 0x1E6E JUMP JUMPDEST DUP1 ISZERO PUSH2 0xD34 JUMPI DUP1 PUSH1 0x1F LT PUSH2 0xD09 JUMPI PUSH2 0x100 DUP1 DUP4 SLOAD DIV MUL DUP4 MSTORE SWAP2 PUSH1 0x20 ADD SWAP2 PUSH2 0xD34 JUMP JUMPDEST DUP3 ADD SWAP2 SWAP1 PUSH1 0x0 MSTORE PUSH1 0x20 PUSH1 0x0 KECCAK256 SWAP1 JUMPDEST DUP2 SLOAD DUP2 MSTORE SWAP1 PUSH1 0x1 ADD SWAP1 PUSH1 0x20 ADD DUP1 DUP4 GT PUSH2 0xD17 JUMPI DUP3 SWAP1 SUB PUSH1 0x1F AND DUP3 ADD SWAP2 JUMPDEST POP POP POP POP POP SWAP2 POP DUP1 DUP1 SLOAD PUSH2 0xD47 SWAP1 PUSH2 0x1E6E JUMP JUMPDEST DUP1 PUSH1 0x1F ADD PUSH1 0x20 DUP1 SWAP2 DIV MUL PUSH1 0x20 ADD PUSH1 0x40 MLOAD SWAP1 DUP2 ADD PUSH1 0x40 MSTORE DUP1 SWAP3 SWAP2 SWAP1 DUP2 DUP2 MSTORE PUSH1 0x20 ADD DUP3 DUP1 SLOAD PUSH2 0xD73 SWAP1 PUSH2 0x1E6E JUMP JUMPDEST DUP1 ISZERO PUSH2 0xDC0 JUMPI DUP1 PUSH1 0x1F LT PUSH2 0xD95 JUMPI PUSH2 0x100 DUP1 DUP4 SLOAD DIV MUL DUP4 MSTORE SWAP2 PUSH1 0x20 ADD SWAP2 PUSH2 0xDC0 JUMP JUMPDEST DUP3 ADD SWAP2 SWAP1 PUSH1 0x0 MSTORE PUSH1 0x20 PUSH1 0x0 KECCAK256 SWAP1 JUMPDEST DUP2 SLOAD DUP2 MSTORE SWAP1 PUSH1 0x1 ADD SWAP1 PUSH1 0x20 ADD DUP1 DUP4 GT PUSH2 0xDA3 JUMPI DUP3 SWAP1 SUB PUSH1 0x1F AND DUP3 ADD SWAP2 JUMPDEST POP POP POP POP POP SWAP1 POP SWAP10 POP SWAP10 POP SWAP10 POP SWAP10 POP SWAP10 POP SWAP10 POP SWAP10 POP SWAP10 POP SWAP10 POP POP SWAP2 SWAP4 SWAP6 SWAP8 SWAP10 SWAP1 SWAP3 SWAP5 SWAP7 SWAP9 POP JUMP JUMPDEST PUSH1 0x0 PUSH1 0x40 MLOAD DUP1 PUSH2 0x120 ADD PUSH1 0x40 MSTORE DUP1 DUP12 DUP2 MSTORE PUSH1 0x20 ADD DUP11 DUP2 MSTORE PUSH1 0x20 ADD DUP10 DUP2 MSTORE PUSH1 0x20 ADD DUP9 DUP2 MSTORE PUSH1 0x20 ADD DUP8 DUP2 MSTORE PUSH1 0x20 ADD DUP7 DUP2 MSTORE PUSH1 0x20 ADD DUP6 DUP2 MSTORE PUSH1 0x20 ADD DUP5 DUP2 MSTORE PUSH1 0x20 ADD DUP4 DUP2 MSTORE POP SWAP1 POP DUP1 PUSH1 0x0 DUP1 PUSH1 0x2 SLOAD DUP2 MSTORE PUSH1 0x20 ADD SWAP1 DUP2 MSTORE PUSH1 0x20 ADD PUSH1 0x0 KECCAK256 PUSH1 0x0 DUP3 ADD MLOAD DUP2 PUSH1 0x0 ADD SWAP1 DUP1 MLOAD SWAP1 PUSH1 0x20 ADD SWAP1 PUSH2 0xE5C SWAP3 SWAP2 SWAP1 PUSH2 0x13E8 JUMP JUMPDEST POP PUSH1 0x20 DUP3 ADD MLOAD DUP2 PUSH1 0x1 ADD SWAP1 DUP1 MLOAD SWAP1 PUSH1 0x20 ADD SWAP1 PUSH2 0xE79 SWAP3 SWAP2 SWAP1 PUSH2 0x13E8 JUMP JUMPDEST POP PUSH1 0x40 DUP3 ADD MLOAD DUP2 PUSH1 0x2 ADD SWAP1 DUP1 MLOAD SWAP1 PUSH1 0x20 ADD SWAP1 PUSH2 0xE96 SWAP3 SWAP2 SWAP1 PUSH2 0x13E8 JUMP JUMPDEST POP PUSH1 0x60 DUP3 ADD MLOAD DUP2 PUSH1 0x3 ADD SWAP1 DUP1 MLOAD SWAP1 PUSH1 0x20 ADD SWAP1 PUSH2 0xEB3 SWAP3 SWAP2 SWAP1 PUSH2 0x13E8 JUMP JUMPDEST POP PUSH1 0x80 DUP3 ADD MLOAD DUP2 PUSH1 0x4 ADD SWAP1 DUP1 MLOAD SWAP1 PUSH1 0x20 ADD SWAP1 PUSH2 0xED0 SWAP3 SWAP2 SWAP1 PUSH2 0x13E8 JUMP JUMPDEST POP PUSH1 0xA0 DUP3 ADD MLOAD DUP2 PUSH1 0x5 ADD SSTORE PUSH1 0xC0 DUP3 ADD MLOAD DUP2 PUSH1 0x6 ADD SWAP1 DUP1 MLOAD SWAP1 PUSH1 0x20 ADD SWAP1 PUSH2 0xEF7 SWAP3 SWAP2 SWAP1 PUSH2 0x13E8 JUMP JUMPDEST POP PUSH1 0xE0 DUP3 ADD MLOAD DUP2 PUSH1 0x7 ADD SWAP1 DUP1 MLOAD SWAP1 PUSH1 0x20 ADD SWAP1 PUSH2 0xF14 SWAP3 SWAP2 SWAP1 PUSH2 0x13E8 JUMP JUMPDEST POP PUSH2 0x100 DUP3 ADD MLOAD DUP2 PUSH1 0x8 ADD SWAP1 DUP1 MLOAD SWAP1 PUSH1 0x20 ADD SWAP1 PUSH2 0xF32 SWAP3 SWAP2 SWAP1 PUSH2 0x13E8 JUMP JUMPDEST POP SWAP1 POP POP PUSH1 0x2 PUSH1 0x0 DUP2 SLOAD DUP1 SWAP3 SWAP2 SWAP1 PUSH2 0xF49 SWAP1 PUSH2 0x1ECF JUMP JUMPDEST SWAP2 SWAP1 POP SSTORE POP POP POP POP POP POP POP POP POP POP POP JUMP JUMPDEST PUSH1 0x0 PUSH1 0x20 MSTORE DUP1 PUSH1 0x0 MSTORE PUSH1 0x40 PUSH1 0x0 KECCAK256 PUSH1 0x0 SWAP2 POP SWAP1 POP DUP1 PUSH1 0x0 ADD DUP1 SLOAD PUSH2 0xF7D SWAP1 PUSH2 0x1E6E JUMP JUMPDEST DUP1 PUSH1 0x1F ADD PUSH1 0x20 DUP1 SWAP2 DIV MUL PUSH1 0x20 ADD PUSH1 0x40 MLOAD SWAP1 DUP2 ADD PUSH1 0x40 MSTORE DUP1 SWAP3 SWAP2 SWAP1 DUP2 DUP2 MSTORE PUSH1 0x20 ADD DUP3 DUP1 SLOAD PUSH2 0xFA9 SWAP1 PUSH2 0x1E6E JUMP JUMPDEST DUP1 ISZERO PUSH2 0xFF6 JUMPI DUP1 PUSH1 0x1F LT PUSH2 0xFCB JUMPI PUSH2 0x100 DUP1 DUP4 SLOAD DIV MUL DUP4 MSTORE SWAP2 PUSH1 0x20 ADD SWAP2 PUSH2 0xFF6 JUMP JUMPDEST DUP3 ADD SWAP2 SWAP1 PUSH1 0x0 MSTORE PUSH1 0x20 PUSH1 0x0 KECCAK256 SWAP1 JUMPDEST DUP2 SLOAD DUP2 MSTORE SWAP1 PUSH1 0x1 ADD SWAP1 PUSH1 0x20 ADD DUP1 DUP4 GT PUSH2 0xFD9 JUMPI DUP3 SWAP1 SUB PUSH1 0x1F AND DUP3 ADD SWAP2 JUMPDEST POP POP POP POP POP SWAP1 DUP1 PUSH1 0x1 ADD DUP1 SLOAD PUSH2 0x100B SWAP1 PUSH2 0x1E6E JUMP JUMPDEST DUP1 PUSH1 0x1F ADD PUSH1 0x20 DUP1 SWAP2 DIV MUL PUSH1 0x20 ADD PUSH1 0x40 MLOAD SWAP1 DUP2 ADD PUSH1 0x40 MSTORE DUP1 SWAP3 SWAP2 SWAP1 DUP2 DUP2 MSTORE PUSH1 0x20 ADD DUP3 DUP1 SLOAD PUSH2 0x1037 SWAP1 PUSH2 0x1E6E JUMP JUMPDEST DUP1 ISZERO PUSH2 0x1084 JUMPI DUP1 PUSH1 0x1F LT PUSH2 0x1059 JUMPI PUSH2 0x100 DUP1 DUP4 SLOAD DIV MUL DUP4 MSTORE SWAP2 PUSH1 0x20 ADD SWAP2 PUSH2 0x1084 JUMP JUMPDEST DUP3 ADD SWAP2 SWAP1 PUSH1 0x0 MSTORE PUSH1 0x20 PUSH1 0x0 KECCAK256 SWAP1 JUMPDEST DUP2 SLOAD DUP2 MSTORE SWAP1 PUSH1 0x1 ADD SWAP1 PUSH1 0x20 ADD DUP1 DUP4 GT PUSH2 0x1067 JUMPI DUP3 SWAP1 SUB PUSH1 0x1F AND DUP3 ADD SWAP2 JUMPDEST POP POP POP POP POP SWAP1 DUP1 PUSH1 0x2 ADD DUP1 SLOAD PUSH2 0x1099 SWAP1 PUSH2 0x1E6E JUMP JUMPDEST DUP1 PUSH1 0x1F ADD PUSH1 0x20 DUP1 SWAP2 DIV MUL PUSH1 0x20 ADD PUSH1 0x40 MLOAD SWAP1 DUP2 ADD PUSH1 0x40 MSTORE DUP1 SWAP3 SWAP2 SWAP1 DUP2 DUP2 MSTORE PUSH1 0x20 ADD DUP3 DUP1 SLOAD PUSH2 0x10C5 SWAP1 PUSH2 0x1E6E JUMP JUMPDEST DUP1 ISZERO PUSH2 0x1112 JUMPI DUP1 PUSH1 0x1F LT PUSH2 0x10E7 JUMPI PUSH2 0x100 DUP1 DUP4 SLOAD DIV MUL DUP4 MSTORE SWAP2 PUSH1 0x20 ADD SWAP2 PUSH2 0x1112 JUMP JUMPDEST DUP3 ADD SWAP2 SWAP1 PUSH1 0x0 MSTORE PUSH1 0x20 PUSH1 0x0 KECCAK256 SWAP1 JUMPDEST DUP2 SLOAD DUP2 MSTORE SWAP1 PUSH1 0x1 ADD SWAP1 PUSH1 0x20 ADD DUP1 DUP4 GT PUSH2 0x10F5 JUMPI DUP3 SWAP1 SUB PUSH1 0x1F AND DUP3 ADD SWAP2 JUMPDEST POP POP POP POP POP SWAP1 DUP1 PUSH1 0x3 ADD DUP1 SLOAD PUSH2 0x1127 SWAP1 PUSH2 0x1E6E JUMP JUMPDEST DUP1 PUSH1 0x1F ADD PUSH1 0x20 DUP1 SWAP2 DIV MUL PUSH1 0x20 ADD PUSH1 0x40 MLOAD SWAP1 DUP2 ADD PUSH1 0x40 MSTORE DUP1 SWAP3 SWAP2 SWAP1 DUP2 DUP2 MSTORE PUSH1 0x20 ADD DUP3 DUP1 SLOAD PUSH2 0x1153 SWAP1 PUSH2 0x1E6E JUMP JUMPDEST DUP1 ISZERO PUSH2 0x11A0 JUMPI DUP1 PUSH1 0x1F LT PUSH2 0x1175 JUMPI PUSH2 0x100 DUP1 DUP4 SLOAD DIV MUL DUP4 MSTORE SWAP2 PUSH1 0x20 ADD SWAP2 PUSH2 0x11A0 JUMP JUMPDEST DUP3 ADD SWAP2 SWAP1 PUSH1 0x0 MSTORE PUSH1 0x20 PUSH1 0x0 KECCAK256 SWAP1 JUMPDEST DUP2 SLOAD DUP2 MSTORE SWAP1 PUSH1 0x1 ADD SWAP1 PUSH1 0x20 ADD DUP1 DUP4 GT PUSH2 0x1183 JUMPI DUP3 SWAP1 SUB PUSH1 0x1F AND DUP3 ADD SWAP2 JUMPDEST POP POP POP POP POP SWAP1 DUP1 PUSH1 0x4 ADD DUP1 SLOAD PUSH2 0x11B5 SWAP1 PUSH2 0x1E6E JUMP JUMPDEST DUP1 PUSH1 0x1F ADD PUSH1 0x20 DUP1 SWAP2 DIV MUL PUSH1 0x20 ADD PUSH1 0x40 MLOAD SWAP1 DUP2 ADD PUSH1 0x40 MSTORE DUP1 SWAP3 SWAP2 SWAP1 DUP2 DUP2 MSTORE PUSH1 0x20 ADD DUP3 DUP1 SLOAD PUSH2 0x11E1 SWAP1 PUSH2 0x1E6E JUMP JUMPDEST DUP1 ISZERO PUSH2 0x122E JUMPI DUP1 PUSH1 0x1F LT PUSH2 0x1203 JUMPI PUSH2 0x100 DUP1 DUP4 SLOAD DIV MUL DUP4 MSTORE SWAP2 PUSH1 0x20 ADD SWAP2 PUSH2 0x122E JUMP JUMPDEST DUP3 ADD SWAP2 SWAP1 PUSH1 0x0 MSTORE PUSH1 0x20 PUSH1 0x0 KECCAK256 SWAP1 JUMPDEST DUP2 SLOAD DUP2 MSTORE SWAP1 PUSH1 0x1 ADD SWAP1 PUSH1 0x20 ADD DUP1 DUP4 GT PUSH2 0x1211 JUMPI DUP3 SWAP1 SUB PUSH1 0x1F AND DUP3 ADD SWAP2 JUMPDEST POP POP POP POP POP SWAP1 DUP1 PUSH1 0x5 ADD SLOAD SWAP1 DUP1 PUSH1 0x6 ADD DUP1 SLOAD PUSH2 0x1249 SWAP1 PUSH2 0x1E6E JUMP JUMPDEST DUP1 PUSH1 0x1F ADD PUSH1 0x20 DUP1 SWAP2 DIV MUL PUSH1 0x20 ADD PUSH1 0x40 MLOAD SWAP1 DUP2 ADD PUSH1 0x40 MSTORE DUP1 SWAP3 SWAP2 SWAP1 DUP2 DUP2 MSTORE PUSH1 0x20 ADD DUP3 DUP1 SLOAD PUSH2 0x1275 SWAP1 PUSH2 0x1E6E JUMP JUMPDEST DUP1 ISZERO PUSH2 0x12C2 JUMPI DUP1 PUSH1 0x1F LT PUSH2 0x1297 JUMPI PUSH2 0x100 DUP1 DUP4 SLOAD DIV MUL DUP4 MSTORE SWAP2 PUSH1 0x20 ADD SWAP2 PUSH2 0x12C2 JUMP JUMPDEST DUP3 ADD SWAP2 SWAP1 PUSH1 0x0 MSTORE PUSH1 0x20 PUSH1 0x0 KECCAK256 SWAP1 JUMPDEST DUP2 SLOAD DUP2 MSTORE SWAP1 PUSH1 0x1 ADD SWAP1 PUSH1 0x20 ADD DUP1 DUP4 GT PUSH2 0x12A5 JUMPI DUP3 SWAP1 SUB PUSH1 0x1F AND DUP3 ADD SWAP2 JUMPDEST POP POP POP POP POP SWAP1 DUP1 PUSH1 0x7 ADD DUP1 SLOAD PUSH2 0x12D7 SWAP1 PUSH2 0x1E6E JUMP JUMPDEST DUP1 PUSH1 0x1F ADD PUSH1 0x20 DUP1 SWAP2 DIV MUL PUSH1 0x20 ADD PUSH1 0x40 MLOAD SWAP1 DUP2 ADD PUSH1 0x40 MSTORE DUP1 SWAP3 SWAP2 SWAP1 DUP2 DUP2 MSTORE PUSH1 0x20 ADD DUP3 DUP1 SLOAD PUSH2 0x1303 SWAP1 PUSH2 0x1E6E JUMP JUMPDEST DUP1 ISZERO PUSH2 0x1350 JUMPI DUP1 PUSH1 0x1F LT PUSH2 0x1325 JUMPI PUSH2 0x100 DUP1 DUP4 SLOAD DIV MUL DUP4 MSTORE SWAP2 PUSH1 0x20 ADD SWAP2 PUSH2 0x1350 JUMP JUMPDEST DUP3 ADD SWAP2 SWAP1 PUSH1 0x0 MSTORE PUSH1 0x20 PUSH1 0x0 KECCAK256 SWAP1 JUMPDEST DUP2 SLOAD DUP2 MSTORE SWAP1 PUSH1 0x1 ADD SWAP1 PUSH1 0x20 ADD DUP1 DUP4 GT PUSH2 0x1333 JUMPI DUP3 SWAP1 SUB PUSH1 0x1F AND DUP3 ADD SWAP2 JUMPDEST POP POP POP POP POP SWAP1 DUP1 PUSH1 0x8 ADD DUP1 SLOAD PUSH2 0x1365 SWAP1 PUSH2 0x1E6E JUMP JUMPDEST DUP1 PUSH1 0x1F ADD PUSH1 0x20 DUP1 SWAP2 DIV MUL PUSH1 0x20 ADD PUSH1 0x40 MLOAD SWAP1 DUP2 ADD PUSH1 0x40 MSTORE DUP1 SWAP3 SWAP2 SWAP1 DUP2 DUP2 MSTORE PUSH1 0x20 ADD DUP3 DUP1 SLOAD PUSH2 0x1391 SWAP1 PUSH2 0x1E6E JUMP JUMPDEST DUP1 ISZERO PUSH2 0x13DE JUMPI DUP1 PUSH1 0x1F LT PUSH2 0x13B3 JUMPI PUSH2 0x100 DUP1 DUP4 SLOAD DIV MUL DUP4 MSTORE SWAP2 PUSH1 0x20 ADD SWAP2 PUSH2 0x13DE JUMP JUMPDEST DUP3 ADD SWAP2 SWAP1 PUSH1 0x0 MSTORE PUSH1 0x20 PUSH1 0x0 KECCAK256 SWAP1 JUMPDEST DUP2 SLOAD DUP2 MSTORE SWAP1 PUSH1 0x1 ADD SWAP1 PUSH1 0x20 ADD DUP1 DUP4 GT PUSH2 0x13C1 JUMPI DUP3 SWAP1 SUB PUSH1 0x1F AND DUP3 ADD SWAP2 JUMPDEST POP POP POP POP POP SWAP1 POP DUP10 JUMP JUMPDEST DUP3 DUP1 SLOAD PUSH2 0x13F4 SWAP1 PUSH2 0x1E6E JUMP JUMPDEST SWAP1 PUSH1 0x0 MSTORE PUSH1 0x20 PUSH1 0x0 KECCAK256 SWAP1 PUSH1 0x1F ADD PUSH1 0x20 SWAP1 DIV DUP2 ADD SWAP3 DUP3 PUSH2 0x1416 JUMPI PUSH1 0x0 DUP6 SSTORE PUSH2 0x145D JUMP JUMPDEST DUP3 PUSH1 0x1F LT PUSH2 0x142F JUMPI DUP1 MLOAD PUSH1 0xFF NOT AND DUP4 DUP1 ADD OR DUP6 SSTORE PUSH2 0x145D JUMP JUMPDEST DUP3 DUP1 ADD PUSH1 0x1 ADD DUP6 SSTORE DUP3 ISZERO PUSH2 0x145D JUMPI SWAP2 DUP3 ADD JUMPDEST DUP3 DUP2 GT ISZERO PUSH2 0x145C JUMPI DUP3 MLOAD DUP3 SSTORE SWAP2 PUSH1 0x20 ADD SWAP2 SWAP1 PUSH1 0x1 ADD SWAP1 PUSH2 0x1441 JUMP JUMPDEST JUMPDEST POP SWAP1 POP PUSH2 0x146A SWAP2 SWAP1 PUSH2 0x14BB JUMP JUMPDEST POP SWAP1 JUMP JUMPDEST DUP3 DUP1 SLOAD DUP3 DUP3 SSTORE SWAP1 PUSH1 0x0 MSTORE PUSH1 0x20 PUSH1 0x0 KECCAK256 SWAP1 DUP2 ADD SWAP3 DUP3 ISZERO PUSH2 0x14AA JUMPI SWAP2 PUSH1 0x20 MUL DUP3 ADD JUMPDEST DUP3 DUP2 GT ISZERO PUSH2 0x14A9 JUMPI DUP3 MLOAD DUP3 SSTORE SWAP2 PUSH1 0x20 ADD SWAP2 SWAP1 PUSH1 0x1 ADD SWAP1 PUSH2 0x148E JUMP JUMPDEST JUMPDEST POP SWAP1 POP PUSH2 0x14B7 SWAP2 SWAP1 PUSH2 0x14BB JUMP JUMPDEST POP SWAP1 JUMP JUMPDEST JUMPDEST DUP1 DUP3 GT ISZERO PUSH2 0x14D4 JUMPI PUSH1 0x0 DUP2 PUSH1 0x0 SWAP1 SSTORE POP PUSH1 0x1 ADD PUSH2 0x14BC JUMP JUMPDEST POP SWAP1 JUMP JUMPDEST PUSH1 0x0 PUSH1 0x40 MLOAD SWAP1 POP SWAP1 JUMP JUMPDEST PUSH1 0x0 DUP1 REVERT JUMPDEST PUSH1 0x0 DUP1 REVERT JUMPDEST PUSH1 0x0 DUP1 REVERT JUMPDEST PUSH1 0x0 DUP1 REVERT JUMPDEST PUSH1 0x0 PUSH1 0x1F NOT PUSH1 0x1F DUP4 ADD AND SWAP1 POP SWAP2 SWAP1 POP JUMP JUMPDEST PUSH32 0x4E487B7100000000000000000000000000000000000000000000000000000000 PUSH1 0x0 MSTORE PUSH1 0x41 PUSH1 0x4 MSTORE PUSH1 0x24 PUSH1 0x0 REVERT JUMPDEST PUSH2 0x153F DUP3 PUSH2 0x14F6 JUMP JUMPDEST DUP2 ADD DUP2 DUP2 LT PUSH8 0xFFFFFFFFFFFFFFFF DUP3 GT OR ISZERO PUSH2 0x155E JUMPI PUSH2 0x155D PUSH2 0x1507 JUMP JUMPDEST JUMPDEST DUP1 PUSH1 0x40 MSTORE POP POP POP JUMP JUMPDEST PUSH1 0x0 PUSH2 0x1571 PUSH2 0x14D8 JUMP JUMPDEST SWAP1 POP PUSH2 0x157D DUP3 DUP3 PUSH2 0x1536 JUMP JUMPDEST SWAP2 SWAP1 POP JUMP JUMPDEST PUSH1 0x0 PUSH8 0xFFFFFFFFFFFFFFFF DUP3 GT ISZERO PUSH2 0x159D JUMPI PUSH2 0x159C PUSH2 0x1507 JUMP JUMPDEST JUMPDEST PUSH2 0x15A6 DUP3 PUSH2 0x14F6 JUMP JUMPDEST SWAP1 POP PUSH1 0x20 DUP2 ADD SWAP1 POP SWAP2 SWAP1 POP JUMP JUMPDEST DUP3 DUP2 DUP4 CALLDATACOPY PUSH1 0x0 DUP4 DUP4 ADD MSTORE POP POP POP JUMP JUMPDEST PUSH1 0x0 PUSH2 0x15D5 PUSH2 0x15D0 DUP5 PUSH2 0x1582 JUMP JUMPDEST PUSH2 0x1567 JUMP JUMPDEST SWAP1 POP DUP3 DUP2 MSTORE PUSH1 0x20 DUP2 ADD DUP5 DUP5 DUP5 ADD GT ISZERO PUSH2 0x15F1 JUMPI PUSH2 0x15F0 PUSH2 0x14F1 JUMP JUMPDEST JUMPDEST PUSH2 0x15FC DUP5 DUP3 DUP6 PUSH2 0x15B3 JUMP JUMPDEST POP SWAP4 SWAP3 POP POP POP JUMP JUMPDEST PUSH1 0x0 DUP3 PUSH1 0x1F DUP4 ADD SLT PUSH2 0x1619 JUMPI PUSH2 0x1618 PUSH2 0x14EC JUMP JUMPDEST JUMPDEST DUP2 CALLDATALOAD PUSH2 0x1629 DUP5 DUP3 PUSH1 0x20 DUP7 ADD PUSH2 0x15C2 JUMP JUMPDEST SWAP2 POP POP SWAP3 SWAP2 POP POP JUMP JUMPDEST PUSH1 0x0 PUSH1 0x20 DUP3 DUP5 SUB SLT ISZERO PUSH2 0x1648 JUMPI PUSH2 0x1647 PUSH2 0x14E2 JUMP JUMPDEST JUMPDEST PUSH1 0x0 DUP3 ADD CALLDATALOAD PUSH8 0xFFFFFFFFFFFFFFFF DUP2 GT ISZERO PUSH2 0x1666 JUMPI PUSH2 0x1665 PUSH2 0x14E7 JUMP JUMPDEST JUMPDEST PUSH2 0x1672 DUP5 DUP3 DUP6 ADD PUSH2 0x1604 JUMP JUMPDEST SWAP2 POP POP SWAP3 SWAP2 POP POP JUMP JUMPDEST PUSH1 0x0 DUP2 MLOAD SWAP1 POP SWAP2 SWAP1 POP JUMP JUMPDEST PUSH1 0x0 DUP3 DUP3 MSTORE PUSH1 0x20 DUP3 ADD SWAP1 POP SWAP3 SWAP2 POP POP JUMP JUMPDEST PUSH1 0x0 JUMPDEST DUP4 DUP2 LT ISZERO PUSH2 0x16B5 JUMPI DUP1 DUP3 ADD MLOAD DUP2 DUP5 ADD MSTORE PUSH1 0x20 DUP2 ADD SWAP1 POP PUSH2 0x169A JUMP JUMPDEST DUP4 DUP2 GT ISZERO PUSH2 0x16C4 JUMPI PUSH1 0x0 DUP5 DUP5 ADD MSTORE JUMPDEST POP POP POP POP JUMP JUMPDEST PUSH1 0x0 PUSH2 0x16D5 DUP3 PUSH2 0x167B JUMP JUMPDEST PUSH2 0x16DF DUP2 DUP6 PUSH2 0x1686 JUMP JUMPDEST SWAP4 POP PUSH2 0x16EF DUP2 DUP6 PUSH1 0x20 DUP7 ADD PUSH2 0x1697 JUMP JUMPDEST PUSH2 0x16F8 DUP2 PUSH2 0x14F6 JUMP JUMPDEST DUP5 ADD SWAP2 POP POP SWAP3 SWAP2 POP POP JUMP JUMPDEST PUSH1 0x0 DUP2 MLOAD SWAP1 POP SWAP2 SWAP1 POP JUMP JUMPDEST PUSH1 0x0 DUP3 DUP3 MSTORE PUSH1 0x20 DUP3 ADD SWAP1 POP SWAP3 SWAP2 POP POP JUMP JUMPDEST PUSH1 0x0 DUP2 SWAP1 POP PUSH1 0x20 DUP3 ADD SWAP1 POP SWAP2 SWAP1 POP JUMP JUMPDEST PUSH1 0x0 DUP2 SWAP1 POP SWAP2 SWAP1 POP JUMP JUMPDEST PUSH2 0x1742 DUP2 PUSH2 0x172F JUMP JUMPDEST DUP3 MSTORE POP POP JUMP JUMPDEST PUSH1 0x0 PUSH2 0x1754 DUP4 DUP4 PUSH2 0x1739 JUMP JUMPDEST PUSH1 0x20 DUP4 ADD SWAP1 POP SWAP3 SWAP2 POP POP JUMP JUMPDEST PUSH1 0x0 PUSH1 0x20 DUP3 ADD SWAP1 POP SWAP2 SWAP1 POP JUMP JUMPDEST PUSH1 0x0 PUSH2 0x1778 DUP3 PUSH2 0x1703 JUMP JUMPDEST PUSH2 0x1782 DUP2 DUP6 PUSH2 0x170E JUMP JUMPDEST SWAP4 POP PUSH2 0x178D DUP4 PUSH2 0x171F JUMP JUMPDEST DUP1 PUSH1 0x0 JUMPDEST DUP4 DUP2 LT ISZERO PUSH2 0x17BE JUMPI DUP2 MLOAD PUSH2 0x17A5 DUP9 DUP3 PUSH2 0x1748 JUMP JUMPDEST SWAP8 POP PUSH2 0x17B0 DUP4 PUSH2 0x1760 JUMP JUMPDEST SWAP3 POP POP PUSH1 0x1 DUP2 ADD SWAP1 POP PUSH2 0x1791 JUMP JUMPDEST POP DUP6 SWAP4 POP POP POP POP SWAP3 SWAP2 POP POP JUMP JUMPDEST PUSH1 0x0 PUSH1 0xC0 DUP3 ADD SWAP1 POP DUP2 DUP2 SUB PUSH1 0x0 DUP4 ADD MSTORE PUSH2 0x17E5 DUP2 DUP10 PUSH2 0x16CA JUMP JUMPDEST SWAP1 POP DUP2 DUP2 SUB PUSH1 0x20 DUP4 ADD MSTORE PUSH2 0x17F9 DUP2 DUP9 PUSH2 0x16CA JUMP JUMPDEST SWAP1 POP DUP2 DUP2 SUB PUSH1 0x40 DUP4 ADD MSTORE PUSH2 0x180D DUP2 DUP8 PUSH2 0x16CA JUMP JUMPDEST SWAP1 POP DUP2 DUP2 SUB PUSH1 0x60 DUP4 ADD MSTORE PUSH2 0x1821 DUP2 DUP7 PUSH2 0x16CA JUMP JUMPDEST SWAP1 POP DUP2 DUP2 SUB PUSH1 0x80 DUP4 ADD MSTORE PUSH2 0x1835 DUP2 DUP6 PUSH2 0x16CA JUMP JUMPDEST SWAP1 POP DUP2 DUP2 SUB PUSH1 0xA0 DUP4 ADD MSTORE PUSH2 0x1849 DUP2 DUP5 PUSH2 0x176D JUMP JUMPDEST SWAP1 POP SWAP8 SWAP7 POP POP POP POP POP POP POP JUMP JUMPDEST PUSH1 0x0 PUSH1 0xA0 DUP3 ADD SWAP1 POP DUP2 DUP2 SUB PUSH1 0x0 DUP4 ADD MSTORE PUSH2 0x1870 DUP2 DUP9 PUSH2 0x16CA JUMP JUMPDEST SWAP1 POP DUP2 DUP2 SUB PUSH1 0x20 DUP4 ADD MSTORE PUSH2 0x1884 DUP2 DUP8 PUSH2 0x16CA JUMP JUMPDEST SWAP1 POP DUP2 DUP2 SUB PUSH1 0x40 DUP4 ADD MSTORE PUSH2 0x1898 DUP2 DUP7 PUSH2 0x16CA JUMP JUMPDEST SWAP1 POP DUP2 DUP2 SUB PUSH1 0x60 DUP4 ADD MSTORE PUSH2 0x18AC DUP2 DUP6 PUSH2 0x16CA JUMP JUMPDEST SWAP1 POP DUP2 DUP2 SUB PUSH1 0x80 DUP4 ADD MSTORE PUSH2 0x18C0 DUP2 DUP5 PUSH2 0x16CA JUMP JUMPDEST SWAP1 POP SWAP7 SWAP6 POP POP POP POP POP POP JUMP JUMPDEST PUSH1 0x0 PUSH8 0xFFFFFFFFFFFFFFFF DUP3 GT ISZERO PUSH2 0x18E7 JUMPI PUSH2 0x18E6 PUSH2 0x1507 JUMP JUMPDEST JUMPDEST PUSH1 0x20 DUP3 MUL SWAP1 POP PUSH1 0x20 DUP2 ADD SWAP1 POP SWAP2 SWAP1 POP JUMP JUMPDEST PUSH1 0x0 DUP1 REVERT JUMPDEST PUSH2 0x1906 DUP2 PUSH2 0x172F JUMP JUMPDEST DUP2 EQ PUSH2 0x1911 JUMPI PUSH1 0x0 DUP1 REVERT JUMPDEST POP JUMP JUMPDEST PUSH1 0x0 DUP2 CALLDATALOAD SWAP1 POP PUSH2 0x1923 DUP2 PUSH2 0x18FD JUMP JUMPDEST SWAP3 SWAP2 POP POP JUMP JUMPDEST PUSH1 0x0 PUSH2 0x193C PUSH2 0x1937 DUP5 PUSH2 0x18CC JUMP JUMPDEST PUSH2 0x1567 JUMP JUMPDEST SWAP1 POP DUP1 DUP4 DUP3 MSTORE PUSH1 0x20 DUP3 ADD SWAP1 POP PUSH1 0x20 DUP5 MUL DUP4 ADD DUP6 DUP2 GT ISZERO PUSH2 0x195F JUMPI PUSH2 0x195E PUSH2 0x18F8 JUMP JUMPDEST JUMPDEST DUP4 JUMPDEST DUP2 DUP2 LT ISZERO PUSH2 0x1988 JUMPI DUP1 PUSH2 0x1974 DUP9 DUP3 PUSH2 0x1914 JUMP JUMPDEST DUP5 MSTORE PUSH1 0x20 DUP5 ADD SWAP4 POP POP PUSH1 0x20 DUP2 ADD SWAP1 POP PUSH2 0x1961 JUMP JUMPDEST POP POP POP SWAP4 SWAP3 POP POP POP JUMP JUMPDEST PUSH1 0x0 DUP3 PUSH1 0x1F DUP4 ADD SLT PUSH2 0x19A7 JUMPI PUSH2 0x19A6 PUSH2 0x14EC JUMP JUMPDEST JUMPDEST DUP2 CALLDATALOAD PUSH2 0x19B7 DUP5 DUP3 PUSH1 0x20 DUP7 ADD PUSH2 0x1929 JUMP JUMPDEST SWAP2 POP POP SWAP3 SWAP2 POP POP JUMP JUMPDEST PUSH1 0x0 DUP1 PUSH1 0x0 DUP1 PUSH1 0x0 DUP1 PUSH1 0x0 PUSH1 0xE0 DUP9 DUP11 SUB SLT ISZERO PUSH2 0x19DF JUMPI PUSH2 0x19DE PUSH2 0x14E2 JUMP JUMPDEST JUMPDEST PUSH1 0x0 DUP9 ADD CALLDATALOAD PUSH8 0xFFFFFFFFFFFFFFFF DUP2 GT ISZERO PUSH2 0x19FD JUMPI PUSH2 0x19FC PUSH2 0x14E7 JUMP JUMPDEST JUMPDEST PUSH2 0x1A09 DUP11 DUP3 DUP12 ADD PUSH2 0x1604 JUMP JUMPDEST SWAP8 POP POP PUSH1 0x20 DUP9 ADD CALLDATALOAD PUSH8 0xFFFFFFFFFFFFFFFF DUP2 GT ISZERO PUSH2 0x1A2A JUMPI PUSH2 0x1A29 PUSH2 0x14E7 JUMP JUMPDEST JUMPDEST PUSH2 0x1A36 DUP11 DUP3 DUP12 ADD PUSH2 0x1604 JUMP JUMPDEST SWAP7 POP POP PUSH1 0x40 DUP9 ADD CALLDATALOAD PUSH8 0xFFFFFFFFFFFFFFFF DUP2 GT ISZERO PUSH2 0x1A57 JUMPI PUSH2 0x1A56 PUSH2 0x14E7 JUMP JUMPDEST JUMPDEST PUSH2 0x1A63 DUP11 DUP3 DUP12 ADD PUSH2 0x1604 JUMP JUMPDEST SWAP6 POP POP PUSH1 0x60 DUP9 ADD CALLDATALOAD PUSH8 0xFFFFFFFFFFFFFFFF DUP2 GT ISZERO PUSH2 0x1A84 JUMPI PUSH2 0x1A83 PUSH2 0x14E7 JUMP JUMPDEST JUMPDEST PUSH2 0x1A90 DUP11 DUP3 DUP12 ADD PUSH2 0x1604 JUMP JUMPDEST SWAP5 POP POP PUSH1 0x80 DUP9 ADD CALLDATALOAD PUSH8 0xFFFFFFFFFFFFFFFF DUP2 GT ISZERO PUSH2 0x1AB1 JUMPI PUSH2 0x1AB0 PUSH2 0x14E7 JUMP JUMPDEST JUMPDEST PUSH2 0x1ABD DUP11 DUP3 DUP12 ADD PUSH2 0x1604 JUMP JUMPDEST SWAP4 POP POP PUSH1 0xA0 DUP9 ADD CALLDATALOAD PUSH8 0xFFFFFFFFFFFFFFFF DUP2 GT ISZERO PUSH2 0x1ADE JUMPI PUSH2 0x1ADD PUSH2 0x14E7 JUMP JUMPDEST JUMPDEST PUSH2 0x1AEA DUP11 DUP3 DUP12 ADD PUSH2 0x1604 JUMP JUMPDEST SWAP3 POP POP PUSH1 0xC0 DUP9 ADD CALLDATALOAD PUSH8 0xFFFFFFFFFFFFFFFF DUP2 GT ISZERO PUSH2 0x1B0B JUMPI PUSH2 0x1B0A PUSH2 0x14E7 JUMP JUMPDEST JUMPDEST PUSH2 0x1B17 DUP11 DUP3 DUP12 ADD PUSH2 0x1992 JUMP JUMPDEST SWAP2 POP POP SWAP3 SWAP6 SWAP9 SWAP2 SWAP5 SWAP8 POP SWAP3 SWAP6 POP JUMP JUMPDEST PUSH2 0x1B2F DUP2 PUSH2 0x172F JUMP JUMPDEST DUP3 MSTORE POP POP JUMP JUMPDEST PUSH1 0x0 PUSH1 0x20 DUP3 ADD SWAP1 POP PUSH2 0x1B4A PUSH1 0x0 DUP4 ADD DUP5 PUSH2 0x1B26 JUMP JUMPDEST SWAP3 SWAP2 POP POP JUMP JUMPDEST PUSH1 0x0 PUSH1 0x20 DUP3 DUP5 SUB SLT ISZERO PUSH2 0x1B66 JUMPI PUSH2 0x1B65 PUSH2 0x14E2 JUMP JUMPDEST JUMPDEST PUSH1 0x0 PUSH2 0x1B74 DUP5 DUP3 DUP6 ADD PUSH2 0x1914 JUMP JUMPDEST SWAP2 POP POP SWAP3 SWAP2 POP POP JUMP JUMPDEST PUSH1 0x0 PUSH2 0x120 DUP3 ADD SWAP1 POP DUP2 DUP2 SUB PUSH1 0x0 DUP4 ADD MSTORE PUSH2 0x1B98 DUP2 DUP13 PUSH2 0x16CA JUMP JUMPDEST SWAP1 POP DUP2 DUP2 SUB PUSH1 0x20 DUP4 ADD MSTORE PUSH2 0x1BAC DUP2 DUP12 PUSH2 0x16CA JUMP JUMPDEST SWAP1 POP DUP2 DUP2 SUB PUSH1 0x40 DUP4 ADD MSTORE PUSH2 0x1BC0 DUP2 DUP11 PUSH2 0x16CA JUMP JUMPDEST SWAP1 POP DUP2 DUP2 SUB PUSH1 0x60 DUP4 ADD MSTORE PUSH2 0x1BD4 DUP2 DUP10 PUSH2 0x16CA JUMP JUMPDEST SWAP1 POP DUP2 DUP2 SUB PUSH1 0x80 DUP4 ADD MSTORE PUSH2 0x1BE8 DUP2 DUP9 PUSH2 0x16CA JUMP JUMPDEST SWAP1 POP PUSH2 0x1BF7 PUSH1 0xA0 DUP4 ADD DUP8 PUSH2 0x1B26 JUMP JUMPDEST DUP2 DUP2 SUB PUSH1 0xC0 DUP4 ADD MSTORE PUSH2 0x1C09 DUP2 DUP7 PUSH2 0x16CA JUMP JUMPDEST SWAP1 POP DUP2 DUP2 SUB PUSH1 0xE0 DUP4 ADD MSTORE PUSH2 0x1C1D DUP2 DUP6 PUSH2 0x16CA JUMP JUMPDEST SWAP1 POP DUP2 DUP2 SUB PUSH2 0x100 DUP4 ADD MSTORE PUSH2 0x1C32 DUP2 DUP5 PUSH2 0x16CA JUMP JUMPDEST SWAP1 POP SWAP11 SWAP10 POP POP POP POP POP POP POP POP POP POP JUMP JUMPDEST PUSH1 0x0 DUP1 PUSH1 0x0 DUP1 PUSH1 0x0 DUP1 PUSH1 0x0 DUP1 PUSH1 0x0 PUSH2 0x120 DUP11 DUP13 SUB SLT ISZERO PUSH2 0x1C65 JUMPI PUSH2 0x1C64 PUSH2 0x14E2 JUMP JUMPDEST JUMPDEST PUSH1 0x0 DUP11 ADD CALLDATALOAD PUSH8 0xFFFFFFFFFFFFFFFF DUP2 GT ISZERO PUSH2 0x1C83 JUMPI PUSH2 0x1C82 PUSH2 0x14E7 JUMP JUMPDEST JUMPDEST PUSH2 0x1C8F DUP13 DUP3 DUP14 ADD PUSH2 0x1604 JUMP JUMPDEST SWAP10 POP POP PUSH1 0x20 DUP11 ADD CALLDATALOAD PUSH8 0xFFFFFFFFFFFFFFFF DUP2 GT ISZERO PUSH2 0x1CB0 JUMPI PUSH2 0x1CAF PUSH2 0x14E7 JUMP JUMPDEST JUMPDEST PUSH2 0x1CBC DUP13 DUP3 DUP14 ADD PUSH2 0x1604 JUMP JUMPDEST SWAP9 POP POP PUSH1 0x40 DUP11 ADD CALLDATALOAD PUSH8 0xFFFFFFFFFFFFFFFF DUP2 GT ISZERO PUSH2 0x1CDD JUMPI PUSH2 0x1CDC PUSH2 0x14E7 JUMP JUMPDEST JUMPDEST PUSH2 0x1CE9 DUP13 DUP3 DUP14 ADD PUSH2 0x1604 JUMP JUMPDEST SWAP8 POP POP PUSH1 0x60 DUP11 ADD CALLDATALOAD PUSH8 0xFFFFFFFFFFFFFFFF DUP2 GT ISZERO PUSH2 0x1D0A JUMPI PUSH2 0x1D09 PUSH2 0x14E7 JUMP JUMPDEST JUMPDEST PUSH2 0x1D16 DUP13 DUP3 DUP14 ADD PUSH2 0x1604 JUMP JUMPDEST SWAP7 POP POP PUSH1 0x80 DUP11 ADD CALLDATALOAD PUSH8 0xFFFFFFFFFFFFFFFF DUP2 GT ISZERO PUSH2 0x1D37 JUMPI PUSH2 0x1D36 PUSH2 0x14E7 JUMP JUMPDEST JUMPDEST PUSH2 0x1D43 DUP13 DUP3 DUP14 ADD PUSH2 0x1604 JUMP JUMPDEST SWAP6 POP POP PUSH1 0xA0 PUSH2 0x1D54 DUP13 DUP3 DUP14 ADD PUSH2 0x1914 JUMP JUMPDEST SWAP5 POP POP PUSH1 0xC0 DUP11 ADD CALLDATALOAD PUSH8 0xFFFFFFFFFFFFFFFF DUP2 GT ISZERO PUSH2 0x1D75 JUMPI PUSH2 0x1D74 PUSH2 0x14E7 JUMP JUMPDEST JUMPDEST PUSH2 0x1D81 DUP13 DUP3 DUP14 ADD PUSH2 0x1604 JUMP JUMPDEST SWAP4 POP POP PUSH1 0xE0 DUP11 ADD CALLDATALOAD PUSH8 0xFFFFFFFFFFFFFFFF DUP2 GT ISZERO PUSH2 0x1DA2 JUMPI PUSH2 0x1DA1 PUSH2 0x14E7 JUMP JUMPDEST JUMPDEST PUSH2 0x1DAE DUP13 DUP3 DUP14 ADD PUSH2 0x1604 JUMP JUMPDEST SWAP3 POP POP PUSH2 0x100 DUP11 ADD CALLDATALOAD PUSH8 0xFFFFFFFFFFFFFFFF DUP2 GT ISZERO PUSH2 0x1DD0 JUMPI PUSH2 0x1DCF PUSH2 0x14E7 JUMP JUMPDEST JUMPDEST PUSH2 0x1DDC DUP13 DUP3 DUP14 ADD PUSH2 0x1604 JUMP JUMPDEST SWAP2 POP POP SWAP3 SWAP6 SWAP9 POP SWAP3 SWAP6 SWAP9 POP SWAP3 SWAP6 SWAP9 JUMP JUMPDEST PUSH1 0x0 DUP2 SWAP1 POP SWAP3 SWAP2 POP POP JUMP JUMPDEST PUSH1 0x0 PUSH2 0x1E02 DUP3 PUSH2 0x167B JUMP JUMPDEST PUSH2 0x1E0C DUP2 DUP6 PUSH2 0x1DEC JUMP JUMPDEST SWAP4 POP PUSH2 0x1E1C DUP2 DUP6 PUSH1 0x20 DUP7 ADD PUSH2 0x1697 JUMP JUMPDEST DUP1 DUP5 ADD SWAP2 POP POP SWAP3 SWAP2 POP POP JUMP JUMPDEST PUSH1 0x0 PUSH2 0x1E34 DUP3 DUP5 PUSH2 0x1DF7 JUMP JUMPDEST SWAP2 POP DUP2 SWAP1 POP SWAP3 SWAP2 POP POP JUMP JUMPDEST PUSH32 0x4E487B7100000000000000000000000000000000000000000000000000000000 PUSH1 0x0 MSTORE PUSH1 0x22 PUSH1 0x4 MSTORE PUSH1 0x24 PUSH1 0x0 REVERT JUMPDEST PUSH1 0x0 PUSH1 0x2 DUP3 DIV SWAP1 POP PUSH1 0x1 DUP3 AND DUP1 PUSH2 0x1E86 JUMPI PUSH1 0x7F DUP3 AND SWAP2 POP JUMPDEST PUSH1 0x20 DUP3 LT DUP2 EQ ISZERO PUSH2 0x1E9A JUMPI PUSH2 0x1E99 PUSH2 0x1E3F JUMP JUMPDEST JUMPDEST POP SWAP2 SWAP1 POP JUMP JUMPDEST PUSH32 0x4E487B7100000000000000000000000000000000000000000000000000000000 PUSH1 0x0 MSTORE PUSH1 0x11 PUSH1 0x4 MSTORE PUSH1 0x24 PUSH1 0x0 REVERT JUMPDEST PUSH1 0x0 PUSH2 0x1EDA DUP3 PUSH2 0x172F JUMP JUMPDEST SWAP2 POP PUSH32 0xFFFFFFFFFFFFFFFFFFFFFFFFFFFFFFFFFFFFFFFFFFFFFFFFFFFFFFFFFFFFFFFF DUP3 EQ ISZERO PUSH2 0x1F0D JUMPI PUSH2 0x1F0C PUSH2 0x1EA0 JUMP JUMPDEST JUMPDEST PUSH1 0x1 DUP3 ADD SWAP1 POP SWAP2 SWAP1 POP JUMP INVALID LOG2 PUSH5 0x6970667358 0x22 SLT KECCAK256 PUSH23 0xDDEFDA8926E645D096FA82FD43AF0CC8D7D87930FDCC1E NOT SHR DUP10 DUP16 0x2A 0xD0 0xD2 SIGNEXTEND PUSH5 0x736F6C6343 STOP ADDMOD EXP STOP CALLER "
        },
        "gasEstimates": {
            "creation": {
                "codeDepositCost": "1602800",
                "executionCost": "6686",
                "totalCost": "1609486"
            },
            "external": {
                "createSerialDetail(string,string,string,string,string,uint256,string,string,string)": "infinite",
                "createSerialHeader(string,string,string,string,string,string,uint256[])": "infinite",
                "getSerialDetail(uint256)": "infinite",
                "getSerialHeader(string)": "infinite",
                "serialDetailCounter()": "2429",
                "serialDetailsMap(uint256)": "infinite",
                "serialHeadersMap(string)": "infinite"
            }
        },
        "methodIdentifiers": {
            "createSerialDetail(string,string,string,string,string,uint256,string,string,string)": "e59c2870",
            "createSerialHeader(string,string,string,string,string,string,uint256[])": "7f804547",
            "getSerialDetail(uint256)": "d8493fa8",
            "getSerialHeader(string)": "0581e74c",
            "serialDetailCounter()": "c7dcc89b",
            "serialDetailsMap(uint256)": "f7d01c7c",
            "serialHeadersMap(string)": "4b079ff8"
        }
    },
    "storageLayout": {
        "storage": [
            {
                "astId": 39,
                "contract": "SerialHeaderContract.sol:SerialHeaderContract",
                "label": "serialDetailsMap",
                "offset": 0,
                "slot": "0",
                "type": "t_mapping(t_uint256,t_struct(SerialDetail)20_storage)"
            },
            {
                "astId": 44,
                "contract": "SerialHeaderContract.sol:SerialHeaderContract",
                "label": "serialHeadersMap",
                "offset": 0,
                "slot": "1",
                "type": "t_mapping(t_string_memory_ptr,t_struct(SerialHeader)34_storage)"
            },
            {
                "astId": 47,
                "contract": "SerialHeaderContract.sol:SerialHeaderContract",
                "label": "serialDetailCounter",
                "offset": 0,
                "slot": "2",
                "type": "t_uint256"
            }
        ],
        "types": {
            "t_array(t_uint256)dyn_storage": {
                "base": "t_uint256",
                "encoding": "dynamic_array",
                "label": "uint256[]",
                "numberOfBytes": "32"
            },
            "t_mapping(t_string_memory_ptr,t_struct(SerialHeader)34_storage)": {
                "encoding": "mapping",
                "key": "t_string_memory_ptr",
                "label": "mapping(string => struct SerialHeaderContract.SerialHeader)",
                "numberOfBytes": "32",
                "value": "t_struct(SerialHeader)34_storage"
            },
            "t_mapping(t_uint256,t_struct(SerialDetail)20_storage)": {
                "encoding": "mapping",
                "key": "t_uint256",
                "label": "mapping(uint256 => struct SerialHeaderContract.SerialDetail)",
                "numberOfBytes": "32",
                "value": "t_struct(SerialDetail)20_storage"
            },
            "t_string_memory_ptr": {
                "encoding": "bytes",
                "label": "string",
                "numberOfBytes": "32"
            },
            "t_string_storage": {
                "encoding": "bytes",
                "label": "string",
                "numberOfBytes": "32"
            },
            "t_struct(SerialDetail)20_storage": {
                "encoding": "inplace",
                "label": "struct SerialHeaderContract.SerialDetail",
                "members": [
                    {
                        "astId": 3,
                        "contract": "SerialHeaderContract.sol:SerialHeaderContract",
                        "label": "serialId",
                        "offset": 0,
                        "slot": "0",
                        "type": "t_string_storage"
                    },
                    {
                        "astId": 5,
                        "contract": "SerialHeaderContract.sol:SerialHeaderContract",
                        "label": "dateCode",
                        "offset": 0,
                        "slot": "1",
                        "type": "t_string_storage"
                    },
                    {
                        "astId": 7,
                        "contract": "SerialHeaderContract.sol:SerialHeaderContract",
                        "label": "lotCode",
                        "offset": 0,
                        "slot": "2",
                        "type": "t_string_storage"
                    },
                    {
                        "astId": 9,
                        "contract": "SerialHeaderContract.sol:SerialHeaderContract",
                        "label": "poItem",
                        "offset": 0,
                        "slot": "3",
                        "type": "t_string_storage"
                    },
                    {
                        "astId": 11,
                        "contract": "SerialHeaderContract.sol:SerialHeaderContract",
                        "label": "poNumber",
                        "offset": 0,
                        "slot": "4",
                        "type": "t_string_storage"
                    },
                    {
                        "astId": 13,
                        "contract": "SerialHeaderContract.sol:SerialHeaderContract",
                        "label": "quantity",
                        "offset": 0,
                        "slot": "5",
                        "type": "t_uint256"
                    },
                    {
                        "astId": 15,
                        "contract": "SerialHeaderContract.sol:SerialHeaderContract",
                        "label": "uom",
                        "offset": 0,
                        "slot": "6",
                        "type": "t_string_storage"
                    },
                    {
                        "astId": 17,
                        "contract": "SerialHeaderContract.sol:SerialHeaderContract",
                        "label": "receivingLocation",
                        "offset": 0,
                        "slot": "7",
                        "type": "t_string_storage"
                    },
                    {
                        "astId": 19,
                        "contract": "SerialHeaderContract.sol:SerialHeaderContract",
                        "label": "receivingPlant",
                        "offset": 0,
                        "slot": "8",
                        "type": "t_string_storage"
                    }
                ],
                "numberOfBytes": "288"
            },
            "t_struct(SerialHeader)34_storage": {
                "encoding": "inplace",
                "label": "struct SerialHeaderContract.SerialHeader",
                "members": [
                    {
                        "astId": 22,
                        "contract": "SerialHeaderContract.sol:SerialHeaderContract",
                        "label": "headerTxt",
                        "offset": 0,
                        "slot": "0",
                        "type": "t_string_storage"
                    },
                    {
                        "astId": 24,
                        "contract": "SerialHeaderContract.sol:SerialHeaderContract",
                        "label": "billOfLanding",
                        "offset": 0,
                        "slot": "1",
                        "type": "t_string_storage"
                    },
                    {
                        "astId": 26,
                        "contract": "SerialHeaderContract.sol:SerialHeaderContract",
                        "label": "docDate",
                        "offset": 0,
                        "slot": "2",
                        "type": "t_string_storage"
                    },
                    {
                        "astId": 28,
                        "contract": "SerialHeaderContract.sol:SerialHeaderContract",
                        "label": "postingDate",
                        "offset": 0,
                        "slot": "3",
                        "type": "t_string_storage"
                    },
                    {
                        "astId": 30,
                        "contract": "SerialHeaderContract.sol:SerialHeaderContract",
                        "label": "refDocNo",
                        "offset": 0,
                        "slot": "4",
                        "type": "t_string_storage"
                    },
                    {
                        "astId": 33,
                        "contract": "SerialHeaderContract.sol:SerialHeaderContract",
                        "label": "serialDetailIds",
                        "offset": 0,
                        "slot": "5",
                        "type": "t_array(t_uint256)dyn_storage"
                    }
                ],
                "numberOfBytes": "192"
            },
            "t_uint256": {
                "encoding": "inplace",
                "label": "uint256",
                "numberOfBytes": "32"
            }
        }
    },
    "userdoc": {
        "kind": "user",
        "methods": {},
        "version": 1
    }
}